:100000000C942A000C9447000C9447000C94470071
:100010000C9447000C9447000C9447000C94470044
:100020000C9447000C9447000C9447000C94470034
:100030000C9447000C9447000C9447000C94470024
:100040000C9447000C9447000C9447000C94470014
:100050000C94470011241FBECFE5D8E0DEBFCDBF12
:1000600012E0A0E6B0E0ECE8F7E302C005900D92E4
:10007000A437B107D9F722E0A4E7B2E001C01D928E
:10008000A43AB207E1F70E948F0D0C94C41B0C94A4
:100090000000662341F084E690E00E94810684E639
:1000A00090E00C949B0688EC90E00C94BF0DCF93ED
:1000B000FB01C42FB90181309105F1F4E130F10564
:1000C00019F48CEA90E010C0E230F10519F482EBEB
:1000D00090E00AC0E330F10519F488EB90E004C029
:1000E000349721F48EEB90E00E94130B6C2F84E682
:1000F00090E0CF910C94490082309105B9F4E13041
:10010000F10519F484EC90E0EFCFE230F10519F439
:100110008AEC90E0E9CFE330F10519F480ED90E04E
:10012000E3CF349719F786ED90E0DECF8330910569
:10013000B9F4E130F10519F48CED90E0D5CFE2305F
:10014000F10519F482EE90E0CFCFE330F10519F418
:1001500088EE90E0C9CF349749F68EEE90E0C4CF98
:100160000497C1F4E130F10519F484EF90E0BCCFBD
:10017000E230F10519F48AEF90E0B6CFE330F105F3
:1001800019F480E091E0B0CF349709F0AFCF86E06A
:1001900091E0AACFCF9108958536910538F464E6B1
:1001A00070E0681B790B81E00C94BA060895FC019D
:1001B00020E030E0AF01481B590B6191662329F024
:1001C0006532C1F72F5F3F4FF5CFC901841B950BF7
:1001D00007960895EF92FF920F931F93CF93DF93AB
:1001E0008C01EB010E9424100130110509F044C07C
:1001F000DF93CF930FE211E01F930F931F921F9293
:100200001F921F920E9414147E0199E0E90EF11CC6
:10021000C7010E94D700FF92EF921F930F931F9286
:100220001F9209969F938F930E941414CE014296B9
:100230009F938F931F930F931F92FF24F394FF922A
:100240001F921F920E9414146B96CE010E94D70039
:10025000DF93CF931F930F931F92FF9209969F9363
:100260008F930E9414148DB79EB780960FB6F894A2
:100270009EBF0FBE8DBFE3C00230110509F046C01E
:10028000CE0184969F938F930FE211E01F930F93FB
:100290001F921F921F921F920E9414147E019DE2D2
:1002A000E90EF11CC7010E94D700FF92EF921F9345
:1002B0000F931F921F9209969F938F930E9414147D
:1002C000CE01C6969F938F931F930F931F92FF2487
:1002D000F394FF921F921F920E941414EF96CE0186
:1002E0000E94D700DF93CF931F930F931F92FF922B
:1002F00009969F938F930E9414148DB79EB7809692
:100300000FB6F8949EBF0FBE8DBF99C00330110584
:1003100009F049C0CE01885B9F4F9F938F930FE2F6
:1003200011E01F930F931F921F921F921F920E9422
:1003300014147E0191E5E90EF11CC7010E94D7005B
:10034000FF92EF921F930F931F921F9209969F9314
:100350008F930E941414CE01865A9F4F9F938F93C0
:100360001F930F931F92FF24F394FF921F921F92EB
:100370000E941414CD59DF4FCE010E94D700DF93A5
:10038000CF931F930F931F92FF9209969F938F9382
:100390000E9414148DB79EB780960FB6F8949EBF36
:1003A0000FBE8DBF4CC00430110509F048C0CE010E
:1003B00084599F4F9F938F930FE211E01F930F93E8
:1003C0001F921F921F921F920E9414147E0195E7A4
:1003D000E90EF11CC7010E94D700FF92EF921F9314
:1003E0000F931F921F9209969F938F930E9414144C
:1003F000CE0182589F4F9F938F931F930F931F920D
:10040000FF24F394FF921F921F920E941414C95765
:10041000DF4FCE010E94D700DF93CF931F930F933E
:100420001F92FF9209969F938F930E9414148DB789
:100430009EB780960FB6F8949EBF0FBE8DBFDF911A
:10044000CF911F910F91FF90EF900895DF92EF925F
:10045000FF920F931F93CF93DF937C01C0E0D0E016
:100460000CE011E0DD24D394CE15DF0584F41F9356
:100470000F931F92DF92DF93CF930E941414219663
:100480000F900F900F900F900F900F90EDCFDF9186
:10049000CF911F910F91FF90EF90DF900895DF9221
:1004A000EF92FF920F931F93CF93DF93D82EEB0120
:1004B0008A010E9424108FE091E09F938F931F92F6
:1004C0001F921F9283E0F82EFF920E9414148BE17A
:1004D00091E09F938F931F9281E08F931F92FF92E1
:1004E0000E94141486E291E09F938F930E94BA18A1
:1004F000CE010E94CF170E94241060E080E00E948D
:1005000095108DB79EB70E960FB6F8949EBF0FBE8E
:100510008DBFF80180858823A9F0DF93CF938CE20B
:1005200091E09F938F931F921F921F921F920E94A0
:1005300014148DB79EB708960FB6F8949EBF0FBEE1
:100540008DBF10C082E391E09F938F931F921F9203
:100550001F921F920E9414140F900F900F900F90F3
:100560000F900F9081E090E00E9426027E0199E0BA
:10057000E90EF11CC7010E94CF170E94241060E011
:1005800080E00E949510F80180858823A9F0FF92F1
:10059000EF928EE391E09F938F931F921F921F9291
:1005A0001F920E9414148DB79EB708960FB6F89448
:1005B0009EBF0FBE8DBF10C082E391E09F938F93CB
:1005C0001F921F921F921F920E9414140F900F905F
:1005D0000F900F900F900F9082E090E00E94260203
:1005E0007E0192E1E90EF11CC7010E94CF170E9423
:1005F000241060E080E00E949510F8018085882337
:10060000A9F0FF92EF9284E491E09F938F931F9261
:100610001F921F921F920E9414148DB79EB70896C6
:100620000FB6F8949EBF0FBE8DBF10C082E391E05D
:100630009F938F931F921F921F921F920E941414D8
:100640000F900F900F900F900F900F9083E090E01D
:100650000E9426027E019BE1E90EF11CC7010E9467
:10066000CF170E94241060E080E00E949510F801EE
:1006700080858823A9F0FF92EF928AE491E09F930E
:100680008F931F921F921F921F920E9414148DB776
:100690009EB708960FB6F8949EBF0FBE8DBF10C0D0
:1006A00082E391E09F938F931F921F921F921F925C
:1006B0000E9414140F900F900F900F900F900F90B6
:1006C00084E090E00E9426027E0194E2E90EF11C93
:1006D000C7010E94CF170E94241060E080E00E94B2
:1006E0009510F80180858823A9F0FF92EF9280E5AC
:1006F00091E09F938F931F921F921F921F920E94CF
:1007000014148DB79EB708960FB6F8949EBF0FBE0F
:100710008DBF10C082E391E09F938F931F921F9231
:100720001F921F920E9414140F900F900F900F9021
:100730000F900F9085E090E00E9426027E019DE2DE
:10074000E90EF11CC7010E94CF170E94241060E03F
:1007500080E00E949510F80180858823A9F0FF921F
:10076000EF9286E591E09F938F931F921F921F92C5
:100770001F920E9414148DB79EB708960FB6F89476
:100780009EBF0FBE8DBF10C082E391E09F938F93F9
:100790001F921F921F921F920E9414140F900F908D
:1007A0000F900F900F900F9086E090E00E9426022D
:1007B0007E0196E3E90EF11CC7010E94CF170E944B
:1007C000241060E080E00E949510F8018085882365
:1007D000A9F0FF92EF928CE591E09F938F931F9287
:1007E0001F921F921F920E9414148DB79EB70896F5
:1007F0000FB6F8949EBF0FBE8DBF10C082E391E08C
:100800009F938F931F921F921F921F920E94141406
:100810000F900F900F900F900F900F9087E090E047
:100820000E9426027E019FE3E90EF11CC7010E948F
:10083000CF170E94241060E080E00E949510F8011C
:1008400080858823A9F0FF92EF9282E691E09F9342
:100850008F931F921F921F921F920E9414148DB7A4
:100860009EB708960FB6F8949EBF0FBE8DBF10C0FE
:1008700082E391E09F938F931F921F921F921F928A
:100880000E9414140F900F900F900F900F900F90E4
:1008900088E090E00E9426027E0198E4E90EF11CB7
:1008A000C7010E94CF170E94241060E080E00E94E0
:1008B0009510F80180858823A9F0FF92EF9288E6D1
:1008C00091E09F938F931F921F921F921F920E94FD
:1008D00014148DB79EB708960FB6F8949EBF0FBE3E
:1008E0008DBF10C082E391E09F938F931F921F9260
:1008F0001F921F920E9414140F900F900F900F9050
:100900000F900F9089E090E00E9426027E0191E511
:10091000E90EF11CC7010E94CF170E94241060E06D
:1009200080E00E949510F80180858823A9F0FF924D
:10093000EF928EE691E09F938F931F921F921F92EA
:100940001F920E9414148DB79EB708960FB6F894A4
:100950009EBF0FBE8DBF10C082E391E09F938F9327
:100960001F921F921F921F920E9414140F900F90BB
:100970000F900F900F900F908AE090E00E94260257
:100980007E019AE5E90EF11CC7010E94CF170E9473
:10099000241060E080E00E949510F8018085882393
:1009A000A9F0FF92EF9284E791E09F938F931F92BB
:1009B0001F921F921F920E9414148DB79EB7089623
:1009C0000FB6F8949EBF0FBE8DBF10C082E391E0BA
:1009D0009F938F931F921F921F921F920E94141435
:1009E0000F900F900F900F900F900F908BE090E072
:1009F0000E9426027E0193E6E90EF11CC7010E94C7
:100A0000CF170E94241060E080E00E949510F8014A
:100A100080858823A9F0FF92EF928AE791E09F9367
:100A20008F931F921F921F921F920E9414148DB7D2
:100A30009EB708960FB6F8949EBF0FBE8DBF10C02C
:100A400082E391E09F938F931F921F921F921F92B8
:100A50000E9414140F900F900F900F900F900F9012
:100A60008CE090E00E9426027E019CE6E90EF11CDB
:100A7000C7010E94CF170E94241060E080E00E940E
:100A80009510F80180858823A9F0FF92EF9280E805
:100A900091E09F938F931F921F921F921F920E942B
:100AA00014148DB79EB708960FB6F8949EBF0FBE6C
:100AB0008DBF10C082E391E09F938F931F921F928E
:100AC0001F921F920E9414140F900F900F900F907E
:100AD0000F900F908DE090E00E9426027E0195E736
:100AE000E90EF11CC7010E94CF170E94241060E09C
:100AF00080E00E949510F80180858823A9F0FF927C
:100B0000EF9286E891E09F938F931F921F921F921E
:100B10001F920E9414148DB79EB708960FB6F894D2
:100B20009EBF0FBE8DBF10C082E391E09F938F9355
:100B30001F921F921F921F920E9414140F900F90E9
:100B40000F900F900F900F908EE090E00E94260281
:100B50007E019EE7E90EF11CC7010E94CF170E949B
:100B6000241060E080E00E949510F80180858823C1
:100B7000A9F0FF92EF928CE891E09F938F931F92E0
:100B80001F921F921F920E9414148DB79EB7089651
:100B90000FB6F8949EBF0FBE8DBF10C082E391E0E8
:100BA0009F938F931F921F921F921F920E94141463
:100BB0000F900F900F900F900F900F908FE090E09C
:100BC0000E942602C957DF4FCE010E94CF170E9414
:100BD000241060E080E00E949510F8018085882351
:100BE000A9F0DF93CF9382E991E09F938F931F92B7
:100BF0001F921F921F920E9414148DB79EB70896E1
:100C00000FB6F8949EBF0FBE8DBF10C082E391E077
:100C10009F938F931F921F921F921F920E941414F2
:100C20000F900F900F900F900F900F9080E190E039
:100C30000E9426029FEFE9E6F8E19150E040F04083
:100C4000E1F700C000000E94241088E991E09F9322
:100C50008F931F921F921F921F920E94141487EA73
:100C600091E09F938F931F9281E08F931F921F9229
:100C70000E9414148DB79EB70C960FB6F8949EBFC1
:100C80000FBE8DBFDD2029F18DE790E00E949B060D
:100C90008DE790E00E9481068DE790E00E949B0620
:100CA0008DE790E00E9481068DE790E00E949B0610
:100CB0008DE790E00E9481068DE790E00E949B0600
:100CC0008DE790E00E94810688EC90E00E949B06F0
:100CD00004C080EB94E00E94BF0DDF91CF911F9183
:100CE0000F91FF90EF90DF900C94241085369105C2
:100CF00038F464E670E0681B790B82E00C94BA0665
:100D000008950F931F93CF93DF9364E670E00E94E2
:100D1000D6198B01C0E0D0E0CE010E947606C80152
:100D20000E94BF0D2196C436D105B1F7DF91CF9156
:100D30001F910F9108950F931F93CF93DF9364E654
:100D400070E00E94D6198B01C4E6D0E0CE010E946B
:100D50007606C8010E94BF0D21972097B9F7DF9151
:100D6000CF911F910F9108950C94760681B3806303
:100D700081BB0895CF93C82F70E080E090E00E947F
:100D8000D51A23E333E343E250E40E94611B0E943F
:100D9000A71AC13031F0C23039F470E079BD68BDB6
:100DA00003C070E07BBD6ABDCF9108958FB58160AF
:100DB0008FBD8EB588608EBD8FB5806A8FBD8EB5B4
:100DC00083608EBD1BBC1ABC19BC18BC08951F9350
:100DD000CF93DF9300D01F92CDB7DEB76A837B83BA
:100DE00089830E94241089816A817B81882329F06C
:100DF0007F936F9381EB91E004C07F936F9388EBB7
:100E000091E09F938F931F921F921F921F920E94B7
:100E100014140FB6F894DEBF0FBECDBF8CEB91E07B
:100E20009F938F931F9211E01F931F921F920E9416
:100E3000141485EB91E09F938F931F921F931F9241
:100E40008EE08F930E9414140FB6F894DEBF0FBE8D
:100E5000CDBF0F900F900F90DF91CF911F9108950C
:100E60001F93CF93DF9300D000D0CDB7DEB76B8355
:100E70007C8389839A830E9424109A819F9389811D
:100E80008F937C817F936B816F9380EC91E09F9334
:100E90008F931F921F921F921F920E94141487EC2F
:100EA00091E09F938F931F9211E01F931F921F92C7
:100EB0000E94141489EC91E09F938F931F921F93CB
:100EC0001F928FE08F930E9414140FB6F894DEBF28
:100ED0000FBECDBF0F900F900F900F90DF91CF916D
:100EE0001F910895EF92FF921F93CF93DF9300D04D
:100EF000CDB7DEB789839A830E9424109A819F938D
:100F000089818F938FE291E09F938F931F921F921D
:100F10001F921F920E9414148BECE82E81E0F82E91
:100F2000FF92EF921F9211E01F931F921F920E9457
:100F30001414FF92EF921F921F931F928EE08F93D3
:100F40000E9414140FB6F894DEBF0FBECDBF0F90F1
:100F50000F90DF91CF911F91FF90EF9008954F92E6
:100F60005F926F927F929F92AF92BF92CF92DF92E9
:100F7000EF92FF920F931F93CF93DF93EC018B01BE
:100F8000412C512C320134E6E32EF12C9924939418
:100F90004AEFC42ED12C52E3A52EB12CF80180814A
:100FA0009181019709F046C0F8E84F16F3E15F061A
:100FB0006104710434F48FEF481A580A680A780AF9
:100FC00007C08EEC91E00E947207412C512C320137
:100FD000B19B48C1B09BA9C0B29B8AC1B39B8DC1D4
:100FE000B49B02C0B59926C080E090E00E949B06A9
:100FF0000E94241080E090E00E94CC0088EE93E0F4
:101000000E94BF0DB29B0AC0B39B08C0B49B06C030
:10101000B59B04C0B19B02C0B099F4CF84EF91E0BE
:101020000E94BF0D8D819E810E94CC008EEC91E0CC
:101030000E947207F80180819181029709F059C0DE
:10104000F8E84F16F3E15F066104710434F48FEFA2
:10105000481A580A680A780A09C066ED71E08D815D
:101060009E810E943007412C512C3201B19B3BC123
:10107000B09B9AC0B29B3CC1B39B3FC1B4991BC00B
:101080008D819E8118161906B4F40A9797FD03C046
:101090009E838D8302C01E821D828D819E810E944F
:1010A000CC0066ED71E08D819E810E94300788EC56
:1010B00090E00E94BF0DB5991CC08D819E81843641
:1010C0009105BCF40A96853691051CF49E838D83A8
:1010D00002C0FE82ED828D819E810E94CC0066ED71
:1010E00071E08D819E810E94300788EC90E00E9423
:1010F000BF0DF801808191810397C1F5F8E84F1683
:10110000F3E15F066104710434F48FEF481A580A62
:10111000680A780A08C061EE71E08F810E94E706D4
:10112000412C512C3201B19903C082E090E0E7C01C
:10113000B09B93C0B29BDCC0B39BDFC0B4990AC024
:101140001F8261EE71E080E00E94E70688EC90E08B
:101150000E94BF0DB5990AC09F8261EE71E081E0E7
:101160000E94E70688EC90E00E94BF0DF8018081A4
:101170009181049709F055C0F8E84F16F3E15F0636
:101180006104710434F48FEF481A580A680A780A27
:1011900009C06AEE71E089859A850E943007412C6A
:1011A000512C3201B19903C083E090E0A8C0B09BFC
:1011B00095C0B29B9DC0B39BA0C0B49918C089854F
:1011C0009A85833391059CF04997823391051CF0F1
:1011D0009A87898702C0BA86A9866AEE71E08985F6
:1011E0009A850E94300788EC90E00E94BF0DB59967
:1011F00018C089859A858A3F91059CF449968B3F52
:1012000091051CF49A87898702C0DA86C9866AEE3E
:1012100071E089859A850E94300788EC90E00E94F1
:10122000BF0DF801808191810597D9F5F8E84F1637
:10123000F3E15F066104710434F48FEF481A580A31
:10124000680A780A08C065EF71E088850E94E706A1
:10125000412C512C3201B19903C084E090E04FC081
:10126000B09903C086E090E04AC0B29B41C0B39BF6
:1012700044C0B4990AC0188665EF71E080E00E940E
:10128000E70688EC90E00E94BF0DB5990AC09886E9
:1012900065EF71E081E00E94E70688EC90E00E9433
:1012A000BF0DF80180819181069709F077CEF8E8AB
:1012B0004F16F3E15F066104710434F48FEF481AAE
:1012C000580A680A780A08C060E072E08B850E94BC
:1012D000E706412C512C3201B19903C085E090E022
:1012E0000EC0B09903C081E090E009C0B29903C07C
:1012F00086E990E004C0B3991CC086EF9FEFF80127
:101300009183808389859A85880F991F880F991FFB
:10131000DF91CF911F910F91FF90EF90DF90CF90D1
:10132000BF90AF909F907F906F905F904F900C9484
:10133000BF0DB4990AC01B8660E072E080E00E9495
:10134000E70688EC90E00E94BF0DB59927CE9B86FA
:1013500060E072E081E00E94E70688EC90E00E9485
:10136000BF0D1CCEBF92CF92DF92EF92FF920F93F0
:101370001F93CF93DF93CDB7DEB72E970FB6F894B8
:10138000DEBF0FBECDBF8C01FC01858196819F839E
:101390008E83818592859B878A87878188878085D0
:1013A000898783858C8781E090E09E878D870E9466
:1013B00024106CE0C62E62E0D62EDF92CF921F92F0
:1013C0001F921F921F920E9414147FE0E72E72E07A
:1013D000F72EFF92EF921F921F921F92EFE0BE2E08
:1013E000BF920E941414DF92CF921F92DD24D394F7
:1013F000DF921F921F920E941414FF92EF921F928D
:10140000DF921F92BF920E94141482E192E09F9398
:101410008F931F921F921F92F3E0CF2ECF920E94C4
:10142000141487E192E09F938F931F921F921F9253
:1014300089E08F930E9414140FB6F894DEBF0FBE9C
:10144000CDBFACE1EA2EA2E0FA2EFF92EF921F92FE
:10145000DF921F92CF920E941414FF92EF921F927C
:10146000DF921F928BE08F930E941414B1E2EB2E57
:10147000B2E0FB2EFF92EF921F921F921F9282E02A
:10148000C82ECF920E941414FF92EF921F92DF9207
:101490001F92CF920E941414FF92EF921F921F92FC
:1014A0001F929DE0C92ECF920E941414FF92EF92DA
:1014B0001F92DF921F92CF920E9414140FB6F894DD
:1014C000DEBF0FBECDBF80ED97E00E94BF0D0E9432
:1014D00024108D859E859C012150310926303105CF
:1014E00040F4BE01635F7F4FCE0101960E94AF07BB
:1014F000F0CF853691050CF465C00E94241083E27C
:1015000092E09F938F931F921F921F921F920E94AF
:1015100014146E818F81F801658386838A859B858B
:101520009287818788858783898580878C85838753
:10153000808190E00E94CA0D88EC90E00E94BF0D6F
:10154000F8018181678190E00E94CA0D88EC90E0EB
:101550000E94BF0DF8018281618590E00E94CA0D52
:1015600088EC90E00E94BF0DF8018381608590E0D7
:101570000E94CA0D88EC90E00E94BF0DF8018481A2
:10158000638590E00E94CA0D88EC90E00E94BF0D38
:101590000E94241060E080E00E9495108DE292E0AD
:1015A0009F938F931F921F921F921F920E94141459
:1015B00088EE93E00E94BF0D0FB6F894DEBF0FBE19
:1015C000CDBF21C097FF85CFF801858196810E940C
:1015D000CC000E94241060E080E00E94951083E31C
:1015E00092E09F938F931F921F921F921F920E94CF
:1015F000141488EE93E00E94BF0D0F900F900F908F
:101600000F900F900F902E960FB6F894DEBF0FBE7E
:10161000CDBFDF91CF911F910F91FF90EF90DF90A1
:10162000CF90BF900895CF93DF93EB019F938F935B
:101630000E94BA180F900F90CE01DF91CF910C94B9
:10164000BF0D4F925F926F927F928F92AF92CF9227
:10165000EF920F931F93CF93DF93EC013B012A018D
:1016600060E875E280E090E00E94761786E08F9354
:1016700085E08F9384E0882E93E0A92ECC24CA9431
:10168000EE24EA940FEF2FEF42E061E080E00E9449
:101690008A0F60E182E00E943A1017BA8FEF88BB90
:1016A0000E94B6060E94D60680E090E00E949B064B
:1016B00081E090E00E94D20D0F900F90811144C004
:1016C00082E0888382E390E09E838D8382E090E0D5
:1016D0000E94D20D90E09E838D8364E681E00E949B
:1016E000BA0683E0898381E08F8383E090E00E94E3
:1016F000D20D91E0811101C090E09F8384E08A8344
:1017000084E690E09A87898784E090E00E94D20D79
:1017100090E09A87898785E08B83188685E090E042
:101720000E94D20D91E0811101C090E0988786E07F
:101730008C831B8686E090E00E94D20D91E081119F
:1017400001C090E09B8760C00E9424108CE392E06F
:101750009F938F931F921F921F921F920E941414A7
:101760008DE492E09F938F931F9211E01F931F923D
:101770001F920E9414141B8682E390E09E838D8347
:101780001F8384E690E09A878987188660E081E06D
:1017900090E00E94CA0D88816D8190E00E94CA0D80
:1017A00088EC90E00E94BF0D89816F8190E00E94DB
:1017B000CA0D88EC90E00E94BF0D8A81698590E097
:1017C0000E94CA0D88EC90E00E94BF0D8B81688555
:1017D00090E00E94CA0D88EC90E00E94BF0D8C81C1
:1017E0006B8590E00E94CA0D88EC90E00E94BF0DCE
:1017F00088EC90E00E94BF0D8DB79EB70C960FB697
:10180000F8949EBF0FBE8DBF0E94FE128CE00E9416
:10181000FB0F8F81882329F088EE93E00E948106D8
:1018200004C088EE93E00E94BF0D0E9424108EE554
:1018300092E09F938F931F921F921F9213E01F932A
:101840000E94141488E692E09F938F931F9281E088
:101850008F931F921F930E941414EDB7FEB73C960E
:101860000FB6F894FEBF0FBEEDBF00E010E08D8113
:101870009E810817190754F4C8010E94CC0084E126
:1018800090E00E94BF0D0F5F1F4FF1CF88EC90E0FA
:101890000E94BF0D0E94241081E090E0F30191832B
:1018A00080838F81882329F084E690E00E949B0644
:1018B00004C084E690E00E94BF0D8F81882329F048
:1018C00084E690E00E94810604C084E690E00E94D5
:1018D000BF0DAE01B2018F810E944F02B201F30130
:1018E000808191810E94EA00C09A8D819E81DF9162
:1018F000CF911F910F91EF90CF90AF908F907F90ED
:101900006F905F904F900C94CC00CF93DF9300D0FA
:1019100000D0CDB7DEB7442321F169837A838B836E
:101920009C830E9424107A817F9369816F9324ECB9
:1019300031E03F932F931F921F921F9227E02F9326
:101940000E9414140FB6F894DEBF0FBECDBF8B817A
:101950009C810F900F900F900F90DF91CF910C947E
:10196000BF0D0F900F900F900F90DF91CF910895C2
:101970008C01EB015A01412C512C3201C12CD12C8C
:1019800068ECE62EF12C88248394912CB19B02C044
:10199000B09952C0B09916C088819981049794F487
:1019A000F8018781882329F084E690E00E9481066F
:1019B00004C084E690E00E94BF0D688179816F5F6A
:1019C0007F4F17C0B19938C0888199810297A4F1DF
:1019D000F8018781882329F084E690E00E9481063F
:1019E00004C084E690E00E94BF0D68817981615057
:1019F000710979836883F801438584EF91E00E943F
:101A0000850CB501888199810E94EA00F8018781DF
:101A1000882329F084E690E00E949B0604C084E6B7
:101A200090E00E94BF0DF80181859285880F991F73
:101A3000880F991F0E94BF0D86B3837051F4C801AF
:101A40000E94B20999828882B50181E090E00E94EB
:101A5000EA00B29B06C0B39B04C0B49B02C0B59918
:101A60003BC0B29908C0688179819701F80147812C
:101A700081E090E01DC0B39908C068817981970129
:101A8000F801478182E090E013C0B49908C06881F2
:101A900079819701F801478183E090E009C0B59909
:101AA00009C0688179819701F801478184E090E05D
:101AB0000E945700FFEFCF1ADF0A83E0C816D10457
:101AC00089F0E5E0CE16D10489F0F8E0CF16D10414
:101AD00081F4E12CF12C0DC0C12CD12C48ECE42E6A
:101AE000F12C07C036E9E32EF12C03C024E6E22EE8
:101AF000F12C88E8481683E158066104710434F437
:101B0000EFEF4E1A5E0A6E0A7E0A40CFB501888159
:101B100099810E94EA00412C512C320137CFCF939A
:101B2000DF93CDB7DEB7C25CD1090FB6F894DEBF44
:101B30000FBECDBFCF53DF4F19821882C15CD0409A
:101B4000AE014F5F5F4FBE016F537F4FCE018B548D
:101B50009F4F0E94210BAE014F5F5F4FBE016F533D
:101B60007F4FCE018B549F4F0E94B80C009731F0ED
:101B700025E02A95F1F700000197F8CF0895009726
:101B800041F0EFE9FFE03197F1F700C00000019765
:101B9000F6CF0895E199FECF9FBB8EBB6DBBE29A55
:101BA000E19A0895E199FECF9FBB8EBBE09A8DB379
:101BB00008950F931F93CF93DF93EB018C01061BC6
:101BC000170BCE01800F911F69910E94CA0DFE0173
:101BD000319780818111F5CFDF91CF911F910F91C6
:101BE00008950F931F93CF93DF93EB018C01061B96
:101BF000170BCE01800F911F0E94D20D8993811186
:101C0000F8CFDF91CF911F910F910895282F277062
:101C10008695869586958130B9F028F0823029F135
:101C20008330A1F108953AB381E090E0022E01C023
:101C3000880F0A94EAF7662319F0382B3ABB089507
:101C4000809583238ABB089537B381E090E0022E0C
:101C500001C0880F0A94EAF7662319F0382B37BBC6
:101C600008958095832387BB089534B381E090E085
:101C7000022E01C0880F0A94EAF7662319F0382B68
:101C800034BB08958095832384BB089531B381E0EC
:101C900090E0022E01C0880F0A94EAF7662319F03B
:101CA000382B31BB08958095832381BB0895282F5D
:101CB00027708695869586958130B9F028F0823018
:101CC00029F18330A1F108953BB381E090E0022E29
:101CD00001C0880F0A94EAF7662319F0382B3BBB42
:101CE0000895809583238BBB089538B381E090E0FD
:101CF000022E01C0880F0A94EAF7662319F0382BE8
:101D000038BB08958095832388BB089535B381E05F
:101D100090E0022E01C0880F0A94EAF7662319F0BA
:101D2000382B35BB08958095832385BB089532B346
:101D300081E090E0022E01C0880F0A94EAF7662342
:101D400019F0382B32BB08958095832382BB089508
:101D5000282F2770869586958695813049F030F03A
:101D6000823041F0833079F480B305C089B303C079
:101D700086B301C083B390E002C0959587952A95FC
:101D8000E2F78170089580E00895CF93C82F84FB17
:101D9000662760F980919E020E94570EC5FB662758
:101DA00060F980919F020E94570EC6FB662760F97A
:101DB0008091A0020E94570E6C2F661F6627661F37
:101DC0008091A102CF910C94570ECF93DF9360E0E6
:101DD000809197020E94570E60E0809198020E94C5
:101DE000570EC9E9D2E061E088810E94570E8AE06F
:101DF00090E00E94B60D60E08881DF91CF910C9455
:101E0000570ECF93C82F682F617080919A020E945D
:101E1000570EC1FB662760F980919B020E94570E06
:101E2000C2FB662760F980919C020E94570EC3FB9B
:101E3000662760F980919D02CF910C94570ECF9345
:101E4000DF9361E0809197020E94570E60E08091DD
:101E500098020E94570EC9E9D2E061E088810E9491
:101E6000570E8AE090E00E94B60D60E08881DF9115
:101E7000CF910C94570ECF93809198028F3F09F425
:101E800044C060E08091A1020E94060E60E0809153
:101E900097020E94570E61E0809198020E94570EAF
:101EA00060E0809199020E94570E8AE090E00E94C3
:101EB000B60D61E0809199020E94570E8AE090E091
:101EC0000E94B60D8091A1020E94A80EC82F809199
:101ED0009602843091F460E0809199020E94570E3E
:101EE0008AE090E00E94B60D61E0809199020E9424
:101EF000570E8AE090E00E94B60DC111D1CF61E08B
:101F00008091A102CF910C94060E81E090E0CF91D8
:101F10000C94BF0D8F929F92AF92BF92CF92DF929F
:101F2000EF92FF920F931F93CF93DF93CDB7DEB75E
:101F3000D82E162FF42E9F84B88880939702609332
:101F400098024093990220939A0200939B02E09298
:101F50009C02C0929D02A0929E0280929F0290924B
:101F6000A002B092A1022F3F39F00F3F29F08FEF6E
:101F7000E81611F0C81204C084E08093960213C0E2
:101F800088E08093960261E0822F0E94060E61E055
:101F9000802F0E94060E61E08E2D0E94060E61E0E9
:101FA0008C2D0E94060E61E08D2D0E94060E61E0D0
:101FB000812F0E94060E61E08F2D0E94060E61E0C7
:101FC0008A2D0E94060E61E0882D0E94060E61E0B7
:101FD000892D0E94060E61E08B2DDF91CF911F911C
:101FE0000F91FF90EF90DF90CF90BF90AF909F90B8
:101FF0008F900C94060ECF93C82F0E943B0F8091B8
:102000009602883021F48C2F0E94010F07C08C2F7C
:102010000E94C50E0E94E50EC295C07F8C2F0E94C3
:10202000C50ECF910C94E50E90919402891758F447
:102030001092A2028093A302E82FF0E0E05AFF4F33
:1020400080810C94FB0F0895E4E7F2E080E2819335
:1020500092E0E438F907D9F7E4E8F2E080E281930E
:1020600092E0E439F907D9F781E00E94FB0F80E0A4
:102070000C9414106093950280939402833040F086
:102080006F7080E9860F80936200605360936300F5
:1020900084E690E00E94BF0D80919602883011F492
:1020A00088E327C0843039F580E30E94C50E0E9482
:1020B000E50E84E690E00E94BF0D80E30E94C50E0D
:1020C0000E94E50E88EC90E00E94B60D80E30E942D
:1020D000C50E0E94E50E88EC90E00E94B60D80E2ED
:1020E0000E94C50E0E94E50E88EC90E00E94B60D9D
:1020F00088E20E94FB0F8EE00E94FB0F0C942410DC
:102100008091A3028F5F8093A3021092A20290910C
:102110009402891710F01092A302E091A302F0E05C
:10212000E05AFF4F80810C94FB0F90919402891725
:1021300080F490919502691760F46093A2028093F5
:10214000A302E82FF0E0E05AFF4F8081860F0C9445
:10215000FB0F0895CF93C82F9091A2028091950212
:10216000981760F4CA3051F00E943B0F809196029C
:10217000883049F48C2F0E94010F0CC00E948010FF
:10218000CA3091F0F1CF8C2F0E94C50E0E941F0F14
:10219000C295C07F8C2F0E94C50E0E941F0F809198
:1021A000A2028F5F8093A202CF910895AF92BF9257
:1021B000CF92DF92EF92FF920F931F93CF93DF9313
:1021C0001F92CDB7DEB76B017C01AA24A394B12C7A
:1021D0004423F1F00FEF040FC50102C0880F991FCF
:1021E0000A95E2F78C01222717FD2095322F0C214A
:1021F0001D212E213F2181E0012B022B032B09F40D
:1022000080E0805D49830E94AA1049814150E0CF5F
:102210000F90DF91CF911F910F91FF90EF90DF9082
:10222000CF90BF90AF900895CF93DF93EC01899149
:10223000882319F00E94AA10FACFDF91CF91089558
:10224000DF92EF92FF920F931F93CF93DF93D82EDD
:102250008B0180919402D81608F0D12C8CE00E945A
:10226000FB0FE12CE801CE0DD11D8881882309F1F7
:102270008D2D0E941410F12C80919502F81650F4C7
:10228000FE01EF0DF11D8081882321F00E94AA102C
:10229000F394F2CF80919502F81628F480E20E9420
:1022A000AA10F394F7CF88EC90E00E94BF0DE3945E
:1022B000D9CF8EE0DF91CF911F910F91FF90EF90DA
:1022C000DF900C94FB0F7F928F929F92AF92BF9200
:1022D000CF92DF92EF92FF920F931F93CF93DF93F2
:1022E000CDB7DEB72A970FB6F894DEBF0FBECDBFCD
:1022F000782ECB01BA01C22E22E0721216C04C2DEC
:102300002A960FB6F894DEBF0FBECDBFDF91CF91F6
:102310001F910F91FF90EF90DF90CF90BF90AF9003
:102320009F908F907F900C94D61061157105810558
:10233000910549F0FE0131967F018F01872C912C88
:10234000A12CB12C29C080E32A960FB6F894DEBFE9
:102350000FBECDBFDF91CF911F910F91FF90EF90F6
:10236000DF90CF90BF90AF909F908F907F900C9414
:10237000AA10611571058105910599F0D62EA50168
:1023800094010E94EA19CA01B901729ED018112461
:10239000F801D0820F5F1F4FD02EDE18DC1448F3F7
:1023A00010C0FAE0FC1568F0F8011082F3CFFE01CE
:1023B000ED0DF11D80818A3038F0895C0E94AA10F1
:1023C000DA94D110F4CF02C0805DF8CF2A960FB610
:1023D000F894DEBF0FBECDBFDF91CF911F910F915B
:1023E000FF90EF90DF90CF90BF90AF909F908F9035
:1023F0007F9008952F923F925F926F927F928F927B
:102400009F92AF92BF92CF92DF92EF92FF920F9383
:102410001F93CF93DF93CDB7DEB72E970FB6F89407
:10242000DEBF0FBECDBF682E722E470122E08213A1
:1024300041C0EE24E394F12CA4E0880C991CAA95E9
:10244000E1F7772009F4A9C08FEF870DD70102C00B
:10245000AA0FBB1F8A95E2F7CD01AA2797FDA09589
:10246000BA2F84239523A623B72321E0892B8A2B17
:102470008B2B09F420E0E0E3DE2ED20E8D2D4B876E
:102480005C876D877E870E94AA10D801ED91FC9130
:102490001197E80DF91DEC58FD4FD0828D919C915C
:1024A000119701968D939C937A947E856D855C85BA
:1024B0004B85C7CF411551056105710509F454C01D
:1024C000FE0131961F015F01C82ED12CE12CF12CA9
:1024D0005A2C52185714B8F441155105610571056D
:1024E00079F0542ECB01BA01A70196010E94EA1996
:1024F000BA01A901649E50181124D5015C920BC049
:10250000BAE0B71530F434E0880C991C3A95E1F73D
:1025100024C0F5011082FFEFAF1ABF0AD9CFFE0128
:10252000E50DF11D90819A30D8F087E3890F9B87E4
:102530000E94AA10D801ED91FC919B859A3090F0F1
:10254000995CE80DF91DEC58FD4F9083F8018081EE
:1025500091810196918380835A945110E0CF1DC0E0
:1025600080E3E4CF905DEDCF80E30E94AA10D80114
:102570008D919C911197F70124E0EE0FFF1F2A9592
:10258000E1F7E80FF91FEC58FD4F80E380838D9150
:102590009C91119701968D939C932E960FB6F8946B
:1025A000DEBF0FBECDBFDF91CF911F910F91FF9086
:1025B000EF90DF90CF90BF90AF909F908F907F90E3
:1025C0006F905F903F902F900895CF93C82F0E94F7
:1025D0003B0F80919602883021F48C2F0E94010FCE
:1025E00007C08C2F0E94C50E0E941F0FC295C07F8E
:1025F0008C2F0E94C50ECF910C941F0FAF92BF92EB
:10260000CF92DF92EF92FF920F931F93CF93DF93BE
:10261000CDB7DEB7C854D1090FB6F894DEBF0FBEF0
:10262000CDBF88E0E4E6F0E0DE01AF5BBF4F019094
:102630000D928A95E1F780E4ECE6F0E0DE01119678
:1026400001900D928A95E1F78E010F5B1F4FCE012D
:1026500001966C01580198E0A90EB11CF801819116
:102660008F010E94FB0FE12CF12CF601EE0DFF1DF6
:1026700080810E94E512FFEFEF1AFF0A88E0E8165A
:10268000F10499F798E0C90ED11C0A151B0531F722
:10269000C85BDF4F0FB6F894DEBF0FBECDBFDF9132
:1026A000CF911F910F91FF90EF90DF90CF90BF904F
:1026B000AF9008958130910511F480E021C08230FF
:1026C000910511F481E01CC08330910511F482E082
:1026D00017C08430910511F483E012C08530910554
:1026E00011F484E00DC08630910511F485E008C036
:1026F0008730910511F486E003C0089719F487E04C
:102700000C94E51208958FEF0C94E5128FE70C946A
:10271000E5128EE70C94E51285EA0C94E512DF923F
:10272000EF92FF920F931F93CF93DF93FC01EB0186
:102730008A01B4E0000F111FBA95E1F7D080DD20C7
:1027400009F46AC085E27F01D81252C082E0E80E27
:10275000F11CD1808EE3D816B1F18D15C8F08EE250
:10276000D81609F442C08D1540F085E2D81649F11B
:102770008CE2D8124FC085E029C08BE3D81669F1EE
:102780008CE3D81611F18AE3D81244C086E01EC04B
:102790008DE5D81639F18D1548F08FE3D816F9F08C
:1027A0008BE5D81237C00E94861328C08CE7D81654
:1027B00081F08DE7D81679F08BE7D8122BC083E033
:1027C00005C085E219C080E001C081E00E94E512E9
:1027D00015C082E0FBCF84E0F9CF87E0F7CF0E94FD
:1027E00083130CC00E94891309C00E948C1306C079
:1027F0008FEFE81AF80A8D2D0E94AA10E881F9815E
:10280000E00FF11FEC58FD4FD0828881998101962D
:1028100099838883F70192CFDF91CF911F910F9118
:10282000FF90EF90DF9008956F927F928F929F922A
:10283000AF92BF92CF92DF92EF92FF920F931F93CE
:10284000CF93DF93CDB7DEB727970FB6F894DEBFEF
:102850000FBECDBF188D098DAA8CBB8C6C8C7D8C66
:10286000612F8A2D0E94951019830A838E01025EC2
:102870001F4F650184E0CC0CDD1C8A95E1F7F30164
:102880009080992009F47EC185E2981266C14301C7
:102890009FEF891A990AF301918180ED890F8A309F
:1028A00080F420E080ED890F8A3060F4FAE02F9FF9
:1028B000800D1124282F8FEF881A980AF401908137
:1028C000F1CF2FEF953509F4DEC078F59C3309F48C
:1028D00062C0A0F49E3209F46DC040F4953209F450
:1028E0002AC19C3209F049C185E056C09A3309F4E7
:1028F0005BC09B3309F041C187E04EC0923409F4BC
:10290000F7C050F49E3309F444C09F3309F035C139
:102910009B830E94831313C1943409F488C008F484
:102920004DC0933509F4F8C028C1943609F45CC051
:1029300098F49D35D9F150F4983509F4BDC09B3514
:1029400009F01BC19B830E948613F9C0923609F4DB
:10295000C2C0933699F111C1983709F4A3C080F42D
:10296000933709F4D9C0953709F007C13801F2E06F
:102970006F0E711CF8014081518160E070E08CC0E5
:102980009C3771F09D3771F09B3709F0F6C083E0FA
:1029900003C080E001C081E09B830E94E512CFC0AC
:1029A00082E0FACF84E0F8CF86E0F6CF9B830E94E6
:1029B0008913C5C09B830E948C13C1C03801F2E00B
:1029C0006F0E711CF8011081812F0E94AA102981BD
:1029D0003A81F601E20FF31FEC58FD4F10832F5F91
:1029E0003F4F3A832983A5C03801F2E06F0E711C76
:1029F000F8010081118117FF14C01195019511098B
:102A00008DE22F830E94AA1089819A81F601E80F36
:102A1000F91FEC58FD4F3DE2308301969A8389837C
:102A20002F81A801662757FD6095762F35C03801A4
:102A3000F4E06F0E711CF801408151816281738155
:102A400077FF2AC070956095509541955F4F6F4F05
:102A50007F4F8DE22F834B835C836D837E830E9447
:102A6000AA1089819A81F601E80FF91FEC58FD4FF1
:102A70003DE2308301969A8389837E816D815C81FA
:102A80004B812F8109C03801F4E06F0E711CF801F1
:102A9000408151816281738175018E010F5F1F4FEB
:102AA0008AE037C03801F2E06F0E711CF8014081F6
:102AB000518160E070E009C03801F4E06F0E711CD4
:102AC000F801408151816281738175018E010F5F30
:102AD0001F4F80E11EC03801F2E06F0E711CF8013B
:102AE000408151812F3F09F420E160E070E00CC08B
:102AF0003801F4E06F0E711CF80140815181628150
:102B000073812F3F09F420E175018E010F5F1F4F84
:102B100082E00E94FA110DC03801F2E06F0E711CC4
:102B2000A501BE016F5F7F4FF801808191810E94F6
:102B30008F13830122C085E29B830E94AA10298102
:102B40003A81F601E20FF31FEC58FD4F9B81908311
:102B50002F5F3F4F3A83298310C0892D0E94AA100E
:102B600029813A81F601E20FF31FEC58FD4F908264
:102B70002F5F3F4F3A83298343013401FFEF6F1AE0
:102B80007F0A7DCE27960FB6F894DEBF0FBECDBF6D
:102B9000DF91CF911F910F91FF90EF90DF90CF9039
:102BA000BF90AF909F908F907F906F900895FC01A1
:102BB0008281938186179707ECF084E792E09F93D8
:102BC0008F931F921F921F921F920E94141484E8E9
:102BD00092E09F938F931F921F921F9281E08F9399
:102BE0000E9414148DB79EB70C960FB6F8949EBF32
:102BF0000FBE8DBF0895CF92DF92EF92FF920F9399
:102C00001F93CF93DF9300D000D01F92CDB7DEB7D4
:102C1000FE017096E190F1906F01F70180818823A9
:102C200009F429C1853209F01EC187010F5F1F4FCA
:102C3000F701818190ED980F9A3078F420E090EDC3
:102C4000980F9A3058F4FAE02F9F900D1124292FF5
:102C50000F5F1F4FF8018081F2CF2FEF853509F408
:102C6000B4C070F58C3309F460C0A0F48E3209F45E
:102C700069C040F4853209F4F2C08C3209F0F6C024
:102C800085E05AC08A3309F456C08B3309F0EEC090
:102C900087E052C0823409F4C7C048F48E3309F487
:102CA00042C08F3309F0E2C00E948313DFC0843436
:102CB00009F46BC008F449C0833509F4C5C0D6C017
:102CC000843609F44BC090F48D35C9F148F4883549
:102CD00009F490C08B3509F0C9C00E948613C6C0A4
:102CE000823609F494C0833681F1C0C0883709F474
:102CF00077C080F4833709F4A7C0853709F0B6C0E0
:102D00007601F2E0EF0EF11CF6014081518160E0A6
:102D100070E064C08C3759F08D3759F08B3709F06B
:102D2000A5C083E009C080E007C081E005C082E063
:102D300003C084E001C086E00E94E51297C00E94B3
:102D4000891394C00E948C1391C07601F2E0EF0EBB
:102D5000F11CF60180810E94AA107FC07601F2E08A
:102D6000EF0EF11CF601C080D180D7FE08C0D194CF
:102D7000C194D1088DE22D830E94AA102D81A60155
:102D8000662757FD6095762F29C07601F4E0EF0E97
:102D9000F11CF601408151816281738177FF1EC071
:102DA00070956095509541955F4F6F4F7F4F8DE2C5
:102DB0002D8349835A836B837C830E94AA107C8174
:102DC0006B815A8149812D8109C07601F4E0EF0EB3
:102DD000F11CF60140815181628173818AE014C047
:102DE0007601F2E0EF0EF11CF6014081518160E0C6
:102DF00070E009C07601F4E0EF0EF11CF6014081AD
:102E000051816281738180E10E94631126C0760145
:102E1000F2E0EF0EF11CF601608171812F3F09F4A1
:102E200020E180E090E00CC07601F4E0EF0EF11CB0
:102E3000F60160817181828193812F3F09F420E145
:102E4000422F0E94D61009C07601F2E0EF0EF11C6D
:102E5000F601808191810E941411670107C085E20B
:102E60000E94AA1003C00E94AA1087017801FFEFF8
:102E7000EF1AFF0AD2CE0F900F900F900F900F9085
:102E8000DF91CF911F910F91FF90EF90DF90CF9046
:102E90000895CF92DF92EF92FF926B017C01DC01EB
:102EA000CB0180569940A109B109813A984BA140C4
:102EB000B10598F4A8EFBFEFA70196010E940F1A81
:102EC0007C5D8B409F4FE4E0220F331F441F551F52
:102ED000EA95D1F70E94EA1902C027E630E029B945
:102EE00030BDFF90EF90DF90CF90089528E12AB990
:102EF00026E820BD1BB80C9449175F9BFECF8CB110
:102F000008955D9BFECF8CB90895AF92BF92CF928A
:102F1000DF92EF92FF920F931F93CF93DF931F9255
:102F2000CDB7DEB76B017C01AA24A394B12C442356
:102F3000F1F00FEF040FC50102C0880F991F0A9529
:102F4000E2F78C01222717FD2095322F0C211D213D
:102F50002E213F2181E0012B022B032B09F480E07D
:102F6000805D49830E94811749814150E0CF0F90D5
:102F7000DF91CF911F910F91FF90EF90DF90CF9055
:102F8000BF90AF900895CF93DF93EC018991882390
:102F900019F00E948117FACFDF91CF910895FF9227
:102FA0000F931F93CF93DF938C01C8EED3E0F12CE6
:102FB0000E947D178D3029F4F801EF0DF11D10826C
:102FC00010C08A30C9F3883021F4FF2011F0FA9440
:102FD00005C0F801EF0DF11D8083F3942197209730
:102FE00039F78F2DDF91CF911F910F91FF900895A9
:102FF0007F928F929F92AF92BF92CF92DF92EF9289
:10300000FF920F931F93CF93DF93CDB7DEB72A972D
:103010000FB6F894DEBF0FBECDBF782ECB01BA013C
:10302000C22E22E0721216C04C2D2A960FB6F894CA
:10303000DEBF0FBECDBFDF91CF911F910F91FF90EB
:10304000EF90DF90CF90BF90AF909F908F907F9048
:103050000C948517611571058105910549F0FE01F4
:1030600031967F018F01872C912CA12CB12C1DC092
:1030700010E01C15A1F11A3091F180E30E94811734
:103080001F5FF7CF611571058105910599F0D62E67
:10309000A50194010E94EA19CA01B901729ED018D3
:1030A0001124F801D0820F5F1F4FD02EDE18DC14E0
:1030B00048F310C0FAE0FC1568F0F8011082F3CF75
:1030C000FE01ED0DF11D80818A3038F0895C0E948F
:1030D0008117DA94D110F4CF02C0805DF8CF2A9620
:1030E0000FB6F894DEBF0FBECDBFDF91CF911F9119
:1030F0000F91FF90EF90DF90CF90BF90AF909F9097
:103100008F907F9008958F929F92AF92BF92CF92AF
:10311000DF92EF92FF926B017C010E94A71A4B0194
:103120005C012FEFAB01BC018AE00E94F8178EE230
:103130000E948117C501B4010E94D31A9B01AC0102
:10314000C701B6010E94421A20E034E244E759E484
:103150000E94611B0E94A71AAB01BC012FEF8AE0FD
:10316000FF90EF90DF90CF90BF90AF909F908F90A7
:103170000C94F817CF92DF92EF92FF920F931F9368
:10318000CF93DF9300D000D01F92CDB7DEB7FE0102
:103190007096E190F1906F01F7018081882309F426
:1031A000F7C0853209F0ECC087010F5F1F4FF701B0
:1031B000818190ED980F9A3078F420E090ED980F8F
:1031C0009A3058F4FAE02F9F900D1124292F0F5FA9
:1031D0001F4FF8018081F2CF2FEF883509F48FC09F
:1031E000C8F4843409F44CC058F4823409F4A1C002
:1031F00038F5853209F0C7C085E20E948117C3C047
:10320000833509F4B2C0853509F464C0863409F009
:10321000BAC09FC0863609F49CC040F4833681F062
:103220008436B9F0823609F0AEC076C0853709F42D
:1032300047C0883709F459C0833709F0A4C095C046
:103240007601F2E0EF0EF11CF60180810E948117F9
:1032500095C07601F2E0EF0EF11CF601C080D1803E
:10326000D7FE08C0D194C194D1088DE22D830E946D
:1032700081172D81A601662757FD6095762F33C0F3
:103280007601F4E0EF0EF11CF6014081518162817C
:10329000738177FF28C070956095509541955F4F79
:1032A0006F4F7F4F8DE22D8349835A836B837C83DD
:1032B0000E9481177C816B815A8149812D8113C0C5
:1032C0007601F2E0EF0EF11CF6014081518160E0E1
:1032D00070E009C07601F4E0EF0EF11CF6014081C8
:1032E0005181628173818AE014C07601F2E0EF0EB1
:1032F000F11CF6014081518160E070E009C0760167
:10330000F4E0EF0EF11CF60140815181628173817E
:1033100080E10E94F81732C07601F2E0EF0EF11C56
:10332000F601608171812F3F09F420E180E090E097
:103330000CC07601F4E0EF0EF11CF60160817181A2
:10334000828193812F3F09F420E2422F0E9485174A
:1033500015C07601F4E0EF0EF11CF6016081718179
:10336000828193810E94831809C07601F2E0EF0EFA
:10337000F11CF601808191810E94C317670103C08F
:103380000E94811787017801FFEFEF1AFF0A04CF2F
:103390000F900F900F900F900F90DF91CF911F9192
:1033A0000F91FF90EF90DF90CF90089597FB072E3D
:1033B00016F4009407D077FD09D00E94141A07FC78
:1033C00005D03EF4909581959F4F08957095619535
:1033D0007F4F0895A1E21A2EAA1BBB1BFD010DC051
:1033E000AA1FBB1FEE1FFF1FA217B307E407F507B5
:1033F00020F0A21BB30BE40BF50B661F771F881F91
:10340000991F1A9469F760957095809590959B0126
:10341000AC01BD01CF010895B7FF0C94281A0E949A
:10342000281A821B930B0895AA1BBB1B51E107C0EE
:10343000AA1FBB1FA617B70710F0A61BB70B881F44
:10344000991F5A95A9F780959095BC01CD010895D3
:103450000E94331AA59F900DB49F900DA49F800DDC
:10346000911D11240895A29FB001B39FC001A39F95
:10347000700D811D1124911DB29F700D811D1124AD
:10348000911D08955058BB27AA270ED0E0C0D1D077
:1034900030F0D6D020F031F49F3F11F41EF4C6C0B6
:1034A0000EF4E095E7FBBCC0E92FE2D080F3BA1739
:1034B000620773078407950718F071F49EF5FAC048
:1034C0000EF4E0950B2EBA2FA02D0B01B90190013F
:1034D0000C01CA01A0011124FF27591B99F0593F83
:1034E00050F4503E68F11A16F040A22F232F342FCB
:1034F0004427585FF3CF469537952795A795F04019
:103500005395C9F77EF41F16BA0B620B730B840B2D
:10351000BAF09150A1F0FF0FBB1F661F771F881FE5
:10352000C2F70EC0BA0F621F731F841F48F487953D
:1035300077956795B795F7959E3F08F0B3CF93952C
:10354000880F08F09927EE0F97958795089598D0E2
:1035500088F09F5790F0B92F9927B751A0F0D1F07C
:10356000660F771F881F991F1AF0BA95C9F712C006
:10357000B13081F09FD0B1E008959CC0672F782FC3
:103580008827B85F39F0B93FCCF386957795679572
:10359000B395D9F73EF490958095709561957F4FDE
:1035A0008F4F9F4F0895E89409C097FB3EF4909584
:1035B0008095709561957F4F8F4F9F4F9923A9F00C
:1035C000F92F96E9BB279395F6958795779567959B
:1035D000B795F111F8CFFAF4BB0F11F460FF1BC0DF
:1035E0006F5F7F4F8F4F9F4F16C0882311F096E972
:1035F00011C0772321F09EE8872F762F05C0662320
:1036000071F096E8862F70E060E02AF09A95660FD8
:10361000771F881FDAF7880F9695879597F9089591
:1036200097F99F6780E870E060E008959FEF80EC75
:10363000089500240A941616170618060906089518
:1036400000240A9412161306140605060895092E7E
:103650000394000C11F4882352F0BB0F40F4BF2BED
:1036600011F460FF04C06F5F7F4F8F4F9F4F08952D
:1036700057FD9058440F551F59F05F3F71F0479523
:10368000880F97FB991F61F09F3F79F08795089508
:10369000121613061406551FF2CF4695F1DF08C027
:1036A000161617061806991FF1CF86957105610544
:1036B00008940895E894BB2766277727CB0197F9EC
:1036C00008950BD0C4CFB5DF28F0BADF18F09523EA
:1036D00009F0A6CFABCF1124EECFCADFA0F3959FA0
:1036E000D1F3950F50E0551F629FF001729FBB27E9
:1036F000F00DB11D639FAA27F00DB11DAA1F649F95
:103700006627B00DA11D661F829F2227B00DA11D47
:10371000621F739FB00DA11D621F839FA00D611DCD
:10372000221F749F3327A00D611D231F849F600DEE
:10373000211D822F762F6A2F11249F5750408AF027
:10374000E1F088234AF0EE0FFF1FBB1F661F771FB3
:10375000881F91505040A9F79E3F510570F060CFEF
:10376000AACF5F3FECF3983EDCF38695779567959B
:10377000B795F795E7959F5FC1F7FE2B880F911DD1
:0C3780009695879597F90895F894FFCF6F
:10378C0080C090D0404850586068707810181E1F48
:10379C001F1E181001030F1F1F0F03011B1B1B1BE8
:1037AC001B1B1B1B000000000000000000000000A1
:1037BC00000000000103071F1F0703010E11111168
:1037CC001F1B1B1F0004040E1515110E61613131F6
:1037DC000A00626231310A00636331310A006464A9
:1037EC0031310A00616132320A00626232320A00FF
:1037FC00636332320A00646432320A00616133332B
:10380C000A00626233330A00636333330A00646470
:10381C0033330A00616134340A00626234340A00C2
:10382C00636334340A00646434340A00253F00575F
:10383C00616974696E6720666F7200636F6E6E6586
:10384C006374696F6E00525457210A0031313A2566
:10385C007300506C65617365207761697400313257
:10386C003A25730031333A25730031343A2573000D
:10387C0032313A25730032323A25730032333A250D
:10388C00730032343A25730033313A2573003332E6
:10389C003A25730033333A25730033343A257300D9
:1038AC0034313A25730034323A25730034333A25D7
:1038BC00730034343A257300696E697469616C69FC
:1038CC007A6174696F6E00636F6D706C657465649A
:1038DC000025733A204F4E0025733A204F46460080
:1038EC0025733A202564002D002B006F6B00537458
:1038FC00616E646279004272696768746E65737395
:10390C00004C656420696E666F0044656C617920BB
:10391C0074696D65004465627567206D6F64650040
:10392C0050616765206E756D62657200255B0025C0
:10393C005D0053415645004558495400253C253EF1
:10394C00007C00536176696E672E2E2E00536176D3
:10395C0065640043616E63656C6564002A2046698A
:10396C0072737420737461727420202A006D656DFB
:10397C006F727920636F6E6669672E2E2E00555319
:10398C0042204D6564696100436F6E74726F6C6C9C
:04399C006572000050
:00000001FF
