:100000000C942A000C9447000C9447000C94470071
:100010000C9447000C9447000C9447000C94470044
:100020000C9447000C9447000C9447000C94470034
:100030000C9447000C9447000C9447000C94470024
:100040000C9447000C9447000C9447000C94470014
:100050000C94470011241FBECFE5D8E0DEBFCDBF12
:1000600012E0A0E6B0E0E4EAF7E302C005900D92EA
:10007000AA37B107D9F722E0AAE7B2E001C01D9282
:10008000AA3AB207E1F70E949B0D0C94D01B0C9486
:100090000000662341F084E690E00E94810684E639
:1000A00090E00C949B0688EC90E00C94CB0DCF93E1
:1000B000FB01C42FB90181309105F1F4E130F10564
:1000C00019F48CEA90E010C0E230F10519F482EBEB
:1000D00090E00AC0E330F10519F488EB90E004C029
:1000E000349721F48EEB90E00E94130B6C2F84E682
:1000F00090E0CF910C94490082309105B9F4E13041
:10010000F10519F484EC90E0EFCFE230F10519F439
:100110008AEC90E0E9CFE330F10519F480ED90E04E
:10012000E3CF349719F786ED90E0DECF8330910569
:10013000B9F4E130F10519F48CED90E0D5CFE2305F
:10014000F10519F482EE90E0CFCFE330F10519F418
:1001500088EE90E0C9CF349749F68EEE90E0C4CF98
:100160000497C1F4E130F10519F484EF90E0BCCFBD
:10017000E230F10519F48AEF90E0B6CFE330F105F3
:1001800019F480E091E0B0CF349709F0AFCF86E06A
:1001900091E0AACFCF9108958536910538F464E6B1
:1001A00070E0681B790B81E00C94BA060895FC019D
:1001B00020E030E0AF01481B590B6191662329F024
:1001C0006532C1F72F5F3F4FF5CFC901841B950BF7
:1001D00007960895EF92FF920F931F93CF93DF93AB
:1001E0008C01EB010E9430100130110509F044C070
:1001F000DF93CF930FE211E01F930F931F921F9293
:100200001F921F920E9420147E0199E0E90EF11CBA
:10021000C7010E94D700FF92EF921F930F931F9286
:100220001F9209969F938F930E942014CE014296AD
:100230009F938F931F930F931F92FF24F394FF922A
:100240001F921F920E9420146B96CE010E94D7002D
:10025000DF93CF931F930F931F92FF9209969F9363
:100260008F930E9420148DB79EB780960FB6F89496
:100270009EBF0FBE8DBFE3C00230110509F046C01E
:10028000CE0184969F938F930FE211E01F930F93FB
:100290001F921F921F921F920E9420147E019DE2C6
:1002A000E90EF11CC7010E94D700FF92EF921F9345
:1002B0000F931F921F9209969F938F930E94201471
:1002C000CE01C6969F938F931F930F931F92FF2487
:1002D000F394FF921F921F920E942014EF96CE017A
:1002E0000E94D700DF93CF931F930F931F92FF922B
:1002F00009969F938F930E9420148DB79EB7809686
:100300000FB6F8949EBF0FBE8DBF99C00330110584
:1003100009F049C0CE01885B9F4F9F938F930FE2F6
:1003200011E01F930F931F921F921F921F920E9422
:1003300020147E0191E5E90EF11CC7010E94D7004F
:10034000FF92EF921F930F931F921F9209969F9314
:100350008F930E942014CE01865A9F4F9F938F93B4
:100360001F930F931F92FF24F394FF921F921F92EB
:100370000E942014CD59DF4FCE010E94D700DF9399
:10038000CF931F930F931F92FF9209969F938F9382
:100390000E9420148DB79EB780960FB6F8949EBF2A
:1003A0000FBE8DBF4CC00430110509F048C0CE010E
:1003B00084599F4F9F938F930FE211E01F930F93E8
:1003C0001F921F921F921F920E9420147E0195E798
:1003D000E90EF11CC7010E94D700FF92EF921F9314
:1003E0000F931F921F9209969F938F930E94201440
:1003F000CE0182589F4F9F938F931F930F931F920D
:10040000FF24F394FF921F921F920E942014C95759
:10041000DF4FCE010E94D700DF93CF931F930F933E
:100420001F92FF9209969F938F930E9420148DB77D
:100430009EB780960FB6F8949EBF0FBE8DBFDF911A
:10044000CF911F910F91FF90EF900895DF92EF925F
:10045000FF920F931F93CF93DF937C01C0E0D0E016
:100460000CE011E0DD24D394CE15DF0584F41F9356
:100470000F931F92DF92DF93CF930E942014219657
:100480000F900F900F900F900F900F90EDCFDF9186
:10049000CF911F910F91FF90EF90DF900895DF9221
:1004A000EF92FF920F931F93CF93DF93D82EEB0120
:1004B0008A010E9430108FE091E09F938F931F92EA
:1004C0001F921F9283E0F82EFF920E9420148BE16E
:1004D00091E09F938F931F9281E08F931F92FF92E1
:1004E0000E94201486E291E09F938F930E94C61889
:1004F000CE010E94DB170E94301060E080E00E9475
:10050000A1108DB79EB70E960FB6F8949EBF0FBE82
:100510008DBFF80180858823A9F0DF93CF938CE20B
:1005200091E09F938F931F921F921F921F920E94A0
:1005300020148DB79EB708960FB6F8949EBF0FBED5
:100540008DBF10C082E391E09F938F931F921F9203
:100550001F921F920E9420140F900F900F900F90E7
:100560000F900F9081E090E00E9426027E0199E0BA
:10057000E90EF11CC7010E94DB170E94301060E0F9
:1005800080E00E94A110F80180858823A9F0FF92E5
:10059000EF928EE391E09F938F931F921F921F9291
:1005A0001F920E9420148DB79EB708960FB6F8943C
:1005B0009EBF0FBE8DBF10C082E391E09F938F93CB
:1005C0001F921F921F921F920E9420140F900F9053
:1005D0000F900F900F900F9082E090E00E94260203
:1005E0007E0192E1E90EF11CC7010E94DB170E9417
:1005F000301060E080E00E94A110F801808588231F
:10060000A9F0FF92EF9284E491E09F938F931F9261
:100610001F921F921F920E9420148DB79EB70896BA
:100620000FB6F8949EBF0FBE8DBF10C082E391E05D
:100630009F938F931F921F921F921F920E942014CC
:100640000F900F900F900F900F900F9083E090E01D
:100650000E9426027E019BE1E90EF11CC7010E9467
:10066000DB170E94301060E080E00E94A110F801CA
:1006700080858823A9F0FF92EF928AE491E09F930E
:100680008F931F921F921F921F920E9420148DB76A
:100690009EB708960FB6F8949EBF0FBE8DBF10C0D0
:1006A00082E391E09F938F931F921F921F921F925C
:1006B0000E9420140F900F900F900F900F900F90AA
:1006C00084E090E00E9426027E0194E2E90EF11C93
:1006D000C7010E94DB170E94301060E080E00E949A
:1006E000A110F80180858823A9F0FF92EF9280E5A0
:1006F00091E09F938F931F921F921F921F920E94CF
:1007000020148DB79EB708960FB6F8949EBF0FBE03
:100710008DBF10C082E391E09F938F931F921F9231
:100720001F921F920E9420140F900F900F900F9015
:100730000F900F9085E090E00E9426027E019DE2DE
:10074000E90EF11CC7010E94DB170E94301060E027
:1007500080E00E94A110F80180858823A9F0FF9213
:10076000EF9286E591E09F938F931F921F921F92C5
:100770001F920E9420148DB79EB708960FB6F8946A
:100780009EBF0FBE8DBF10C082E391E09F938F93F9
:100790001F921F921F921F920E9420140F900F9081
:1007A0000F900F900F900F9086E090E00E9426022D
:1007B0007E0196E3E90EF11CC7010E94DB170E943F
:1007C000301060E080E00E94A110F801808588234D
:1007D000A9F0FF92EF928CE591E09F938F931F9287
:1007E0001F921F921F920E9420148DB79EB70896E9
:1007F0000FB6F8949EBF0FBE8DBF10C082E391E08C
:100800009F938F931F921F921F921F920E942014FA
:100810000F900F900F900F900F900F9087E090E047
:100820000E9426027E019FE3E90EF11CC7010E948F
:10083000DB170E94301060E080E00E94A110F801F8
:1008400080858823A9F0FF92EF9282E691E09F9342
:100850008F931F921F921F921F920E9420148DB798
:100860009EB708960FB6F8949EBF0FBE8DBF10C0FE
:1008700082E391E09F938F931F921F921F921F928A
:100880000E9420140F900F900F900F900F900F90D8
:1008900088E090E00E9426027E0198E4E90EF11CB7
:1008A000C7010E94DB170E94301060E080E00E94C8
:1008B000A110F80180858823A9F0FF92EF9288E6C5
:1008C00091E09F938F931F921F921F921F920E94FD
:1008D00020148DB79EB708960FB6F8949EBF0FBE32
:1008E0008DBF10C082E391E09F938F931F921F9260
:1008F0001F921F920E9420140F900F900F900F9044
:100900000F900F9089E090E00E9426027E0191E511
:10091000E90EF11CC7010E94DB170E94301060E055
:1009200080E00E94A110F80180858823A9F0FF9241
:10093000EF928EE691E09F938F931F921F921F92EA
:100940001F920E9420148DB79EB708960FB6F89498
:100950009EBF0FBE8DBF10C082E391E09F938F9327
:100960001F921F921F921F920E9420140F900F90AF
:100970000F900F900F900F908AE090E00E94260257
:100980007E019AE5E90EF11CC7010E94DB170E9467
:10099000301060E080E00E94A110F801808588237B
:1009A000A9F0FF92EF9284E791E09F938F931F92BB
:1009B0001F921F921F920E9420148DB79EB7089617
:1009C0000FB6F8949EBF0FBE8DBF10C082E391E0BA
:1009D0009F938F931F921F921F921F920E94201429
:1009E0000F900F900F900F900F900F908BE090E072
:1009F0000E9426027E0193E6E90EF11CC7010E94C7
:100A0000DB170E94301060E080E00E94A110F80126
:100A100080858823A9F0FF92EF928AE791E09F9367
:100A20008F931F921F921F921F920E9420148DB7C6
:100A30009EB708960FB6F8949EBF0FBE8DBF10C02C
:100A400082E391E09F938F931F921F921F921F92B8
:100A50000E9420140F900F900F900F900F900F9006
:100A60008CE090E00E9426027E019CE6E90EF11CDB
:100A7000C7010E94DB170E94301060E080E00E94F6
:100A8000A110F80180858823A9F0FF92EF9280E8F9
:100A900091E09F938F931F921F921F921F920E942B
:100AA00020148DB79EB708960FB6F8949EBF0FBE60
:100AB0008DBF10C082E391E09F938F931F921F928E
:100AC0001F921F920E9420140F900F900F900F9072
:100AD0000F900F908DE090E00E9426027E0195E736
:100AE000E90EF11CC7010E94DB170E94301060E084
:100AF00080E00E94A110F80180858823A9F0FF9270
:100B0000EF9286E891E09F938F931F921F921F921E
:100B10001F920E9420148DB79EB708960FB6F894C6
:100B20009EBF0FBE8DBF10C082E391E09F938F9355
:100B30001F921F921F921F920E9420140F900F90DD
:100B40000F900F900F900F908EE090E00E94260281
:100B50007E019EE7E90EF11CC7010E94DB170E948F
:100B6000301060E080E00E94A110F80180858823A9
:100B7000A9F0FF92EF928CE891E09F938F931F92E0
:100B80001F921F921F920E9420148DB79EB7089645
:100B90000FB6F8949EBF0FBE8DBF10C082E391E0E8
:100BA0009F938F931F921F921F921F920E94201457
:100BB0000F900F900F900F900F900F908FE090E09C
:100BC0000E942602C957DF4FCE010E94DB170E9408
:100BD000301060E080E00E94A110F8018085882339
:100BE000A9F0DF93CF9382E991E09F938F931F92B7
:100BF0001F921F921F920E9420148DB79EB70896D5
:100C00000FB6F8949EBF0FBE8DBF10C082E391E077
:100C10009F938F931F921F921F921F920E942014E6
:100C20000F900F900F900F900F900F9080E190E039
:100C30000E9426029FEFE9E6F8E19150E040F04083
:100C4000E1F700C000000E94301088E991E09F9316
:100C50008F931F921F921F921F920E94201487EA67
:100C600091E09F938F931F9281E08F931F921F9229
:100C70000E9420148DB79EB70C960FB6F8949EBFB5
:100C80000FBE8DBFDD2029F18DE790E00E949B060D
:100C90008DE790E00E9481068DE790E00E949B0620
:100CA0008DE790E00E9481068DE790E00E949B0610
:100CB0008DE790E00E9481068DE790E00E949B0600
:100CC0008DE790E00E94810688EC90E00E949B06F0
:100CD00004C080EB94E00E94CB0DDF91CF911F9177
:100CE0000F91FF90EF90DF900C94301085369105B6
:100CF00038F464E670E0681B790B82E00C94BA0665
:100D000008950F931F93CF93DF9364E670E00E94E2
:100D1000E2198B01C0E0D0E0CE010E947606C80146
:100D20000E94CB0D2196C436D105B1F7DF91CF914A
:100D30001F910F9108950F931F93CF93DF9364E654
:100D400070E00E94E2198B01C4E6D0E0CE010E945F
:100D50007606C8010E94CB0D21972097B9F7DF9145
:100D6000CF911F910F9108950C94760681B3806303
:100D700081BB0895CF93C82F70E080E090E00E947F
:100D8000E11A23E333E343E250E40E946D1B0E9427
:100D9000B31AC13031F0C23039F470E079BD68BDAA
:100DA00003C070E07BBD6ABDCF9108958FB58160AF
:100DB0008FBD8EB588608EBD8FB5806A8FBD8EB5B4
:100DC00083608EBD1BBC1ABC19BC18BC08951F9350
:100DD000CF93DF9300D01F92CDB7DEB76A837B83BA
:100DE00089830E94301089816A817B81882329F060
:100DF0007F936F9381EB91E004C07F936F9388EBB7
:100E000091E09F938F931F921F921F921F920E94B7
:100E100020140FB6F894DEBF0FBECDBF8CEB91E06F
:100E20009F938F931F9211E01F931F921F920E9416
:100E3000201485EB91E09F938F931F921F931F9235
:100E40008EE08F930E9420140FB6F894DEBF0FBE81
:100E5000CDBF0F900F900F90DF91CF911F9108950C
:100E60001F93CF93DF9300D000D0CDB7DEB76B8355
:100E70007C8389839A830E9430109A819F93898111
:100E80008F937C817F936B816F9380EC91E09F9334
:100E90008F931F921F921F921F920E94201487EC23
:100EA00091E09F938F931F9211E01F931F921F92C7
:100EB0000E94201489EC91E09F938F931F921F93BF
:100EC0001F928FE08F930E9420140FB6F894DEBF1C
:100ED0000FBECDBF0F900F900F900F90DF91CF916D
:100EE0001F910895EF92FF921F93CF93DF9300D04D
:100EF000CDB7DEB789839A830E9430109A819F9381
:100F000089818F938FE291E09F938F931F921F921D
:100F10001F921F920E9420148BECE82E81E0F82E85
:100F2000FF92EF921F9211E01F931F921F920E9457
:100F30002014FF92EF921F921F931F928EE08F93C7
:100F40000E9420140FB6F894DEBF0FBECDBF0F90E5
:100F50000F90DF91CF911F91FF90EF9008954F92E6
:100F60005F926F927F929F92AF92BF92CF92DF92E9
:100F7000EF92FF920F931F93CF93DF93EC018B01BE
:100F8000412C512C320134E6E32EF12C9924939418
:100F90004AEFC42ED12C52E3A52EB12CF80180814A
:100FA0009181019709F046C0F8E84F16F3E15F061A
:100FB0006104710434F48FEF481A580A680A780AF9
:100FC00007C08EEC91E00E947207412C512C320137
:100FD000B19B48C1B09BA9C0B29B8AC1B39B8DC1D4
:100FE000B49B02C0B59926C080E090E00E949B06A9
:100FF0000E94301080E090E00E94CC0088EE93E0E8
:101000000E94CB0DB29B0AC0B39B08C0B49B06C024
:10101000B59B04C0B19B02C0B099F4CF84EF91E0BE
:101020000E94CB0D8D819E810E94CC008EEC91E0C0
:101030000E947207F80180819181029709F059C0DE
:10104000F8E84F16F3E15F066104710434F48FEFA2
:10105000481A580A680A780A09C066ED71E08D815D
:101060009E810E943007412C512C3201B19B3BC123
:10107000B09B9AC0B29B3CC1B39B3FC1B4991BC00B
:101080008D819E8118161906B4F40A9797FD03C046
:101090009E838D8302C01E821D828D819E810E944F
:1010A000CC0066ED71E08D819E810E94300788EC56
:1010B00090E00E94CB0DB5991CC08D819E81843635
:1010C0009105BCF40A96853691051CF49E838D83A8
:1010D00002C0FE82ED828D819E810E94CC0066ED71
:1010E00071E08D819E810E94300788EC90E00E9423
:1010F000CB0DF801808191810397C1F5F8E84F1677
:10110000F3E15F066104710434F48FEF481A580A62
:10111000680A780A08C061EE71E08F810E94E706D4
:10112000412C512C3201B19903C082E090E0E7C01C
:10113000B09B93C0B29BDCC0B39BDFC0B4990AC024
:101140001F8261EE71E080E00E94E70688EC90E08B
:101150000E94CB0DB5990AC09F8261EE71E081E0DB
:101160000E94E70688EC90E00E94CB0DF801808198
:101170009181049709F055C0F8E84F16F3E15F0636
:101180006104710434F48FEF481A580A680A780A27
:1011900009C06AEE71E089859A850E943007412C6A
:1011A000512C3201B19903C083E090E0A8C0B09BFC
:1011B00095C0B29B9DC0B39BA0C0B49918C089854F
:1011C0009A85833391059CF04997823391051CF0F1
:1011D0009A87898702C0BA86A9866AEE71E08985F6
:1011E0009A850E94300788EC90E00E94CB0DB5995B
:1011F00018C089859A858A3F91059CF449968B3F52
:1012000091051CF49A87898702C0DA86C9866AEE3E
:1012100071E089859A850E94300788EC90E00E94F1
:10122000CB0DF801808191810597D9F5F8E84F162B
:10123000F3E15F066104710434F48FEF481A580A31
:10124000680A780A08C065EF71E088850E94E706A1
:10125000412C512C3201B19903C084E090E04FC081
:10126000B09903C086E090E04AC0B29B41C0B39BF6
:1012700044C0B4990AC0188665EF71E080E00E940E
:10128000E70688EC90E00E94CB0DB5990AC09886DD
:1012900065EF71E081E00E94E70688EC90E00E9433
:1012A000CB0DF80180819181069709F077CEF8E89F
:1012B0004F16F3E15F066104710434F48FEF481AAE
:1012C000580A680A780A08C060E072E08B850E94BC
:1012D000E706412C512C3201B19903C085E090E022
:1012E0000EC0B09903C081E090E009C0B29903C07C
:1012F00086E990E004C0B3991CC086EF9FEFF80127
:101300009183808389859A85880F991F880F991FFB
:10131000DF91CF911F910F91FF90EF90DF90CF90D1
:10132000BF90AF909F907F906F905F904F900C9484
:10133000CB0DB4990AC01B8660E072E080E00E9489
:10134000E70688EC90E00E94CB0DB59927CE9B86EE
:1013500060E072E081E00E94E70688EC90E00E9485
:10136000CB0D1CCEBF92CF92DF92EF92FF920F93E4
:101370001F93CF93DF93CDB7DEB72E970FB6F894B8
:10138000DEBF0FBECDBF8C01FC01858196819F839E
:101390008E83818592859B878A87878188878085D0
:1013A000898783858C8781E090E09E878D870E9466
:1013B00030106CE0C62E62E0D62EDF92CF921F92E4
:1013C0001F921F921F920E9420147FE0E72E72E06E
:1013D000F72EFF92EF921F921F921F92EFE0BE2E08
:1013E000BF920E942014DF92CF921F92DD24D394EB
:1013F000DF921F921F920E942014FF92EF921F9281
:10140000DF921F92BF920E94201482E192E09F938C
:101410008F931F921F921F92F3E0CF2ECF920E94C4
:10142000201487E192E09F938F931F921F921F9247
:1014300089E08F930E9420140FB6F894DEBF0FBE90
:10144000CDBFACE1EA2EA2E0FA2EFF92EF921F92FE
:10145000DF921F92CF920E942014FF92EF921F9270
:10146000DF921F928BE08F930E942014B1E2EB2E4B
:10147000B2E0FB2EFF92EF921F921F921F9282E02A
:10148000C82ECF920E942014FF92EF921F92DF92FB
:101490001F92CF920E942014FF92EF921F921F92F0
:1014A0001F929DE0C92ECF920E942014FF92EF92CE
:1014B0001F92DF921F92CF920E9420140FB6F894D1
:1014C000DEBF0FBECDBF80ED97E00E94CB0D0E9426
:1014D00030108D859E859C012150310926303105C3
:1014E00040F4BE01635F7F4FCE0101960E94AF07BB
:1014F000F0CF853691050CF465C00E94301083E270
:1015000092E09F938F931F921F921F921F920E94AF
:1015100020146E818F81F801658386838A859B857F
:101520009287818788858783898580878C85838753
:10153000808190E00E94D60D88EC90E00E94CB0D57
:10154000F8018181678190E00E94D60D88EC90E0DF
:101550000E94CB0DF8018281618590E00E94D60D3A
:1015600088EC90E00E94CB0DF8018381608590E0CB
:101570000E94D60D88EC90E00E94CB0DF80184818A
:10158000638590E00E94D60D88EC90E00E94CB0D20
:101590000E94301060E080E00E94A1108DE292E095
:1015A0009F938F931F921F921F921F920E9420144D
:1015B00088EE93E00E94CB0D0FB6F894DEBF0FBE0D
:1015C000CDBF21C097FF85CFF801858196810E940C
:1015D000CC000E94301060E080E00E94A11083E304
:1015E00092E09F938F931F921F921F921F920E94CF
:1015F000201488EE93E00E94CB0D0F900F900F9077
:101600000F900F900F902E960FB6F894DEBF0FBE7E
:10161000CDBFDF91CF911F910F91FF90EF90DF90A1
:10162000CF90BF900895CF93DF93EB019F938F935B
:101630000E94C6180F900F90CE01DF91CF910C94AD
:10164000CB0D4F925F926F927F928F92AF92CF921B
:10165000EF920F931F93CF93DF93EC013B012A018D
:1016600060E875E280E090E00E94821786E08F9348
:1016700085E08F9384E0882E93E0A92ECC24CA9431
:10168000EE24EA940FEF2FEF42E061E080E00E9449
:10169000960F60E182E00E94461017BA8FEF88BB78
:1016A0000E94B6060E94D60680E090E00E949B064B
:1016B00081E090E00E94DE0D0F900F90811144C0F8
:1016C00082E0888382E390E09E838D8382E090E0D5
:1016D0000E94DE0D90E09E838D8364E681E00E948F
:1016E000BA0683E0898381E08F8383E090E00E94E3
:1016F000DE0D91E0811101C090E09F8384E08A8338
:1017000084E690E09A87898784E090E00E94DE0D6D
:1017100090E09A87898785E08B83188685E090E042
:101720000E94DE0D91E0811101C090E0988786E073
:101730008C831B8686E090E00E94DE0D91E0811193
:1017400001C090E09B8760C00E9430108CE392E063
:101750009F938F931F921F921F921F920E9420149B
:101760008DE492E09F938F931F9211E01F931F923D
:101770001F920E9420141B8682E390E09E838D833B
:101780001F8384E690E09A878987188660E081E06D
:1017900090E00E94D60D88816D8190E00E94D60D68
:1017A00088EC90E00E94CB0D89816F8190E00E94CF
:1017B000D60D88EC90E00E94CB0D8A81698590E07F
:1017C0000E94D60D88EC90E00E94CB0D8B8168853D
:1017D00090E00E94D60D88EC90E00E94CB0D8C81A9
:1017E0006B8590E00E94D60D88EC90E00E94CB0DB6
:1017F00088EC90E00E94CB0D8DB79EB70C960FB68B
:10180000F8949EBF0FBE8DBF0E940A138CE00E9409
:1018100007108F81882329F088EE93E00E948106CB
:1018200004C088EE93E00E94CB0D0E9430108EE53C
:1018300092E09F938F931F921F921F9213E01F932A
:101840000E94201488E692E09F938F931F9281E07C
:101850008F931F921F930E942014EDB7FEB73C9602
:101860000FB6F894FEBF0FBEEDBF00E010E08D8113
:101870009E810817190754F4C8010E94CC0084E126
:1018800090E00E94CB0D0F5F1F4FF1CF88EC90E0EE
:101890000E94CB0D0E94301081E090E0F301918313
:1018A00080838F81882329F084E690E00E949B0644
:1018B00004C084E690E00E94CB0D8F81882329F03C
:1018C00084E690E00E94810604C084E690E00E94D5
:1018D000CB0DAE01B2018F810E944F02B201F30124
:1018E000808191810E94EA00C09A8D819E81DF9162
:1018F000CF911F910F91EF90CF90AF908F907F90ED
:101900006F905F904F900C94CC00CF93DF9300D0FA
:1019100000D0CDB7DEB7442381F169837A838B830E
:101920009C830E94301023E732E03F932F931F9255
:101930001F921F9225E02F930E9420147A817F939B
:1019400069816F9324EC31E03F932F931F9221E044
:101950002F931F9227E02F930E9420140FB6F89424
:10196000DEBF0FBECDBF8B819C810F900F900F907B
:101970000F90DF91CF910C94CB0D0F900F900F90A3
:101980000F90DF91CF9108958C01EB015A01412C0A
:10199000512C3201C12CD12C68ECE62EF12C88247C
:1019A0008394912CB19B02C0B09952C0B09916C0DB
:1019B00088819981049794F4F8018781882329F01C
:1019C00084E690E00E94810604C084E690E00E94D4
:1019D000CB0D688179816F5F7F4F17C0B19938C097
:1019E000888199810297A4F1F8018781882329F0E1
:1019F00084E690E00E94810604C084E690E00E94A4
:101A0000CB0D688179816150710979836883F80110
:101A1000438584EF91E00E94850CB501888199810E
:101A20000E94EA00F8018781882329F084E690E08B
:101A30000E949B0604C084E690E00E94CB0DF80152
:101A400081859285880F991F880F991F0E94CB0D61
:101A500086B3837051F4C8010E94B20999828882CA
:101A6000B50181E090E00E94EA00B29B06C0B39B02
:101A700004C0B49B02C0B5993BC0B29908C068814C
:101A800079819701F801478181E090E01DC0B39909
:101A900008C0688179819701F801478182E090E070
:101AA00013C0B49908C0688179819701F801478112
:101AB00083E090E009C0B59909C0688179819701F8
:101AC000F801478184E090E00E945700FFEFCF1AB1
:101AD000DF0A83E0C816D10489F0E5E0CE16D10410
:101AE00089F0F8E0CF16D10481F4E12CF12C0DC07F
:101AF000C12CD12C48ECE42EF12C07C036E9E32EA2
:101B0000F12C03C024E6E22EF12C88E8481683E18C
:101B100058066104710434F4EFEF4E1A5E0A6E0A3F
:101B20007E0A40CFB501888199810E94EA00412C4C
:101B3000512C320137CFCF93DF93CDB7DEB7C25CE4
:101B4000D1090FB6F894DEBF0FBECDBFCF53DF4F24
:101B500019821882C15CD040AE014F5F5F4FBE0159
:101B60006F537F4FCE018B549F4F0E94210BAE01CC
:101B70004F5F5F4FBE016F537F4FCE018B549F4F1E
:101B80000E94C40C009731F025E02A95F1F700007F
:101B90000197F8CF0895009741F0EFE9FFE0319702
:101BA000F1F700C000000197F6CF0895E199FECF4C
:101BB0009FBB8EBB6DBBE29AE19A0895E199FECF7F
:101BC0009FBB8EBBE09A8DB308950F931F93CF9365
:101BD000DF93EB018C01061B170BCE01800F911FC9
:101BE00069910E94D60DFE01319780818111F5CF58
:101BF000DF91CF911F910F9108950F931F93CF9372
:101C0000DF93EB018C01061B170BCE01800F911F98
:101C10000E94DE0D89938111F8CFDF91CF911F9142
:101C20000F910895282F2770869586958695813087
:101C3000B9F028F0823029F18330A1F108953AB348
:101C400081E090E0022E01C0880F0A94EAF7662333
:101C500019F0382B3ABB0895809583238ABB0895E9
:101C600037B381E090E0022E01C0880F0A94EAF7B2
:101C7000662319F0382B37BB08958095832387BBE3
:101C8000089534B381E090E0022E01C0880F0A94D9
:101C9000EAF7662319F0382B34BB08958095832327
:101CA00084BB089531B381E090E0022E01C0880F1B
:101CB0000A94EAF7662319F0382B31BB0895809512
:101CC000832381BB0895282F277086958695869556
:101CD0008130B9F028F0823029F18330A1F10895E4
:101CE0003BB381E090E0022E01C0880F0A94EAF72E
:101CF000662319F0382B3BBB0895809583238BBB5B
:101D0000089538B381E090E0022E01C0880F0A9454
:101D1000EAF7662319F0382B38BB089580958323A2
:101D200088BB089535B381E090E0022E01C0880F92
:101D30000A94EAF7662319F0382B35BB089580958D
:101D4000832385BB089532B381E090E0022E01C069
:101D5000880F0A94EAF7662319F0382B32BB0895EE
:101D60008095832382BB0895282F277086958695BA
:101D70008695813049F030F0823041F0833079F43B
:101D800080B305C089B303C086B301C083B390E0BC
:101D900002C0959587952A95E2F78170089580E0B5
:101DA0000895CF93C82F84FB662760F98091A40221
:101DB0000E94630EC5FB662760F98091A5020E9410
:101DC000630EC6FB662760F98091A6020E94630E2F
:101DD0006C2F661F6627661F8091A702CF910C9417
:101DE000630ECF93DF9360E080919D020E94630EAB
:101DF00060E080919E020E94630ECFE9D2E061E034
:101E000088810E94630E8AE090E00E94C20D60E02B
:101E10008881DF91CF910C94630ECF93C82F682FE8
:101E200061708091A0020E94630EC1FB662760F979
:101E30008091A1020E94630EC2FB662760F9809127
:101E4000A2020E94630EC3FB662760F98091A30281
:101E5000CF910C94630ECF93DF9361E080919D024C
:101E60000E94630E60E080919E020E94630ECFE9A3
:101E7000D2E061E088810E94630E8AE090E00E94D7
:101E8000C20D60E08881DF91CF910C94630ECF93F7
:101E900080919E028F3F09F444C060E08091A702C8
:101EA0000E94120E60E080919D020E94630E61E02C
:101EB00080919E020E94630E60E080919F020E94CA
:101EC000630E8AE090E00E94C20D61E080919F0263
:101ED0000E94630E8AE090E00E94C20D8091A702EA
:101EE0000E94B40EC82F80919C02843091F460E06F
:101EF00080919F020E94630E8AE090E00E94C20DD2
:101F000061E080919F020E94630E8AE090E00E944F
:101F1000C20DC111D1CF61E08091A702CF910C9485
:101F2000120E81E090E0CF910C94CB0D8F929F9296
:101F3000AF92BF92CF92DF92EF92FF920F931F93D7
:101F4000CF93DF93CDB7DEB7D82E162FF42E9F8414
:101F5000B88880939D0260939E0240939F022093D5
:101F6000A0020093A102E092A202C092A302A0925A
:101F7000A4028092A5029092A602B092A7022F3FDF
:101F800039F00F3F29F08FEFE81611F0C81204C0A6
:101F900084E080939C0213C088E080939C0261E0FF
:101FA000822F0E94120E61E0802F0E94120E61E0CB
:101FB0008E2D0E94120E61E08C2D0E94120E61E0A7
:101FC0008D2D0E94120E61E0812F0E94120E61E0A1
:101FD0008F2D0E94120E61E08A2D0E94120E61E088
:101FE000882D0E94120E61E0892D0E94120E61E080
:101FF0008B2DDF91CF911F910F91FF90EF90DF908C
:10200000CF90BF90AF909F908F900C94120ECF9373
:10201000C82F0E94470F80919C02883021F48C2F9A
:102020000E940D0F07C08C2F0E94D10E0E94F10E4E
:10203000C295C07F8C2F0E94D10ECF910C94F10ECF
:1020400090919A02891758F41092A8028093A902DD
:10205000E82FF0E0E05AFF4F80810C9407100895BC
:10206000EAE7F2E080E2819392E0EA38F907D9F7F3
:10207000EAE8F2E080E2819392E0EA39F907D9F7E1
:1020800081E00E94071080E00C94201060939B0276
:1020900080939A02833040F06F7080E9860F8093BE
:1020A000620060536093630084E690E00E94CB0D71
:1020B00080919C02883011F488E327C0843039F580
:1020C00080E30E94D10E0E94F10E84E690E00E940F
:1020D000CB0D80E30E94D10E0E94F10E88EC90E0BF
:1020E0000E94C20D80E30E94D10E0E94F10E88EC86
:1020F00090E00E94C20D80E20E94D10E0E94F10E7B
:1021000088EC90E00E94C20D88E20E9407108EE0E9
:102110000E9407100C9430108091A9028F5F809369
:10212000A9021092A80290919A02891710F01092B9
:10213000A902E091A902F0E0E05AFF4F80810C94DF
:10214000071090919A02891780F490919B02691769
:1021500060F46093A8028093A902E82FF0E0E05AAF
:10216000FF4F8081860F0C9407100895CF93C82FDE
:102170009091A80280919B02981760F4CA3051F0A8
:102180000E94470F80919C02883049F48C2F0E9456
:102190000D0F0CC00E948C10CA3091F0F1CF8C2F23
:1021A0000E94D10E0E942B0FC295C07F8C2F0E94DF
:1021B000D10E0E942B0F8091A8028F5F8093A802FE
:1021C000CF910895AF92BF92CF92DF92EF92FF929C
:1021D0000F931F93CF93DF931F92CDB7DEB76B01A1
:1021E0007C01AA24A394B12C4423F1F00FEF040F37
:1021F000C50102C0880F991F0A95E2F78C012227BA
:1022000017FD2095322F0C211D212E213F2181E029
:10221000012B022B032B09F480E0805D49830E948F
:10222000B61049814150E0CF0F90DF91CF911F91BF
:102230000F91FF90EF90DF90CF90BF90AF900895F7
:10224000CF93DF93EC018991882319F00E94B61097
:10225000FACFDF91CF910895DF92EF92FF920F9323
:102260001F93CF93DF93D82E8B0180919A02D816BB
:1022700008F0D12C8CE00E940710E12CE801CE0D73
:10228000D11D8881882309F18D2D0E942010F12C09
:1022900080919B02F81650F4FE01EF0DF11D808134
:1022A000882321F00E94B610F394F2CF80919B0214
:1022B000F81628F480E20E94B610F394F7CF88EC69
:1022C00090E00E94CB0DE394D9CF8EE0DF91CF91C7
:1022D0001F910F91FF90EF90DF900C9407107F9269
:1022E0008F929F92AF92BF92CF92DF92EF92FF9226
:1022F0000F931F93CF93DF93CDB7DEB72A970FB617
:10230000F894DEBF0FBECDBF782ECB01BA01C22E2E
:1023100022E0721216C04C2D2A960FB6F894DEBF3A
:102320000FBECDBFDF91CF911F910F91FF90EF9026
:10233000DF90CF90BF90AF909F908F907F900C9444
:10234000E210611571058105910549F0FE01319694
:102350007F018F01872C912CA12CB12C29C080E307
:102360002A960FB6F894DEBF0FBECDBFDF91CF9196
:102370001F910F91FF90EF90DF90CF90BF90AF90A3
:102380009F908F907F900C94B61061157105810518
:10239000910599F0D62EA50194010E94F619CA0163
:1023A000B901729ED0181124F801D0820F5F1F4F1F
:1023B000D02EDE18DC1448F310C0FAE0FC1568F0EB
:1023C000F8011082F3CFFE01ED0DF11D80818A30FE
:1023D00038F0895C0E94B610DA94D110F4CF02C0B4
:1023E000805DF8CF2A960FB6F894DEBF0FBECDBF42
:1023F000DF91CF911F910F91FF90EF90DF90CF90E1
:10240000BF90AF909F908F907F9008952F923F92B2
:102410005F926F927F928F929F92AF92BF92CF9274
:10242000DF92EF92FF920F931F93CF93DF93CDB77D
:10243000DEB72E970FB6F894DEBF0FBECDBF682E65
:10244000722E470122E0821341C0EE24E394F12C66
:10245000A4E0880C991CAA95E1F7772009F4A9C09B
:102460008FEF870DD70102C0AA0FBB1F8A95E2F735
:10247000CD01AA2797FDA095BA2F84239523A623E3
:10248000B72321E0892B8A2B8B2B09F420E0E0E392
:10249000DE2ED20E8D2D4B875C876D877E870E9446
:1024A000B610D801ED91FC911197E80DF91DE65891
:1024B000FD4FD0828D919C91119701968D939C93A5
:1024C0007A947E856D855C854B85C7CF4115510516
:1024D0006105710509F454C0FE0131961F015F01C9
:1024E000C82ED12CE12CF12C5A2C52185714B8F4C8
:1024F000411551056105710579F0542ECB01BA01E2
:10250000A70196010E94F619BA01A901649E50180C
:102510001124D5015C920BC0BAE0B71530F434E059
:10252000880C991C3A95E1F724C0F5011082FFEF61
:10253000AF1ABF0AD9CFFE01E50DF11D90819A3087
:10254000D8F087E3890F9B870E94B610D801ED91E0
:10255000FC919B859A3090F0995CE80DF91DE65846
:10256000FD4F9083F8018081918101969183808352
:102570005A945110E0CF1DC080E3E4CF905DEDCFC1
:1025800080E30E94B610D8018D919C911197F701BC
:1025900024E0EE0FFF1F2A95E1F7E80FF91FE65838
:1025A000FD4F80E380838D919C91119701968D93CF
:1025B0009C932E960FB6F894DEBF0FBECDBFDF9171
:1025C000CF911F910F91FF90EF90DF90CF90BF9030
:1025D000AF909F908F907F906F905F903F902F90E3
:1025E0000895CF93C82F0E94470F80919C02883096
:1025F00021F48C2F0E940D0F07C08C2F0E94D10E4A
:102600000E942B0FC295C07F8C2F0E94D10ECF91BC
:102610000C942B0FAF92BF92CF92DF92EF92FF926A
:102620000F931F93CF93DF93CDB7DEB7C854D10973
:102630000FB6F894DEBF0FBECDBF88E0E4E6F0E051
:10264000DE01AF5BBF4F01900D928A95E1F780E408
:10265000ECE6F0E0DE01119601900D928A95E1F72B
:102660008E010F5B1F4FCE0101966C01580198E05F
:10267000A90EB11CF80181918F010E940710E12C75
:10268000F12CF601EE0DFF1D80810E94F112FFEF8B
:10269000EF1AFF0A88E0E816F10499F798E0C90EEE
:1026A000D11C0A151B0531F7C85BDF4F0FB6F89434
:1026B000DEBF0FBECDBFDF91CF911F910F91FF9075
:1026C000EF90DF90CF90BF90AF900895813091054B
:1026D00011F480E021C08230910511F481E01CC02A
:1026E0008330910511F482E017C08430910511F414
:1026F00083E012C08530910511F484E00DC086306E
:10270000910511F485E008C08730910511F486E049
:1027100003C0089719F487E00C94F11208958FEF25
:102720000C94F1128FE70C94F1128EE70C94F112D5
:1027300085EA0C94F112DF92EF92FF920F931F93B0
:10274000CF93DF93FC01EB018A01B4E0000F111F6E
:10275000BA95E1F7D080DD2009F46AC085E27F01F7
:10276000D81252C082E0E80EF11CD1808EE3D81658
:10277000B1F18D15C8F08EE2D81609F442C08D155E
:1027800040F085E2D81649F18CE2D8124FC085E0BE
:1027900029C08BE3D81669F18CE3D81611F18AE3CE
:1027A000D81244C086E01EC08DE5D81639F18D15CB
:1027B00048F08FE3D816F9F08BE5D81237C00E94A5
:1027C000921328C08CE7D81681F08DE7D81679F0DF
:1027D0008BE7D8122BC083E005C085E219C080E0EA
:1027E00001C081E00E94F11215C082E0FBCF84E0BD
:1027F000F9CF87E0F7CF0E948F130CC00E9495138A
:1028000009C00E94981306C08FEFE81AF80A8D2DB0
:102810000E94B610E881F981E00FF11FE658FD4FE4
:10282000D08288819981019699838883F70192CF1C
:10283000DF91CF911F910F91FF90EF90DF9008955E
:102840006F927F928F929F92AF92BF92CF92DF92C0
:10285000EF92FF920F931F93CF93DF93CDB7DEB725
:1028600027970FB6F894DEBF0FBECDBF188D098D28
:10287000AA8CBB8C6C8C7D8C612F8A2D0E94A11040
:1028800019830A838E01025E1F4F650184E0CC0C20
:10289000DD1C8A95E1F7F3019080992009F47EC14F
:1028A00085E2981266C143019FEF891A990AF301E4
:1028B000918180ED890F8A3080F420E080ED890FCE
:1028C0008A3060F4FAE02F9F800D1124282F8FEFBB
:1028D000881A980AF4019081F1CF2FEF953509F409
:1028E000DEC078F59C3309F462C0A0F49E3209F48E
:1028F0006DC040F4953209F42AC19C3209F049C1F7
:1029000085E056C09A3309F45BC09B3309F041C19E
:1029100087E04EC0923409F4F7C050F49E3309F4B6
:1029200044C09F3309F035C19B830E948F1313C1AC
:10293000943409F488C008F44DC0933509F4F8C004
:1029400028C1943609F45CC098F49D35D9F150F44F
:10295000983509F4BDC09B3509F01BC19B830E94CB
:102960009213F9C0923609F4C2C0933699F111C19D
:10297000983709F4A3C080F4933709F4D9C0953788
:1029800009F007C13801F2E06F0E711CF8014081B7
:10299000518160E070E08CC09C3771F09D3771F020
:1029A0009B3709F0F6C083E003C080E001C081E0FE
:1029B0009B830E94F112CFC082E0FACF84E0F8CF6F
:1029C00086E0F6CF9B830E949513C5C09B830E942F
:1029D0009813C1C03801F2E06F0E711CF80110812C
:1029E000812F0E94B61029813A81F601E20FF31F70
:1029F000E658FD4F10832F5F3F4F3A832983A5C0D0
:102A00003801F2E06F0E711CF8010081118117FF8F
:102A100014C01195019511098DE22F830E94B61003
:102A200089819A81F601E80FF91FE658FD4F3DE2D2
:102A3000308301969A8389832F81A801662757FDE9
:102A40006095762F35C03801F4E06F0E711CF801E7
:102A5000408151816281738177FF2AC070956095B2
:102A6000509541955F4F6F4F7F4F8DE22F834B8382
:102A70005C836D837E830E94B61089819A81F60102
:102A8000E80FF91FE658FD4F3DE2308301969A8327
:102A900089837E816D815C814B812F8109C03801E2
:102AA000F4E06F0E711CF8014081518162817381E5
:102AB00075018E010F5F1F4F8AE037C03801F2E0C9
:102AC0006F0E711CF8014081518160E070E009C017
:102AD0003801F4E06F0E711CF80140815181628170
:102AE000738175018E010F5F1F4F80E11EC0380199
:102AF000F2E06F0E711CF801408151812F3F09F403
:102B000020E160E070E00CC03801F4E06F0E711C51
:102B1000F80140815181628173812F3F09F420E1E6
:102B200075018E010F5F1F4F82E00E9406120DC0DB
:102B30003801F2E06F0E711CA501BE016F5F7F4F7F
:102B4000F801808191810E949B13830122C085E25C
:102B50009B830E94B61029813A81F601E20FF31F90
:102B6000E658FD4F9B8190832F5F3F4F3A83298327
:102B700010C0892D0E94B61029813A81F601E20F1A
:102B8000F31FE658FD4F90822F5F3F4F3A83298312
:102B900043013401FFEF6F1A7F0A7DCE27960FB6EF
:102BA000F894DEBF0FBECDBFDF91CF911F910F9183
:102BB000FF90EF90DF90CF90BF90AF909F908F905D
:102BC0007F906F900895FC0182819381861797070B
:102BD000ECF08AE792E09F938F931F921F921F92CF
:102BE0001F920E9420148AE892E09F938F931F9275
:102BF0001F921F9281E08F930E9420148DB79EB781
:102C00000C960FB6F8949EBF0FBE8DBF0895CF925D
:102C1000DF92EF92FF920F931F93CF93DF9300D039
:102C200000D01F92CDB7DEB7FE017096E190F19013
:102C30006F01F7018081882309F429C1853209F0E9
:102C40001EC187010F5F1F4FF701818190ED980F23
:102C50009A3078F420E090ED980F9A3058F4FAE02A
:102C60002F9F900D1124292F0F5F1F4FF801808196
:102C7000F2CF2FEF853509F4B4C070F58C3309F429
:102C800060C0A0F48E3209F469C040F4853209F4C2
:102C9000F2C08C3209F0F6C085E05AC08A3309F4DC
:102CA00056C08B3309F0EEC087E052C0823409F47D
:102CB000C7C048F48E3309F442C08F3309F0E2C034
:102CC0000E948F13DFC0843409F46BC008F449C03C
:102CD000833509F4C5C0D6C0843609F44BC090F4DE
:102CE0008D35C9F148F4883509F490C08B3509F069
:102CF000C9C00E949213C6C0823609F494C08336BC
:102D000081F1C0C0883709F477C080F4833709F4B3
:102D1000A7C0853709F0B6C07601F2E0EF0EF11CCE
:102D2000F6014081518160E070E064C08C3759F059
:102D30008D3759F08B3709F0A5C083E009C080E0DA
:102D400007C081E005C082E003C084E001C086E0E6
:102D50000E94F11297C00E94951394C00E9498138C
:102D600091C07601F2E0EF0EF11CF60180810E9425
:102D7000B6107FC07601F2E0EF0EF11CF601C080C4
:102D8000D180D7FE08C0D194C194D1088DE22D83A3
:102D90000E94B6102D81A601662757FD6095762FFB
:102DA00029C07601F4E0EF0EF11CF601408151815B
:102DB0006281738177FF1EC0709560955095419533
:102DC0005F4F6F4F7F4F8DE22D8349835A836B8313
:102DD0007C830E94B6107C816B815A8149812D8150
:102DE00009C07601F4E0EF0EF11CF601408151813B
:102DF000628173818AE014C07601F2E0EF0EF11C6B
:102E0000F6014081518160E070E009C07601F4E094
:102E1000EF0EF11CF601408151816281738180E1E6
:102E20000E946F1126C07601F2E0EF0EF11CF60150
:102E3000608171812F3F09F420E180E090E00CC0B7
:102E40007601F4E0EF0EF11CF60160817181828160
:102E500093812F3F09F420E1422F0E94E21009C024
:102E60007601F2E0EF0EF11CF601808191810E9463
:102E70002011670107C085E20E94B61003C00E94BE
:102E8000B61087017801FFEFEF1AFF0AD2CE0F903C
:102E90000F900F900F900F90DF91CF911F910F9196
:102EA000FF90EF90DF90CF900895CF92DF92EF9256
:102EB000FF926B017C01DC01CB0180569940A10996
:102EC000B109813A984BA140B10598F4A8EFBFEF42
:102ED000A70196010E941B1A7C5D8B409F4FE4E086
:102EE000220F331F441F551FEA95D1F70E94F61990
:102EF00002C027E630E029B930BDFF90EF90DF90A7
:102F0000CF90089528E12AB926E820BD1BB80C947B
:102F100055175F9BFECF8CB108955D9BFECF8CB99A
:102F20000895AF92BF92CF92DF92EF92FF920F93EC
:102F30001F93CF93DF931F92CDB7DEB76B017C0158
:102F4000AA24A394B12C4423F1F00FEF040FC50180
:102F500002C0880F991F0A95E2F78C01222717FDFE
:102F60002095322F0C211D212E213F2181E0012BA4
:102F7000022B032B09F480E0805D49830E948D17AA
:102F800049814150E0CF0F90DF91CF911F910F9178
:102F9000FF90EF90DF90CF90BF90AF900895CF93C8
:102FA000DF93EC018991882319F00E948D17FACFE5
:102FB000DF91CF910895FF920F931F93CF93DF93EB
:102FC0008C01C8EED3E0F12C0E9489178D3029F4D2
:102FD000F801EF0DF11D108210C08A30C9F388305E
:102FE00021F4FF2011F0FA9405C0F801EF0DF11D56
:102FF0008083F3942197209739F78F2DDF91CF911C
:103000001F910F91FF9008957F928F929F92AF92A0
:10301000BF92CF92DF92EF92FF920F931F93CF93C5
:10302000DF93CDB7DEB72A970FB6F894DEBF0FBE99
:10303000CDBF782ECB01BA01C22E22E0721216C08B
:103040004C2D2A960FB6F894DEBF0FBECDBFDF9190
:10305000CF911F910F91FF90EF90DF90CF90BF9095
:10306000AF909F908F907F900C9491176115710590
:103070008105910549F0FE0131967F018F01872C72
:10308000912CA12CB12C1DC010E01C15A1F11A30FF
:1030900091F180E30E948D171F5FF7CF61157105D5
:1030A0008105910599F0D62EA50194010E94F6198B
:1030B000CA01B901729ED0181124F801D0820F5FA5
:1030C0001F4FD02EDE18DC1448F310C0FAE0FC15B8
:1030D00068F0F8011082F3CFFE01ED0DF11D808143
:1030E0008A3038F0895C0E948D17DA94D110F4CFC1
:1030F00002C0805DF8CF2A960FB6F894DEBF0FBEEF
:10310000CDBFDF91CF911F910F91FF90EF90DF9096
:10311000CF90BF90AF909F908F907F9008958F92A7
:103120009F92AF92BF92CF92DF92EF92FF926B018C
:103130007C010E94B31A4B015C012FEFAB01BC0173
:103140008AE00E9404188EE20E948D17C501B40126
:103150000E94DF1A9B01AC01C701B6010E944E1A02
:1031600020E034E244E759E40E946D1B0E94B31A48
:10317000AB01BC012FEF8AE0FF90EF90DF90CF9082
:10318000BF90AF909F908F900C940418CF92DF92D5
:10319000EF92FF920F931F93CF93DF9300D000D055
:1031A0001F92CDB7DEB7FE017096E190F1906F01EE
:1031B000F7018081882309F4F7C0853209F0ECC05B
:1031C00087010F5F1F4FF701818190ED980F9A30B3
:1031D00078F420E090ED980F9A3058F4FAE02F9FA1
:1031E000900D1124292F0F5F1F4FF8018081F2CF1E
:1031F0002FEF883509F48FC0C8F4843409F44CC02B
:1032000058F4823409F4A1C038F5853209F0C7C0FA
:1032100085E20E948D17C3C0833509F4B2C085359D
:1032200009F464C0863409F0BAC09FC0863609F438
:103230009CC040F4833681F08436B9F0823609F0C0
:10324000AEC076C0853709F447C0883709F459C045
:10325000833709F0A4C095C07601F2E0EF0EF11CAF
:10326000F60180810E948D1795C07601F2E0EF0E85
:10327000F11CF601C080D180D7FE08C0D194C19462
:10328000D1088DE22D830E948D172D81A60166271E
:1032900057FD6095762F33C07601F4E0EF0EF11CF8
:1032A000F601408151816281738177FF28C070955A
:1032B0006095509541955F4F6F4F7F4F8DE22D8305
:1032C00049835A836B837C830E948D177C816B8139
:1032D0005A8149812D8113C07601F2E0EF0EF11C75
:1032E000F6014081518160E070E009C07601F4E0B0
:1032F000EF0EF11CF60140815181628173818AE0F9
:1033000014C07601F2E0EF0EF11CF601408151810C
:1033100060E070E009C07601F4E0EF0EF11CF60108
:10332000408151816281738180E10E94041832C022
:103330007601F2E0EF0EF11CF601608171812F3F02
:1033400009F420E180E090E00CC07601F4E0EF0E9B
:10335000F11CF60160817181828193812F3F09F414
:1033600020E2422F0E94911715C07601F4E0EF0E83
:10337000F11CF60160817181828193810E948F1816
:1033800009C07601F2E0EF0EF11CF6018081918117
:103390000E94CF17670103C00E948D178701780133
:1033A000FFEFEF1AFF0A04CF0F900F900F900F90CE
:1033B0000F90DF91CF911F910F91FF90EF90DF90D1
:1033C000CF90089597FB072E16F4009407D077FD51
:1033D00009D00E94201A07FC05D03EF490958195F3
:1033E0009F4F0895709561957F4F0895A1E21A2E21
:1033F000AA1BBB1BFD010DC0AA1FBB1FEE1FFF1F99
:10340000A217B307E407F50720F0A21BB30BE40BE8
:10341000F50B661F771F881F991F1A9469F760952F
:103420007095809590959B01AC01BD01CF010895E9
:10343000B7FF0C94341A0E94341A821B930B089520
:10344000AA1BBB1B51E107C0AA1FBB1FA617B707CA
:1034500010F0A61BB70B881F991F5A95A9F78095E6
:103460009095BC01CD0108950E943F1AA59F900D33
:10347000B49F900DA49F800D911D11240895A29FCB
:10348000B001B39FC001A39F700D811D1124911D38
:10349000B29F700D811D1124911D08955058BB27B6
:1034A000AA270ED0E0C0D1D030F0D6D020F031F431
:1034B0009F3F11F41EF4C6C00EF4E095E7FBBCC0BC
:1034C000E92FE2D080F3BA176207730784079507E4
:1034D00018F071F49EF5FAC00EF4E0950B2EBA2F99
:1034E000A02D0B01B90190010C01CA01A00111240A
:1034F000FF27591B99F0593F50F4503E68F11A16B6
:10350000F040A22F232F342F4427585FF3CF469546
:1035100037952795A795F0405395C9F77EF41F1668
:10352000BA0B620B730B840BBAF09150A1F0FF0F32
:10353000BB1F661F771F881FC2F70EC0BA0F621F1E
:10354000731F841F48F4879577956795B795F7950E
:103550009E3F08F0B3CF9395880F08F09927EE0FA0
:1035600097958795089598D088F09F5790F0B92F38
:103570009927B751A0F0D1F0660F771F881F991FC8
:103580001AF0BA95C9F712C0B13081F09FD0B1E0FE
:1035900008959CC0672F782F8827B85F39F0B93F0E
:1035A000CCF3869577956795B395D9F73EF49095CA
:1035B0008095709561957F4F8F4F9F4F0895E89448
:1035C00009C097FB3EF490958095709561957F4F6B
:1035D0008F4F9F4F9923A9F0F92F96E9BB27939519
:1035E000F695879577956795B795F111F8CFFAF429
:1035F000BB0F11F460FF1BC06F5F7F4F8F4F9F4F5A
:1036000016C0882311F096E911C0772321F09EE8B7
:10361000872F762F05C0662371F096E8862F70E01D
:1036200060E02AF09A95660F771F881FDAF7880FF7
:103630009695879597F9089597F99F6780E870E0C8
:1036400060E008959FEF80EC089500240A94161618
:10365000170618060906089500240A941216130680
:10366000140605060895092E0394000C11F488230E
:1036700052F0BB0F40F4BF2B11F460FF04C06F5F2A
:103680007F4F8F4F9F4F089557FD9058440F551F00
:1036900059F05F3F71F04795880F97FB991F61F0D4
:1036A0009F3F79F087950895121613061406551F4B
:1036B000F2CF4695F1DF08C0161617061806991FB7
:1036C000F1CF86957105610508940895E894BB27AC
:1036D00066277727CB0197F908950BD0C4CFB5DFC4
:1036E00028F0BADF18F0952309F0A6CFABCF11244C
:1036F000EECFCADFA0F3959FD1F3950F50E0551F91
:10370000629FF001729FBB27F00DB11D639FAA2736
:10371000F00DB11DAA1F649F6627B00DA11D661F85
:10372000829F2227B00DA11D621F739FB00DA11DA6
:10373000621F839FA00D611D221F749F3327A00D60
:10374000611D231F849F600D211D822F762F6A2FFC
:1037500011249F5750408AF0E1F088234AF0EE0F81
:10376000FF1FBB1F661F771F881F91505040A9F78E
:103770009E3F510570F060CFAACF5F3FECF3983EBB
:10378000DCF3869577956795B795F795E7959F5FF5
:10379000C1F7FE2B880F911D9695879597F908958F
:0437A000F894FFCFCB
:1037A40080C090D0404850586068707810181E1F30
:1037B4001F1E181001030F1F1F0F03011B1B1B1BD0
:1037C4001B1B1B1B00000000000000000000000089
:1037D400000000000103071F1F0703010E11111150
:1037E4001F1B1B1F0004040E1515110E61613131DE
:1037F4000A00626231310A00636331310A00646491
:1038040031310A00616132320A00626232320A00E6
:10381400636332320A00646432320A006161333312
:103824000A00626233330A00636333330A00646458
:1038340033330A00616134340A00626234340A00AA
:10384400636334340A00646434340A00253F005747
:10385400616974696E6720666F7200636F6E6E656E
:103864006374696F6E00525457210A0031313A254E
:103874007300506C6561736520776169740031323F
:103884003A25730031333A25730031343A257300F5
:1038940032313A25730032323A25730032333A25F5
:1038A400730032343A25730033313A2573003332CE
:1038B4003A25730033333A25730033343A257300C1
:1038C40034313A25730034323A25730034333A25BF
:1038D400730034343A257300696E697469616C69E4
:1038E4007A6174696F6E00636F6D706C6574656482
:1038F4000025733A204F4E0025733A204F46460068
:1039040025733A202564002D002B006F6B0053743F
:10391400616E646279004272696768746E6573737C
:10392400004C656420696E666F0044656C617920A3
:1039340074696D65004465627567206D6F64650028
:1039440050616765206E756D62657200255B0025A8
:103954005D0053415645004558495400253C253ED9
:10396400007C00536176696E672E2E2E00536176BB
:1039740065640043616E63656C6564002A20466972
:1039840072737420737461727420202A006D656DE3
:103994006F727920636F6E6669672E2E2E00555301
:1039A40042204D6564696100436F6E74726F6C6C84
:0A39B400657200506167653A00007B
:00000001FF
