:100000000C942A000C9447000C9447000C94470071
:100010000C9447000C9447000C9447000C94470044
:100020000C9447000C9447000C9447000C94470034
:100030000C9447000C9447000C9447000C94470024
:100040000C9447000C9447000C9447000C94470014
:100050000C94470011241FBECFE5D8E0DEBFCDBF12
:1000600012E0A0E6B0E0E6E2F2E302C005900D92F5
:10007000AC31B107D9F722E0ACE1B2E001C01D928A
:10008000AC34B207E1F70E94000B0C9411190C94E8
:100090000000CF93DF93EC01662339F00E941F0428
:1000A000CE01DF91CF910C943904880F991FDF9115
:1000B000CF910C94300BCF93FB01C42FB901813049
:1000C0009105F1F4E130F10519F48CEA90E010C0EB
:1000D000E230F10519F482EB90E00AC0E330F1055B
:1000E00019F488EB90E004C0349721F48EEB90E093
:1000F0000E94B4086C2F84E690E0CF910C944900E4
:1001000082309105B9F4E130F10519F484EC90E006
:10011000EFCFE230F10519F48AEC90E0E9CFE3305B
:10012000F10519F480ED90E0E3CF349719F786EDEF
:1001300090E0DECF83309105B9F4E130F10519F498
:100140008CED90E0D5CFE230F10519F482EE90E02D
:10015000CFCFE330F10519F488EE90E0C9CF3497A2
:1001600049F68EEE90E0C4CF0497C1F4E130F1057A
:1001700019F484EF90E0BCCFE230F10519F48AEF76
:1001800090E0B6CFE330F10519F480E091E0B0CF14
:10019000349709F0AFCF86E091E0AACFCF910895D0
:1001A0008536910538F464E670E0681B790B81E0D0
:1001B0000C9460040895FC0120E030E0AF01481B7E
:1001C000590B6191662329F06532C1F72F5F3F4FCC
:1001D000F5CFC901841B950B07960895EF92FF9206
:1001E0000F931F93CF93DF938C01EB010E94950D2A
:1001F0000130110509F044C0DF93CF9302E111E013
:100200001F930F931F921F921F921F920E9485119E
:100210007E0199E0E90EF11CC7010E94DB00FF920C
:10022000EF921F930F931F921F9209969F938F93A4
:100230000E948511CE0142969F938F931F930F9337
:100240001F92FF24F394FF921F921F920E94851128
:100250006B96CE010E94DB00DF93CF931F930F9329
:100260001F92FF9209969F938F930E9485118DB7DD
:100270009EB780960FB6F8949EBF0FBE8DBFE3C0A9
:100280000230110509F046C0CE0184969F938F93EA
:1002900002E111E01F930F931F921F921F921F9272
:1002A0000E9485117E019DE2E90EF11CC7010E94AA
:1002B000DB00FF92EF921F930F931F921F920996FC
:1002C0009F938F930E948511CE01C6969F938F9323
:1002D0001F930F931F92FF24F394FF921F921F927C
:1002E0000E948511EF96CE010E94DB00DF93CF9331
:1002F0001F930F931F92FF9209969F938F930E94D3
:1003000085118DB79EB780960FB6F8949EBF0FBE2D
:100310008DBF99C00330110509F049C0CE01885B3B
:100320009F4F9F938F9302E111E01F930F931F92B2
:100330001F921F921F920E9485117E0191E5E90E86
:10034000F11CC7010E94DB00FF92EF921F930F93F5
:100350001F921F9209969F938F930E948511CE0141
:10036000865A9F4F9F938F931F930F931F92FF2443
:10037000F394FF921F921F920E948511CD59DF4F77
:10038000CE010E94DB00DF93CF931F930F931F9248
:10039000FF9209969F938F930E9485118DB79EB708
:1003A00080960FB6F8949EBF0FBE8DBF4CC0043030
:1003B000110509F048C0CE0184599F4F9F938F9338
:1003C00002E111E01F930F931F921F921F921F9241
:1003D0000E9485117E0195E7E90EF11CC7010E947C
:1003E000DB00FF92EF921F930F931F921F920996CB
:1003F0009F938F930E948511CE0182589F4F9F93A8
:100400008F931F930F931F92FF24F394FF921F92D9
:100410001F920E948511C957DF4FCE010E94DB0059
:10042000DF93CF931F930F931F92FF9209969F9391
:100430008F930E9485118DB79EB780960FB6F89462
:100440009EBF0FBE8DBFDF91CF911F910F91FF9087
:10045000EF900895DF92EF92FF920F931F93CF9347
:10046000DF937C01C0E0D0E00CE011E0DD24D39408
:10047000CE15DF0584F41F930F931F92DF92DF9355
:10048000CF930E94851121960F900F900F900F909F
:100490000F900F90EDCFDF91CF911F910F91FF90B3
:1004A000EF90DF9008950F931F93CF93DF9300D0C9
:1004B00000D01F92CDB7DEB78B0129834C835D83BB
:1004C0008A839B830E94950D29814C815D818A815D
:1004D0009B812223A1F05F934F939F938F932FE0F3
:1004E00031E03F932F931F921F921F921F920E9401
:1004F00085110FB6F894DEBF0FBECDBF10C025E149
:1005000031E03F932F931F921F921F921F920E94E0
:1005100085110F900F900F900F900F900F90C801C2
:100520000F900F900F900F900F90DF91CF911F9130
:100530000F910C942A02EF92FF920F931F93CF9387
:10054000DF938C01EB010E94950D81E291E09F9376
:100550008F931F921F921F9283E08F930E948511A9
:100560008DE291E09F938F931F9281E08F931F9272
:1005700085E08F930E94851184EF91E00E943904F9
:1005800064E681E00E94600484E391E09F938F938E
:100590000E940716C8010E94C2088D819E810E9498
:1005A000D0002885A80161E070E08BE090E00E9417
:1005B0005302780129E0E20EF11CC7010E94C20833
:1005C0002885A70162E070E08CE090E00E94530271
:1005D000780182E1E80EF11CC7010E94C20828855B
:1005E000A70163E070E08DE090E00E945302780183
:1005F0009BE1E90EF11CC7010E94C2082885A701F2
:1006000064E070E08EE090E00E945302780124E202
:10061000E20EF11CC7010E94C2082885A70165E00F
:1006200070E085E190E00E94530278018DE2E80ECF
:10063000F11CC7010E94C2082885A70166E070E08E
:1006400086E190E00E945302780196E3E90EF11CE6
:10065000C7010E94C2082885A70167E070E087E112
:1006600090E00E94530278012FE3E20EF11CC701D3
:100670000E94C2082885A70168E070E088E190E048
:100680000E945302780188E4E80EF11CC7010E9421
:10069000C2082885A70169E070E08FE190E00E9420
:1006A0005302780191E5E90EF11CC7010E94C208CE
:1006B0002885A7016AE070E080E290E00E94530282
:1006C00078012AE5E20EF11CC7010E94C2082885C4
:1006D000A7016BE070E081E290E00E945302780194
:1006E00083E6E80EF11CC7010E94C2082885A70115
:1006F0006CE070E082E290E00E94530278019CE698
:10070000E90EF11CC7010E94C2082885A7016DE00F
:1007100070E089E290E00E945302780125E7E20E42
:10072000F11CC7010E94C2082885A7016EE070E095
:100730008AE290E00E94530278018EE7E80EF11CF5
:10074000C7010E94C2082885A7016FE070E08BE214
:1007500090E00E94530209571F4FC8010E94C2082F
:100760002885A80160E170E08CE290E00E945302CD
:100770009FEF29E688E1915020408040E1F700C0DA
:1007800000000E94950D8AE391E09F938F931F9242
:100790001F921F921F920E94851189E491E09F93FE
:1007A0008F931F9281E08F931F921F920E94851159
:1007B0008DB79EB74A960FB6F8949EBF0FBE8DBFF9
:1007C0008F81882329F18DE790E00E9439048DE71D
:1007D00090E00E941F048DE790E00E9439048DE7AD
:1007E00090E00E941F048DE790E00E9439048DE79D
:1007F00090E00E941F048DE790E00E9439048DE78D
:1008000090E00E941F0488EC90E00E94390404C02C
:1008100080EB94E00E94300BDF91CF911F910F91FC
:10082000FF90EF900C94950D8536910538F464E6B1
:1008300070E0681B790B82E00C94600408950F93BC
:100840001F93CF93DF9364E670E00E9423178B0120
:10085000C0E0D0E0CE010E941404C8010E94300B19
:100860002196C436D105B1F7DF91CF911F910F9139
:1008700008950F931F93CF93DF9364E670E00E9477
:1008800023178B01C4E6D0E0CE010E941404C801F6
:100890000E94300B21972097B9F7DF91CF911F91DC
:1008A0000F91089561110C941F040C94300B611189
:1008B0000C9439040C94300B81B3806381BB089590
:1008C000CF93C82F70E080E090E00E94221823E3CD
:1008D00033E343E250E40E94AE180E94F417C130A3
:1008E00031F0C23039F470E079BD68BD03C070E00A
:1008F0007BBD6ABDCF9108958FB581608FBD8EB5E8
:1009000088608EBD8FB5806A8FBD8EB583608EBDC9
:100910001BBC1ABC19BC18BC08951F93CF93DF935E
:1009200000D01F92CDB7DEB76A837B8389830E9494
:10093000950D89816A817B81882329F07F936F934C
:1009400083E591E004C07F936F938AE591E09F93E4
:100950008F931F921F921F921F920E9485110FB6B4
:10096000F894DEBF0FBECDBF8EE591E09F938F93CD
:100970001F9211E01F931F921F920E94851187E51D
:1009800091E09F938F931F921F931F928EE08F93FE
:100990000E9485110FB6F894DEBF0FBECDBF0F9039
:1009A0000F900F90DF91CF911F9108951F93CF93D8
:1009B000DF9300D000D0CDB7DEB76B837C83898313
:1009C0009A830E94950D9A819F9389818F937C8150
:1009D0007F936B816F9382E691E09F938F931F9239
:1009E0001F921F921F920E94851189E691E09F93AA
:1009F0008F931F9211E01F931F921F920E948511E7
:100A00008BE691E09F938F931F921F931F928FE02D
:100A10008F930E9485110FB6F894DEBF0FBECDBF35
:100A20000F900F900F900F90DF91CF911F9108952D
:100A3000EF92FF921F93CF93DF9300D0CDB7DEB735
:100A400089839A830E94950D9A819F9389818F93C0
:100A500082E191E09F938F931F921F921F921F92AA
:100A60000E9485118DE6E82E81E0F82EFF92EF922C
:100A70001F9211E01F931F921F920E948511FF92F7
:100A8000EF921F921F931F928EE08F930E94851109
:100A90000FB6F894DEBF0FBECDBF0F900F90DF9161
:100AA000CF911F91FF90EF9008954F925F926F92B8
:100AB0007F929F92AF92BF92CF92DF92EF92FF927E
:100AC0000F931F93CF93DF93EC018B01412C512C9B
:100AD000320134E6E32EF12C992493944AEFC42E8C
:100AE000D12C52E3A52EB12CF80180819181019780
:100AF00009F046C0F8E84F16F3E15F06610471049F
:100B000034F48FEF481A580A680A780A07C080E759
:100B100091E00E941805412C512C3201B19B48C133
:100B2000B09BA9C0B29B8AC1B39B8DC1B49B02C0CC
:100B3000B59926C080E090E00E9439040E94950D8E
:100B400080E090E00E94D00088EE93E00E94300B9D
:100B5000B29B0AC0B39B08C0B49B06C0B59B04C03F
:100B6000B19B02C0B099F4CF84EF91E00E94300BAA
:100B70008D819E810E94D00080E791E00E9418053F
:100B8000F80180819181029709F059C0F8E84F1669
:100B9000F3E15F066104710434F48FEF481A580AD8
:100BA000680A780A09C068E771E08D819E810E9419
:100BB000D604412C512C3201B19B3BC1B09B9AC051
:100BC000B29B3CC1B39B3FC1B4991BC08D819E8138
:100BD00018161906B4F40A9797FD03C09E838D83F7
:100BE00002C01E821D828D819E810E94D00068E716
:100BF00071E08D819E810E94D60488EC90E00E9475
:100C0000300BB5991CC08D819E8184369105BCF452
:100C10000A96853691051CF49E838D8302C0FE8260
:100C2000ED828D819E810E94D00068E771E08D8108
:100C30009E810E94D60488EC90E00E94300BF8015F
:100C4000808191810397C1F5F8E84F16F3E15F06C3
:100C50006104710434F48FEF481A580A680A780A5C
:100C600008C063E871E08F810E948D04412C512CF3
:100C70003201B19903C082E090E0E7C0B09B93C01D
:100C8000B29BDCC0B39BDFC0B4990AC01F8263E88B
:100C900071E080E00E948D0488EC90E00E94300BAF
:100CA000B5990AC09F8263E871E081E00E948D04DB
:100CB00088EC90E00E94300BF801808191810497CC
:100CC00009F055C0F8E84F16F3E15F0661047104BE
:100CD00034F48FEF481A580A680A780A09C06CE899
:100CE00071E089859A850E94D604412C512C3201ED
:100CF000B19903C083E090E0A8C0B09B95C0B29BBF
:100D00009DC0B39BA0C0B49918C089859A858333D0
:100D100091059CF04997823391051CF09A87898749
:100D200002C0BA86A9866CE871E089859A850E941E
:100D3000D60488EC90E00E94300BB59918C08985E4
:100D40009A858A3F91059CF449968B3F91051CF446
:100D50009A87898702C0DA86C9866CE871E089853E
:100D60009A850E94D60488EC90E00E94300BF8012E
:100D7000808191810597D9F5F8E84F16F3E15F0678
:100D80006104710434F48FEF481A580A680A780A2B
:100D900008C067E971E088850E948D04412C512CC0
:100DA0003201B19903C084E090E04FC0B09903C014
:100DB00086E090E04AC0B29B41C0B39B44C0B49966
:100DC0000AC0188667E971E080E00E948D0488EC13
:100DD00090E00E94300BB5990AC0988667E971E0EF
:100DE00081E00E948D0488EC90E00E94300BF801B5
:100DF00080819181069709F077CEF8E84F16F3E1EC
:100E00005F066104710434F48FEF481A580A680AC7
:100E1000780A08C062EA71E08B850E948D04412C3B
:100E2000512C3201B19903C085E090E00EC0B09919
:100E300003C081E090E009C0B29903C086E990E068
:100E400004C0B3991CC086EF9FEFF80191838083A3
:100E500089859A85880F991F880F991FDF91CF91F7
:100E60001F910F91FF90EF90DF90CF90BF90AF90C8
:100E70009F907F906F905F904F900C94300BB4993F
:100E80000AC01B8662EA71E080E00E948D0488EC53
:100E900090E00E94300BB59927CE9B8662EA71E004
:100EA00081E00E948D0488EC90E00E94300B1CCE03
:100EB000BF92CF92DF92EF92FF920F931F93CF9347
:100EC000DF93CDB7DEB72E970FB6F894DEBF0FBE17
:100ED000CDBF8C01FC01858196819F838E838185A6
:100EE00092859B878A878781888780858987838584
:100EF0008C8781E090E09E878D870E94950D6EEA39
:100F0000C62E61E0D62EDF92CF921F921F921F92C3
:100F10001F920E94851171EBE72E71E0F72EFF9270
:100F2000EF921F921F921F92EFE0BE2EBF920E947F
:100F30008511DF92CF921F92DD24D394DF921F920E
:100F40001F920E948511FF92EF921F92DF921F92D3
:100F5000BF920E94851184EB91E09F938F931F9223
:100F60001F921F92F3E0CF2ECF920E94851189EB42
:100F700091E09F938F931F921F921F9289E08F930E
:100F80000E9485110FB6F894DEBF0FBECDBFAEEB49
:100F9000EA2EA1E0FA2EFF92EF921F92DF921F92AB
:100FA000CF920E948511FF92EF921F92DF921F92C3
:100FB0008BE08F930E948511B3ECEB2EB1E0FB2EFA
:100FC000FF92EF921F921F921F9282E0C82ECF9243
:100FD0000E948511FF92EF921F92DF921F92CF9293
:100FE0000E948511FF92EF921F921F921F929DE027
:100FF000C92ECF920E948511FF92EF921F92DF922D
:101000001F92CF920E9485110FB6F894DEBF0FBEDB
:10101000CDBF80ED97E00E94300B0E94950D8D852D
:101020009E85853691050CF465C00E94950D85EC72
:1010300091E09F938F931F921F921F921F920E9485
:1010400085116E818F81F801658386838A859B85F2
:101050009287818788858783898580878C85838728
:10106000808190E00E943B0B88EC90E00E94300B66
:10107000F8018181678190E00E943B0B88EC90E051
:101080000E94300BF8018281618590E00E943B0B49
:1010900088EC90E00E94300BF8018381608590E03D
:1010A0000E943B0B88EC90E00E94300BF801848199
:1010B000638590E00E943B0B88EC90E00E94300B2F
:1010C0000E94950D60E080E00E94060E8FEC91E09A
:1010D0009F938F931F921F921F921F920E948511C0
:1010E00088EE93E00E94300B0FB6F894DEBF0FBE7F
:1010F000CDBF2AC097FF20C0F801858196810E944C
:10110000D0000E94950D60E080E00E94060E85ED03
:1011100091E09F938F931F921F921F921F920E94A4
:10112000851188EE93E00E94300B0F900F900F9086
:101130000F900F900F9008C0BE01635F7F4FCE01EC
:1011400001960E9455056BCF2E960FB6F894DEBF20
:101150000FBECDBFDF91CF911F910F91FF90EF9008
:10116000DF90CF90BF900895CF93DF93EB019F93D3
:101170008F930E9407160F900F90CE01DF91CF91B1
:101180000C94300B0C941C154F925F926F927F92CF
:101190008F92AF92CF92EF920F931F93CF93DF93E3
:1011A000EC013B012A0160E875E280E090E00E94DA
:1011B000C31486E08F9385E08F9384E0882E93E0BC
:1011C000A92ECC24CA94EE24EA940FEF2FEF42E02C
:1011D00061E080E00E94FB0C60E182E00E94AB0DC8
:1011E00017BA8FEF88BB0E945C040E947C0480E0E9
:1011F00090E00E94390481E090E00E94430B0F9040
:101200000F90811134C082E0888382E090E00E94D8
:10121000430B90E09E838D8383E0898383E090E09D
:101220000E94430B91E0811101C090E09F8384E014
:101230008A8384E090E00E94430B90E09A8789873C
:1012400085E08B8385E090E00E94430B91E0811163
:1012500001C090E0988786E08C8386E090E00E9451
:10126000430B91E0811101C090E09B8760C00E9418
:10127000950D8EED91E09F938F931F921F921F9279
:101280001F920E9485118FEE91E09F938F931F9282
:1012900011E01F931F921F920E9485111B8682E30B
:1012A00090E09E838D831F8384E690E09A878987F0
:1012B000188660E081E090E00E943B0B88EC90E0B3
:1012C0000E94300B88816D8190E00E943B0B88EC7E
:1012D00090E00E94300B89816F8190E00E943B0B6F
:1012E00088EC90E00E94300B8A81698590E00E9432
:1012F0003B0B88EC90E00E94300B8B81688590E07E
:101300000E943B0B88EC90E00E94300B8C816B8537
:1013100090E00E943B0B80E991E00E94300B8DB77A
:101320009EB70C960FB6F8949EBF0FBE8DBF0E945D
:101330006F108CE00E946C0D6F8188EE93E00E942C
:1013400052040E94950D80E092E09F938F931F922C
:101350001F921F9213E01F930E9485118AE092E072
:101360009F938F931F9281E08F931F921F930E94F0
:101370008511EDB7FEB73C960FB6F894FEBF0FBED1
:10138000EDBF00E010E08D819E810817190754F42D
:10139000C8010E94D00084E190E00E94300B0F5FF2
:1013A0001F4FF1CF88EC90E00E94300B0E94950D0A
:1013B00081E090E0F301918380836F8184E690E087
:1013C0000E9457046F8184E690E00E945204BE019F
:1013D000C2010E949B02B201F301808191810E94AF
:1013E000EE00C09ADF91CF911F910F91EF90CF90B7
:1013F000AF908F907F906F905F904F900895CF93B4
:10140000DF9300D000D0CDB7DEB7442381F16983EC
:101410007A838B839C830E94950D25E132E03F9374
:101420002F931F921F921F9225E02F930E948511E8
:101430007A817F9369816F9326E631E03F932F9302
:101440001F9221E02F931F9227E02F930E94851176
:101450000FB6F894DEBF0FBECDBF8B819C810F907D
:101460000F900F900F90DF91CF910C94300B0F9055
:101470000F900F900F90DF91CF9108958C01EB01A9
:101480005A01412C512C3201C12CD12C68ECE62E92
:10149000F12C88248394912CB09B02C0B1993DC05B
:1014A000B1990FC08881998104975CF4F801678134
:1014B00084E690E00E945204688179816F5F7F4FDB
:1014C00010C0B0992AC088819981029734F1F8013F
:1014D000678184E690E00E945204688179816150BE
:1014E000710979836883F801438584EF91E00E9454
:1014F000FF09B501888199810E94EE00F80167819A
:1015000084E690E00E945704F80181859285880F57
:10151000991F880F991F0E94300B86B3837051F476
:10152000C8010E94580799828882B50181E090E045
:101530000E94EE00B29B06C0B39B04C0B49B02C0E5
:10154000B5993BC0B29908C0688179819701F801CB
:10155000478181E090E01DC0B39908C0688179811E
:101560009701F801478182E090E013C0B49908C068
:10157000688179819701F801478183E090E009C093
:10158000B59909C0688179819701F801478184E0A4
:1015900090E00E945B00FFEFCF1ADF0A83E0C816DD
:1015A000D10489F0E5E0CE16D10489F0F8E0CF1639
:1015B000D10481F4E12CF12C0DC0C12CD12C48ECCC
:1015C000E42EF12C07C036E9E32EF12C03C024E60B
:1015D000E22EF12C80E1481687E25806610471047E
:1015E00034F4EFEF4E1A5E0A6E0A7E0A55CFB5014B
:1015F000888199810E94EE00412C512C32014CCF00
:10160000CF93DF93CDB7DEB7CE59D1090FB6F8949B
:10161000DEBF0FBECDBFC356DF4F19821882CD5932
:10162000D040AE014F5F5F4FBE0163567F4FCE018A
:101630008F569F4F0E94C408AE014F5F5F4FBE019F
:1016400063567F4FCE018F569F4F0E943E0A0097F0
:1016500031F025E02A95F1F700000197F8CF0895C1
:10166000009741F0EFE9FFE03197F1F700C000008B
:101670000197F6CF0895E199FECF9FBB8EBB6DBB5E
:10168000E29AE19A0895E199FECF9FBB8EBBE09A62
:101690008DB308950F931F93CF93DF93EB018C01CC
:1016A000061B170BCE01800F911F69910E943B0B07
:1016B000FE01319780818111F5CFDF91CF911F918C
:1016C0000F9108950F931F93CF93DF93EB018C013C
:1016D000061B170BCE01800F911F0E94430B8993AD
:1016E0008111F8CFDF91CF911F910F910895282F8D
:1016F00027708695869586958130B9F028F08230DE
:1017000029F18330A1F108953AB381E090E0022EEF
:1017100001C0880F0A94EAF7662319F0382B3ABB08
:101720000895809583238ABB089537B381E090E0C4
:10173000022E01C0880F0A94EAF7662319F0382BAD
:1017400037BB08958095832387BB089534B381E028
:1017500090E0022E01C0880F0A94EAF7662319F080
:10176000382B34BB08958095832384BB089531B30F
:1017700081E090E0022E01C0880F0A94EAF7662308
:1017800019F0382B31BB08958095832381BB0895D0
:10179000282F27708695869586958130B9F028F098
:1017A000823029F18330A1F108953BB381E090E0CC
:1017B000022E01C0880F0A94EAF7662319F0382B2D
:1017C0003BBB0895809583238BBB089538B381E09C
:1017D00090E0022E01C0880F0A94EAF7662319F000
:1017E000382B38BB08958095832388BB089535B383
:1017F00081E090E0022E01C0880F0A94EAF7662388
:1018000019F0382B35BB08958095832385BB089547
:1018100032B381E090E0022E01C0880F0A94EAF70B
:10182000662319F0382B32BB08958095832382BB41
:101830000895282F2770869586958695813049F0E2
:1018400030F0823041F0833079F480B305C089B341
:1018500003C086B301C083B390E002C0959587951D
:101860002A95E2F78170089580E00895CF93C82FFC
:1018700084FB662760F9809146020E94C80BC5FB75
:10188000662760F9809147020E94C80BC6FB662755
:1018900060F9809148020E94C80B6C2F661F662772
:1018A000661F80914902CF910C94C80BCF93DF93B0
:1018B00060E080913F020E94C80B60E0809140028E
:1018C0000E94C80BC1E4D2E061E088810E94C80B8D
:1018D0008AE090E00E94270B60E08881DF91CF9141
:1018E0000C94C80BCF93C82F682F6170809142026F
:1018F0000E94C80BC1FB662760F9809143020E94D9
:10190000C80BC2FB662760F9809144020E94C80B95
:10191000C3FB662760F980914502CF910C94C80BF8
:10192000CF93DF9361E080913F020E94C80B60E09B
:10193000809140020E94C80BC1E4D2E061E088813E
:101940000E94C80B8AE090E00E94270B60E088812B
:10195000DF91CF910C94C80BCF93809140028F3FC1
:1019600009F444C060E0809149020E94770B60E076
:1019700080913F020E94C80B61E0809140020E946A
:10198000C80B60E0809141020E94C80B8AE090E0A1
:101990000E94270B61E0809141020E94C80B8AE0FF
:1019A00090E00E94270B809149020E94190CC82FD9
:1019B00080913E02843091F460E0809141020E9467
:1019C000C80B8AE090E00E94270B61E08091410201
:1019D0000E94C80B8AE090E00E94270BC111D1CF72
:1019E00061E080914902CF910C94770B81E090E007
:1019F000CF910C94300B8F929F92AF92BF92CF9267
:101A0000DF92EF92FF920F931F93CF93DF93CDB7A7
:101A1000DEB7D82E162FF42E9F84B88880933F020D
:101A2000609340024093410220934202009343029C
:101A3000E0924402C0924502A09246028092470280
:101A400090924802B09249022F3F39F00F3F29F09F
:101A50008FEFE81611F0C81204C084E080933E02B4
:101A600013C088E080933E0261E0822F0E94770BD2
:101A700061E0802F0E94770B61E08E2D0E94770B32
:101A800061E08C2D0E94770B61E08D2D0E94770B19
:101A900061E0812F0E94770B61E08F2D0E94770B10
:101AA00061E08A2D0E94770B61E0882D0E94770B00
:101AB00061E0892D0E94770B61E08B2DDF91CF9142
:101AC0001F910F91FF90EF90DF90CF90BF90AF905C
:101AD0009F908F900C94770BCF93C82F0E94AC0CE3
:101AE00080913E02883021F48C2F0E94720C07C036
:101AF0008C2F0E94360C0E94560CC295C07F8C2FF2
:101B00000E94360CCF910C94560C90913C02891790
:101B100058F410924A0280934B02E82FF0E0E05A0A
:101B2000FF4F80810C946C0D0895ECE1F2E080E2AF
:101B3000819392E0EC32F907D9F7ECE2F2E080E22F
:101B4000819392E0EC33F907D9F781E00E946C0DA4
:101B500080E00C94850D60933D0280933C028330BD
:101B600040F06F7080E9860F80936200605360934D
:101B7000630084E690E00E94300B80913E02883042
:101B800011F488E327C0843039F580E30E94360CD5
:101B90000E94560C84E690E00E94300B80E30E9485
:101BA000360C0E94560C88EC90E00E94270B80E3D4
:101BB0000E94360C0E94560C88EC90E00E94270B85
:101BC00080E20E94360C0E94560C88EC90E00E9445
:101BD000270B88E20E946C0D8EE00E946C0D0C9425
:101BE000950D80914B028F5F80934B0210924A02B9
:101BF00090913C02891710F010924B02E0914B0239
:101C0000F0E0E05AFF4F80810C946C0D90913C0203
:101C1000891780F490913D02691760F460934A023D
:101C200080934B02E82FF0E0E05AFF4F8081860F4F
:101C30000C946C0D0895CF93C82F90914A02809117
:101C40003D02981760F4CA3051F00E94AC0C8091AC
:101C50003E02883049F48C2F0E94720C0CC00E9406
:101C6000F10DCA3091F0F1CF8C2F0E94360C0E94FA
:101C7000900CC295C07F8C2F0E94360C0E94900C55
:101C800080914A028F5F80934A02CF910895AF926C
:101C9000BF92CF92DF92EF92FF920F931F93CF9359
:101CA000DF931F92CDB7DEB76B017C01AA24A3940A
:101CB000B12C4423F1F00FEF040FC50102C0880FCF
:101CC000991F0A95E2F78C01222717FD2095322FE4
:101CD0000C211D212E213F2181E0012B022B032B02
:101CE00009F480E0805D49830E941B0E49814150C8
:101CF000E0CF0F90DF91CF911F910F91FF90EF9068
:101D0000DF90CF90BF90AF900895CF93DF93EC0119
:101D10008991882319F00E941B0EFACFDF91CF9191
:101D20000895DF92EF92FF920F931F93CF93DF936B
:101D3000D82E8B0180913C02D81608F0D12C8CE073
:101D40000E946C0DE12CE801CE0DD11D8881882305
:101D500009F18D2D0E94850DF12C80913D02F81620
:101D600050F4FE01EF0DF11D8081882321F00E94C7
:101D70001B0EF394F2CF80913D02F81628F480E216
:101D80000E941B0EF394F7CF88EC90E00E94300B7A
:101D9000E394D9CF8EE0DF91CF911F910F91FF9007
:101DA000EF90DF900C946C0D7F928F929F92AF9288
:101DB000BF92CF92DF92EF92FF920F931F93CF9338
:101DC000DF93CDB7DEB72A970FB6F894DEBF0FBE0C
:101DD000CDBF782ECB01BA01C22E22E0721216C0FE
:101DE0004C2D2A960FB6F894DEBF0FBECDBFDF9103
:101DF000CF911F910F91FF90EF90DF90CF90BF9008
:101E0000AF909F908F907F900C94470E6115710555
:101E10008105910549F0FE0131967F018F01872CE4
:101E2000912CA12CB12C29C080E32A960FB6F894EE
:101E3000DEBF0FBECDBFDF91CF911F910F91FF90FD
:101E4000EF90DF90CF90BF90AF909F908F907F905A
:101E50000C941B0E611571058105910599F0D62E24
:101E6000A50194010E943717CA01B901729ED018CA
:101E70001124F801D0820F5F1F4FD02EDE18DC1422
:101E800048F310C0FAE0FC1568F0F8011082F3CFB7
:101E9000FE01ED0DF11D80818A3038F0895C0E94D1
:101EA0001B0EDA94D110F4CF02C0805DF8CF2A96D1
:101EB0000FB6F894DEBF0FBECDBFDF91CF911F915B
:101EC0000F91FF90EF90DF90CF90BF90AF909F90D9
:101ED0008F907F9008952F923F925F926F927F92A2
:101EE0008F929F92AF92BF92CF92DF92EF92FF922A
:101EF0000F931F93CF93DF93CDB7DEB72E970FB617
:101F0000F894DEBF0FBECDBF682E722E470122E0CF
:101F1000821341C0EE24E394F12CA4E0880C991CB8
:101F2000AA95E1F7772009F4A9C08FEF870DD701B3
:101F300002C0AA0FBB1F8A95E2F7CD01AA2797FD21
:101F4000A095BA2F84239523A623B72321E0892BBC
:101F50008A2B8B2B09F420E0E0E3DE2ED20E8D2DB0
:101F60004B875C876D877E870E941B0ED801ED91A1
:101F7000FC911197E80DF91DE45EFD4FD0828D9123
:101F80009C91119701968D939C937A947E856D8593
:101F90005C854B85C7CF411551056105710509F475
:101FA00054C0FE0131961F015F01C82ED12CE12CD7
:101FB000F12C5A2C52185714B8F4411551056105EB
:101FC000710579F0542ECB01BA01A70196010E9448
:101FD0003717BA01A901649E50181124D5015C92EB
:101FE0000BC0BAE0B71530F434E0880C991C3A9570
:101FF000E1F724C0F5011082FFEFAF1ABF0AD9CF75
:10200000FE01E50DF11D90819A30D8F087E3890F2C
:102010009B870E941B0ED801ED91FC919B859A3005
:1020200090F0995CE80DF91DE45EFD4F9083F80196
:10203000808191810196918380835A945110E0CFE1
:102040001DC080E3E4CF905DEDCF80E30E941B0EC6
:10205000D8018D919C911197F70124E0EE0FFF1F9D
:102060002A95E1F7E80FF91FE45EFD4F80E38083D6
:102070008D919C91119701968D939C932E960FB6FE
:10208000F894DEBF0FBECDBFDF91CF911F910F91AE
:10209000FF90EF90DF90CF90BF90AF909F908F9088
:1020A0007F906F905F903F902F900895CF93C82FAF
:1020B0000E94AC0C80913E02883021F48C2F0E944B
:1020C000720C07C08C2F0E94360C0E94900CC29597
:1020D000C07F8C2F0E94360CCF910C94900CAF9245
:1020E000BF92CF92DF92EF92FF920F931F93CF9305
:1020F000DF93CDB7DEB7C854D1090FB6F894DEBF71
:102100000FBECDBF88E0E4E6F0E0DE01AF5BBF4F7D
:1021100001900D928A95E1F780E4ECE6F0E0DE01B3
:10212000119601900D928A95E1F78E010F5B1F4F7A
:10213000CE0101966C01580198E0A90EB11CF8017E
:1021400081918F010E946C0DE12CF12CF601EE0DB6
:10215000FF1D80810E945610FFEFEF1AFF0A88E0F2
:10216000E816F10499F798E0C90ED11C0A151B0571
:1021700031F7C85BDF4F0FB6F894DEBF0FBECDBF9F
:10218000DF91CF911F910F91FF90EF90DF90CF9053
:10219000BF90AF9008958130910511F480E021C087
:1021A0008230910511F481E01CC08330910511F457
:1021B00082E017C08430910511F483E012C08530AD
:1021C000910511F484E00DC08630910511F485E08D
:1021D00008C08730910511F486E003C0089719F410
:1021E00087E00C94561008958FEF0C9456108FE7EB
:1021F0000C9456108EE70C94561085EA0C945610E9
:10220000DF92EF92FF920F931F93CF93DF93FC0126
:10221000EB018A01B4E0000F111FBA95E1F7D080FD
:10222000DD2009F46AC085E27F01D81252C082E045
:10223000E80EF11CD1808EE3D816B1F18D15C8F0EF
:102240008EE2D81609F442C08D1540F085E2D8160A
:1022500049F18CE2D8124FC085E029C08BE3D81633
:1022600069F18CE3D81611F18AE3D81244C086E0F4
:102270001EC08DE5D81639F18D1548F08FE3D816BC
:10228000F9F08BE5D81237C00E94F71028C08CE710
:10229000D81681F08DE7D81679F08BE7D8122BC0CD
:1022A00083E005C085E219C080E001C081E00E94A2
:1022B000561015C082E0FBCF84E0F9CF87E0F7CF5E
:1022C0000E94F4100CC00E94FA1009C00E94FD1078
:1022D00006C08FEFE81AF80A8D2D0E941B0EE881C8
:1022E000F981E00FF11FE45EFD4FD0828881998172
:1022F000019699838883F70192CFDF91CF911F9147
:102300000F91FF90EF90DF9008956F927F928F92E0
:102310009F92AF92BF92CF92DF92EF92FF920F9374
:102320001F93CF93DF93CDB7DEB727970FB6F894FF
:10233000DEBF0FBECDBF188D098DAA8CBB8C6C8CF7
:102340007D8C612F8A2D0E94060E19830A838E01CF
:10235000025E1F4F650184E0CC0CDD1C8A95E1F71D
:10236000F3019080992009F47EC185E2981266C13C
:1023700043019FEF891A990AF301918180ED890F3A
:102380008A3080F420E080ED890F8A3060F4FAE032
:102390002F9F800D1124282F8FEF881A980AF4019F
:1023A0009081F1CF2FEF953509F4DEC078F59C339D
:1023B00009F462C0A0F49E3209F46DC040F4953275
:1023C00009F42AC19C3209F049C185E056C09A330C
:1023D00009F45BC09B3309F041C187E04EC09234E1
:1023E00009F4F7C050F49E3309F444C09F3309F058
:1023F00035C19B830E94F41013C1943409F488C042
:1024000008F44DC0933509F4F8C028C1943609F496
:102410005CC098F49D35D9F150F4983509F4BDC0ED
:102420009B3509F01BC19B830E94F710F9C09236BF
:1024300009F4C2C0933699F111C1983709F4A3C0C9
:1024400080F4933709F4D9C0953709F007C13801F2
:10245000F2E06F0E711CF8014081518160E070E084
:102460008CC09C3771F09D3771F09B3709F0F6C036
:1024700083E003C080E001C081E09B830E9456108E
:10248000CFC082E0FACF84E0F8CF86E0F6CF9B831E
:102490000E94FA10C5C09B830E94FD10C1C0380184
:1024A000F2E06F0E711CF8011081812F0E941B0E4B
:1024B00029813A81F601E20FF31FE45EFD4F10839C
:1024C0002F5F3F4F3A832983A5C03801F2E06F0E9A
:1024D000711CF8010081118117FF14C0119501953D
:1024E00011098DE22F830E941B0E89819A81F601CA
:1024F000E80FF91FE45EFD4F3DE2308301969A83B9
:1025000089832F81A801662757FD6095762F35C0F6
:102510003801F4E06F0E711CF80140815181628135
:10252000738177FF2AC070956095509541955F4FF4
:102530006F4F7F4F8DE22F834B835C836D837E8350
:102540000E941B0E89819A81F601E80FF91FE45E53
:10255000FD4F3DE2308301969A8389837E816D81B0
:102560005C814B812F8109C03801F4E06F0E711C32
:10257000F801408151816281738175018E010F5F85
:102580001F4F8AE037C03801F2E06F0E711CF8016E
:102590004081518160E070E009C03801F4E06F0EC5
:1025A000711CF801408151816281738175018E0136
:1025B0000F5F1F4F80E11EC03801F2E06F0E711CEB
:1025C000F801408151812F3F09F420E160E070E083
:1025D0000CC03801F4E06F0E711CF801408151818C
:1025E000628173812F3F09F420E175018E010F5F35
:1025F0001F4F82E00E946B0F0DC03801F2E06F0E9A
:10260000711CA501BE016F5F7F4FF8018081918130
:102610000E940011830122C085E29B830E941B0E51
:1026200029813A81F601E20FF31FE45EFD4F9B81A1
:1026300090832F5F3F4F3A83298310C0892D0E94DA
:102640001B0E29813A81F601E20FF31FE45EFD4F74
:1026500090822F5F3F4F3A83298343013401FFEF7C
:102660006F1A7F0A7DCE27960FB6F894DEBF0FBE95
:10267000CDBFDF91CF911F910F91FF90EF90DF9031
:10268000CF90BF90AF909F908F907F906F90089564
:10269000CF92DF92EF92FF920F931F93CF93DF932E
:1026A00000D000D01F92CDB7DEB7FE017096E1904A
:1026B000F1906F01F7018081882309F429C18532E7
:1026C00009F01EC187010F5F1F4FF701818190ED57
:1026D000980F9A3078F420E090ED980F9A3058F4E3
:1026E000FAE02F9F900D1124292F0F5F1F4FF80143
:1026F0008081F2CF2FEF853509F4B4C070F58C33AB
:1027000009F460C0A0F48E3209F469C040F4853247
:1027100009F4F2C08C3209F0F6C085E05AC08A3361
:1027200009F456C08B3309F0EEC087E052C0823402
:1027300009F4C7C048F48E3309F442C08F3309F05E
:10274000E2C00E94F410DFC0843409F46BC008F4C6
:1027500049C0833509F4C5C0D6C0843609F44BC0DE
:1027600090F48D35C9F148F4883509F490C08B3563
:1027700009F0C9C00E94F710C6C0823609F494C09F
:10278000833681F1C0C0883709F477C080F483377D
:1027900009F4A7C0853709F0B6C07601F2E0EF0E64
:1027A000F11CF6014081518160E070E064C08C371B
:1027B00059F08D3759F08B3709F0A5C083E009C077
:1027C00080E007C081E005C082E003C084E001C072
:1027D00086E00E94561097C00E94FA1094C00E9492
:1027E000FD1091C07601F2E0EF0EF11CF601808140
:1027F0000E941B0E7FC07601F2E0EF0EF11CF60185
:10280000C080D180D7FE08C0D194C194D1088DE298
:102810002D830E941B0E2D81A601662757FD609512
:10282000762F29C07601F4E0EF0EF11CF60140810D
:1028300051816281738177FF1EC0709560955095BC
:1028400041955F4F6F4F7F4F8DE22D8349835A83B0
:102850006B837C830E941B0E7C816B815A81498132
:102860002D8109C07601F4E0EF0EF11CF6014081E4
:102870005181628173818AE014C07601F2E0EF0E2B
:10288000F11CF6014081518160E070E009C07601E1
:10289000F4E0EF0EF11CF6014081518162817381F9
:1028A00080E10E94D40E26C07601F2E0EF0EF11C0A
:1028B000F601608171812F3F09F420E180E090E012
:1028C0000CC07601F4E0EF0EF11CF601608171811D
:1028D000828193812F3F09F420E1422F0E94470E0D
:1028E00009C07601F2E0EF0EF11CF60180819181C2
:1028F0000E94850E670107C085E20E941B0E03C07F
:102900000E941B0E87017801FFEFEF1AFF0AD2CE5B
:102910000F900F900F900F900F90DF91CF911F911C
:102920000F91FF90EF90DF90CF900895CF92DF92BC
:10293000EF92FF926B017C01DC01CB018056994044
:10294000A109B109813A984BA140B10598F4A8EFCB
:10295000BFEFA70196010E945C177C5D8B409F4FE3
:10296000E4E0220F331F441F551FEA95D1F70E9460
:10297000371702C027E630E029B930BDFF90EF904D
:10298000DF90CF90089528E12AB926E820BD1BB832
:102990000C9496145F9BFECF8CB108955D9BFECF87
:1029A0008CB90895AF92BF92CF92DF92EF92FF92CF
:1029B0000F931F93CF93DF931F92CDB7DEB76B01B9
:1029C0007C01AA24A394B12C4423F1F00FEF040F4F
:1029D000C50102C0880F991F0A95E2F78C012227D2
:1029E00017FD2095322F0C211D212E213F2181E042
:1029F000012B022B032B09F480E0805D49830E94A8
:102A0000CE1449814150E0CF0F90DF91CF911F91BB
:102A10000F91FF90EF90DF90CF90BF90AF9008950F
:102A2000CF93DF93EC018991882319F00E94CE1493
:102A3000FACFDF91CF910895FF920F931F93CF9319
:102A4000DF938C01C8EED3E0F12C0E94CA148D30C4
:102A500029F4F801EF0DF11D108210C08A30C9F37E
:102A6000883021F4FF2011F0FA9405C0F801EF0D31
:102A7000F11D8083F3942197209739F78F2DDF91F3
:102A8000CF911F910F91FF9008957F928F929F9207
:102A9000AF92BF92CF92DF92EF92FF920F931F936C
:102AA000CF93DF93CDB7DEB72A970FB6F894DEBF8A
:102AB0000FBECDBF782ECB01BA01C22E22E072121A
:102AC00016C04C2D2A960FB6F894DEBF0FBECDBFB0
:102AD000DF91CF911F910F91FF90EF90DF90CF90FA
:102AE000BF90AF909F908F907F900C94D2146115FF
:102AF00071058105910549F0FE0131967F018F0135
:102B0000872C912CA12CB12C1DC010E01C15A1F11B
:102B10001A3091F180E30E94CE141F5FF7CF611548
:102B200071058105910599F0D62EA50194010E94A9
:102B30003717CA01B901729ED0181124F801D0824A
:102B40000F5F1F4FD02EDE18DC1448F310C0FAE0E0
:102B5000FC1568F0F8011082F3CFFE01ED0DF11DB8
:102B600080818A3038F0895C0E94CE14DA94D110CA
:102B7000F4CF02C0805DF8CF2A960FB6F894DEBF7E
:102B80000FBECDBFDF91CF911F910F91FF90EF90BE
:102B9000DF90CF90BF90AF909F908F907F900895DF
:102BA0008F929F92AF92BF92CF92DF92EF92FF925D
:102BB0006B017C010E94F4174B015C012FEFAB010C
:102BC000BC018AE00E9445158EE20E94CE14C50128
:102BD000B4010E9420189B01AC01C701B6010E94FC
:102BE0008F1720E034E244E759E40E94AE180E94B7
:102BF000F417AB01BC012FEF8AE0FF90EF90DF905C
:102C0000CF90BF90AF909F908F900C944515CF922E
:102C1000DF92EF92FF920F931F93CF93DF9300D039
:102C200000D01F92CDB7DEB7FE017096E190F19013
:102C30006F01F7018081882309F4F7C0853209F01C
:102C4000ECC087010F5F1F4FF701818190ED980F56
:102C50009A3078F420E090ED980F9A3058F4FAE02A
:102C60002F9F900D1124292F0F5F1F4FF801808196
:102C7000F2CF2FEF883509F48FC0C8F4843409F4FB
:102C80004CC058F4823409F4A1C038F5853209F0FB
:102C9000C7C085E20E94CE14C3C0833509F4B2C018
:102CA000853509F464C0863409F0BAC09FC0863601
:102CB00009F49CC040F4833681F08436B9F0823642
:102CC00009F0AEC076C0853709F447C0883709F4EB
:102CD00059C0833709F0A4C095C07601F2E0EF0E29
:102CE000F11CF60180810E94CE1495C07601F2E0BD
:102CF000EF0EF11CF601C080D180D7FE08C0D19440
:102D0000C194D1088DE22D830E94CE142D81A6019D
:102D1000662757FD6095762F33C07601F4E0EF0EFD
:102D2000F11CF601408151816281738177FF28C0D7
:102D300070956095509541955F4F6F4F7F4F8DE235
:102D40002D8349835A836B837C830E94CE147C81BC
:102D50006B815A8149812D8113C07601F2E0EF0E1B
:102D6000F11CF6014081518160E070E009C07601FC
:102D7000F4E0EF0EF11CF601408151816281738114
:102D80008AE014C07601F2E0EF0EF11CF6014081FA
:102D9000518160E070E009C07601F4E0EF0EF11CB3
:102DA000F601408151816281738180E10E94451565
:102DB00032C07601F2E0EF0EF11CF6016081718104
:102DC0002F3F09F420E180E090E00CC07601F4E0B0
:102DD000EF0EF11CF60160817181828193812F3F9A
:102DE00009F420E2422F0E94D21415C07601F4E0CB
:102DF000EF0EF11CF60160817181828193810E9446
:102E0000D01509C07601F2E0EF0EF11CF6018081C9
:102E100091810E941015670103C00E94CE148701A2
:102E20007801FFEFEF1AFF0A04CF0F900F900F9079
:102E30000F900F90DF91CF911F910F91FF90EF9026
:102E4000DF90CF90089597FB072E16F4009407D0DB
:102E500077FD09D00E94611707FC05D03EF49095DC
:102E600081959F4F0895709561957F4F0895A1E2D8
:102E70001A2EAA1BBB1BFD010DC0AA1FBB1FEE1FF4
:102E8000FF1FA217B307E407F50720F0A21BB30B3F
:102E9000E40BF50B661F771F881F991F1A9469F7BB
:102EA00060957095809590959B01AC01BD01CF0117
:102EB0000895B7FF0C9475170E947517821B930B2A
:102EC0000895AA1BBB1B51E107C0AA1FBB1FA61771
:102ED000B70710F0A61BB70B881F991F5A95A9F7C3
:102EE00080959095BC01CD0108950E948017A59F03
:102EF000900DB49F900DA49F800D911D11240895F5
:102F0000A29FB001B39FC001A39F700D811D11242A
:102F1000911DB29F700D811D1124911D089550586F
:102F2000BB27AA270ED0E0C0D1D030F0D6D020F0F9
:102F300031F49F3F11F41EF4C6C00EF4E095E7FB98
:102F4000BCC0E92FE2D080F3BA1762077307840789
:102F5000950718F071F49EF5FAC00EF4E0950B2E6B
:102F6000BA2FA02D0B01B90190010C01CA01A001DB
:102F70001124FF27591B99F0593F50F4503E68F136
:102F80001A16F040A22F232F342F4427585FF3CF77
:102F9000469537952795A795F0405395C9F77EF448
:102FA0001F16BA0B620B730B840BBAF09150A1F091
:102FB000FF0FBB1F661F771F881FC2F70EC0BA0F17
:102FC000621F731F841F48F4879577956795B7959F
:102FD000F7959E3F08F0B3CF9395880F08F0992797
:102FE000EE0F97958795089598D088F09F5790F0A9
:102FF000B92F9927B751A0F0D1F0660F771F881F1E
:10300000991F1AF0BA95C9F712C0B13081F09FD05C
:10301000B1E008959CC0672F782F8827B85F39F0FA
:10302000B93FCCF3869577956795B395D9F73EF47C
:1030300090958095709561957F4F8F4F9F4F089524
:10304000E89409C097FB3EF4909580957095619542
:103050007F4F8F4F9F4F9923A9F0F92F96E9BB27F8
:103060009395F695879577956795B795F111F8CF74
:10307000FAF4BB0F11F460FF1BC06F5F7F4F8F4FDF
:103080009F4F16C0882311F096E911C0772321F0D5
:103090009EE8872F762F05C0662371F096E8862F6D
:1030A00070E060E02AF09A95660F771F881FDAF7C4
:1030B000880F9695879597F9089597F99F6780E807
:1030C00070E060E008959FEF80EC089500240A947A
:1030D0001616170618060906089500240A941216F3
:1030E0001306140605060895092E0394000C11F426
:1030F000882352F0BB0F40F4BF2B11F460FF04C0D3
:103100006F5F7F4F8F4F9F4F089557FD9058440F2B
:10311000551F59F05F3F71F04795880F97FB991F36
:1031200061F09F3F79F087950895121613061406F3
:10313000551FF2CF4695F1DF08C016161706180680
:10314000991FF1CF86957105610508940895E8945B
:10315000BB2766277727CB0197F908950BD0C4CFFB
:10316000B5DF28F0BADF18F0952309F0A6CFABCF72
:103170001124EECFCADFA0F3959FD1F3950F50E055
:10318000551F629FF001729FBB27F00DB11D639F19
:10319000AA27F00DB11DAA1F649F6627B00DA11DBF
:1031A000661F829F2227B00DA11D621F739FB00D65
:1031B000A11D621F839FA00D611D221F749F3327D5
:1031C000A00D611D231F849F600D211D822F762F6E
:1031D0006A2F11249F5750408AF0E1F088234AF06B
:1031E000EE0FFF1FBB1F661F771F881F91505040B7
:1031F000A9F79E3F510570F060CFAACF5F3FECF377
:10320000983EDCF3869577956795B795F795E795A2
:103210009F5FC1F7FE2B880F911D9695879597F9B3
:063220000895F894FFCFB1
:1032260080C090D0404850586068707810181E1FB3
:103236001F1E181001030F1F1F0F03011B1B1B1B53
:103246001B1B1B1B00000000000000001F11111FAC
:10325600040E1F1F0103071F1F0703010E11111183
:103266001F1B1B1F0004040E1515110E6161313161
:103276000A00626231310A00636331310A00646414
:1032860031310A00616132320A00626232320A006A
:10329600636332320A00646432320A006161333396
:1032A6000A00626233330A00636333330A006464DC
:1032B60033330A00616134340A00626234340A002E
:1032C600636334340A00646434340A00253F0025FD
:1032D600643A257300506C65617365207761697483
:1032E6000057616974696E6720666F72006C61626F
:1032F600656C7300525457210A00696E69746961DE
:103306006C697A6174696F6E00636F6D706C657459
:1033160065640025733A204F4E0025733A204F46C8
:10332600460025733A202564002D002B006F6B00A4
:103336005374616E646279004272696768746E657F
:103346007373004C656420696E666F0044656C613A
:10335600792074696D65004465627567206D6F64D8
:10336600650050616765206E756D62657200255B4C
:1033760000255D0053415645004558495400253CFB
:10338600253E007C00536176696E672E2E2E005313
:10339600617665640043616E63656C6564002A202E
:1033A600466972737420737461727420202A006DEA
:1033B600656D6F727920636F6E6669672E2E2E00BB
:1033C600555342204D6564696100436F6E74726F98
:0C33D6006C6C657200506167653A000085
:00000001FF
