:100000000C942A000C9447000C9447000C94470071
:100010000C9447000C9447000C9447000C94470044
:100020000C9447000C9447000C9447000C94470034
:100030000C9447000C9447000C9447000C94470024
:100040000C9447000C9447000C9447000C94470014
:100050000C94470011241FBECFE5D8E0DEBFCDBF12
:1000600012E0A0E6B0E0EEEBF7E302C005900D92DF
:10007000A637B107D9F722E0A6E7B2E001C01D928A
:10008000A63AB207E1F70E94A80D0C94DD1B0C9470
:100090000000662341F084E690E00E948E0684E62C
:1000A00090E00C94A80688EC90E00C94D80DCF93C7
:1000B000FB01C42FB90181309105F1F4E130F10564
:1000C00019F48CEA90E010C0E230F10519F482EBEB
:1000D00090E00AC0E330F10519F488EB90E004C029
:1000E000349721F48EEB90E00E94200B6C2F84E675
:1000F00090E0CF910C94490082309105B9F4E13041
:10010000F10519F484EC90E0EFCFE230F10519F439
:100110008AEC90E0E9CFE330F10519F480ED90E04E
:10012000E3CF349719F786ED90E0DECF8330910569
:10013000B9F4E130F10519F48CED90E0D5CFE2305F
:10014000F10519F482EE90E0CFCFE330F10519F418
:1001500088EE90E0C9CF349749F68EEE90E0C4CF98
:100160000497C1F4E130F10519F484EF90E0BCCFBD
:10017000E230F10519F48AEF90E0B6CFE330F105F3
:1001800019F480E091E0B0CF349709F0AFCF86E06A
:1001900091E0AACFCF9108958536910538F464E6B1
:1001A00070E0681B790B81E00C94C7060895FC0190
:1001B00020E030E0AF01481B590B6191662329F024
:1001C0006532C1F72F5F3F4FF5CFC901841B950BF7
:1001D00007960895EF92FF920F931F93CF93DF93AB
:1001E0008C01EB010E943D100130110509F044C063
:1001F000DF93CF930BE211E01F930F931F921F9297
:100200001F921F920E942D147E0199E0E90EF11CAD
:10021000C7010E94D700FF92EF921F930F931F9286
:100220001F9209969F938F930E942D14CE014296A0
:100230009F938F931F930F931F92FF24F394FF922A
:100240001F921F920E942D146B96CE010E94D70020
:10025000DF93CF931F930F931F92FF9209969F9363
:100260008F930E942D148DB79EB780960FB6F89489
:100270009EBF0FBE8DBFE3C00230110509F046C01E
:10028000CE0184969F938F930BE211E01F930F93FF
:100290001F921F921F921F920E942D147E019DE2B9
:1002A000E90EF11CC7010E94D700FF92EF921F9345
:1002B0000F931F921F9209969F938F930E942D1464
:1002C000CE01C6969F938F931F930F931F92FF2487
:1002D000F394FF921F921F920E942D14EF96CE016D
:1002E0000E94D700DF93CF931F930F931F92FF922B
:1002F00009969F938F930E942D148DB79EB7809679
:100300000FB6F8949EBF0FBE8DBF99C00330110584
:1003100009F049C0CE01885B9F4F9F938F930BE2FA
:1003200011E01F930F931F921F921F921F920E9422
:100330002D147E0191E5E90EF11CC7010E94D70042
:10034000FF92EF921F930F931F921F9209969F9314
:100350008F930E942D14CE01865A9F4F9F938F93A7
:100360001F930F931F92FF24F394FF921F921F92EB
:100370000E942D14CD59DF4FCE010E94D700DF938C
:10038000CF931F930F931F92FF9209969F938F9382
:100390000E942D148DB79EB780960FB6F8949EBF1D
:1003A0000FBE8DBF4CC00430110509F048C0CE010E
:1003B00084599F4F9F938F930BE211E01F930F93EC
:1003C0001F921F921F921F920E942D147E0195E78B
:1003D000E90EF11CC7010E94D700FF92EF921F9314
:1003E0000F931F921F9209969F938F930E942D1433
:1003F000CE0182589F4F9F938F931F930F931F920D
:10040000FF24F394FF921F921F920E942D14C9574C
:10041000DF4FCE010E94D700DF93CF931F930F933E
:100420001F92FF9209969F938F930E942D148DB770
:100430009EB780960FB6F8949EBF0FBE8DBFDF911A
:10044000CF911F910F91FF90EF900895DF92EF925F
:10045000FF920F931F93CF93DF937C01C0E0D0E016
:100460000CE011E0DD24D394CE15DF0584F41F9356
:100470000F931F92DF92DF93CF930E942D1421964A
:100480000F900F900F900F900F900F90EDCFDF9186
:10049000CF911F910F91FF90EF90DF900895DF9221
:1004A000EF92FF920F931F93CF93DF93D82EEB0120
:1004B0008A010E943D108FE091E09F938F931F92DD
:1004C0001F921F9283E08F930E942D148BE191E085
:1004D0009F938F931F9281E08F931F9285E08F935C
:1004E0000E942D1484EF91E00E94A80664E681E04A
:1004F0000E94C70682E291E09F938F930E94D318D7
:10050000CE010E94E817F801858196810E94CC00F7
:100510000E943D1060E080E00E94AE108DB79EB753
:100520000E960FB6F8949EBF0FBE8DBFF801808562
:100530008823A9F0DF93CF9388E291E09F938F9374
:100540001F921F921F921F920E942D148DB79EB76B
:1005500008960FB6F8949EBF0FBE8DBF10C08EE2F6
:1005600091E09F938F931F921F921F921F920E9460
:100570002D140F900F900F900F900F900F9081E01F
:1005800090E00E9426027E0199E0E90EF11CC7016D
:100590000E94E8170E943D1060E080E00E94AE10CB
:1005A000F80180858823A9F0FF92EF928AE391E019
:1005B0009F938F931F921F921F921F920E942D1440
:1005C0008DB79EB708960FB6F8949EBF0FBE8DBF2D
:1005D00010C08EE291E09F938F931F921F921F9203
:1005E0001F920E942D140F900F900F900F900F905C
:1005F0000F9082E090E00E9426027E0192E1E90ED7
:10060000F11CC7010E94E8170E943D1060E080E0E5
:100610000E94AE10F80180858823A9F0FF92EF9226
:1006200080E491E09F938F931F921F921F921F92DD
:100630000E942D148DB79EB708960FB6F8949EBFF2
:100640000FBE8DBF10C08EE291E09F938F931F92DB
:100650001F921F921F920E942D140F900F900F90C7
:100660000F900F900F9083E090E00E9426027E0191
:100670009BE1E90EF11CC7010E94E8170E943D10A2
:1006800060E080E00E94AE10F80180858823A9F028
:10069000FF92EF9286E491E09F938F931F921F92B7
:1006A0001F921F920E942D148DB79EB708960FB609
:1006B000F8949EBF0FBE8DBF10C08EE291E09F9355
:1006C0008F931F921F921F921F920E942D140F90C2
:1006D0000F900F900F900F900F9084E090E00E9489
:1006E00026027E0194E2E90EF11CC7010E94E81780
:1006F0000E943D1060E080E00E94AE10F80180850D
:100700008823A9F0FF92EF928CE491E09F938F935E
:100710001F921F921F921F920E942D148DB79EB799
:1007200008960FB6F8949EBF0FBE8DBF10C08EE224
:1007300091E09F938F931F921F921F921F920E948E
:100740002D140F900F900F900F900F900F9085E049
:1007500090E00E9426027E019DE2E90EF11CC70195
:100760000E94E8170E943D1060E080E00E94AE10F9
:10077000F80180858823A9F0FF92EF9282E591E04D
:100780009F938F931F921F921F921F920E942D146E
:100790008DB79EB708960FB6F8949EBF0FBE8DBF5B
:1007A00010C08EE291E09F938F931F921F921F9231
:1007B0001F920E942D140F900F900F900F900F908A
:1007C0000F9086E090E00E9426027E0196E3E90EFB
:1007D000F11CC7010E94E8170E943D1060E080E014
:1007E0000E94AE10F80180858823A9F0FF92EF9255
:1007F00088E591E09F938F931F921F921F921F9203
:100800000E942D148DB79EB708960FB6F8949EBF20
:100810000FBE8DBF10C08EE291E09F938F931F9209
:100820001F921F921F920E942D140F900F900F90F5
:100830000F900F900F9087E090E00E9426027E01BB
:100840009FE3E90EF11CC7010E94E8170E943D10CA
:1008500060E080E00E94AE10F80180858823A9F056
:10086000FF92EF928EE591E09F938F931F921F92DC
:100870001F921F920E942D148DB79EB708960FB637
:10088000F8949EBF0FBE8DBF10C08EE291E09F9383
:100890008F931F921F921F921F920E942D140F90F0
:1008A0000F900F900F900F900F9088E090E00E94B3
:1008B00026027E0198E4E90EF11CC7010E94E817A8
:1008C0000E943D1060E080E00E94AE10F80180853B
:1008D0008823A9F0FF92EF9284E691E09F938F9393
:1008E0001F921F921F921F920E942D148DB79EB7C8
:1008F00008960FB6F8949EBF0FBE8DBF10C08EE253
:1009000091E09F938F931F921F921F921F920E94BC
:100910002D140F900F900F900F900F900F9089E073
:1009200090E00E9426027E0191E5E90EF11CC701CC
:100930000E94E8170E943D1060E080E00E94AE1027
:10094000F80180858823A9F0FF92EF928AE691E072
:100950009F938F931F921F921F921F920E942D149C
:100960008DB79EB708960FB6F8949EBF0FBE8DBF89
:1009700010C08EE291E09F938F931F921F921F925F
:100980001F920E942D140F900F900F900F900F90B8
:100990000F908AE090E00E9426027E019AE5E90E1F
:1009A000F11CC7010E94E8170E943D1060E080E042
:1009B0000E94AE10F80180858823A9F0FF92EF9283
:1009C00080E791E09F938F931F921F921F921F9237
:1009D0000E942D148DB79EB708960FB6F8949EBF4F
:1009E0000FBE8DBF10C08EE291E09F938F931F9238
:1009F0001F921F921F920E942D140F900F900F9024
:100A00000F900F900F908BE090E00E9426027E01E5
:100A100093E6E90EF11CC7010E94E8170E943D1001
:100A200060E080E00E94AE10F80180858823A9F084
:100A3000FF92EF9286E791E09F938F931F921F9210
:100A40001F921F920E942D148DB79EB708960FB665
:100A5000F8949EBF0FBE8DBF10C08EE291E09F93B1
:100A60008F931F921F921F921F920E942D140F901E
:100A70000F900F900F900F900F908CE090E00E94DD
:100A800026027E019CE6E90EF11CC7010E94E817D0
:100A90000E943D1060E080E00E94AE10F801808569
:100AA0008823A9F0FF92EF928CE791E09F938F93B8
:100AB0001F921F921F921F920E942D148DB79EB7F6
:100AC00008960FB6F8949EBF0FBE8DBF10C08EE281
:100AD00091E09F938F931F921F921F921F920E94EB
:100AE0002D140F900F900F900F900F900F908DE09E
:100AF00090E00E9426027E0195E7E90EF11CC701F5
:100B00000E94E8170E943D1060E080E00E94AE1055
:100B1000F80180858823A9F0FF92EF9282E891E0A6
:100B20009F938F931F921F921F921F920E942D14CA
:100B30008DB79EB708960FB6F8949EBF0FBE8DBFB7
:100B400010C08EE291E09F938F931F921F921F928D
:100B50001F920E942D140F900F900F900F900F90E6
:100B60000F908EE090E00E9426027E019EE7E90E43
:100B7000F11CC7010E94E8170E943D1060E080E070
:100B80000E94AE10F80180858823A9F0FF92EF92B1
:100B900088E891E09F938F931F921F921F921F925C
:100BA0000E942D148DB79EB708960FB6F8949EBF7D
:100BB0000FBE8DBF10C08EE291E09F938F931F9266
:100BC0001F921F921F920E942D140F900F900F9052
:100BD0000F900F900F908FE090E00E942602C9576F
:100BE000DF4FCE010E94E8170E943D1060E080E0D8
:100BF0000E94AE10F80180858823A9F0DF93CF937F
:100C00008EE891E09F938F931F921F921F921F92E5
:100C10000E942D148DB79EB708960FB6F8949EBF0C
:100C20000FBE8DBF10C08EE291E09F938F931F92F5
:100C30001F921F921F920E942D140F900F900F90E1
:100C40000F900F900F9080E190E00E9426029FEF9E
:100C5000E9E6F8E19150E040F040E1F700C0000023
:100C60000E943D1084E991E09F938F931F921F9201
:100C70001F921F920E942D1483EA91E09F938F93FD
:100C80001F9281E08F931F921F920E942D148DB7A7
:100C90009EB70C960FB6F8949EBF0FBE8DBFDD2099
:100CA00029F18DE790E00E94A8068DE790E00E9470
:100CB0008E068DE790E00E94A8068DE790E00E94E6
:100CC0008E068DE790E00E94A8068DE790E00E94D6
:100CD0008E068DE790E00E94A8068DE790E00E94C6
:100CE0008E0688EC90E00E94A80604C080EB94E099
:100CF0000E94D80DDF91CF911F910F91FF90EF903F
:100D0000DF900C943D108536910538F464E670E070
:100D1000681B790B82E00C94C70608950F931F930C
:100D2000CF93DF9364E670E00E94EF198B01C0E07F
:100D3000D0E0CE010E948306C8010E94D80D219602
:100D4000C436D105B1F7DF91CF911F910F9108956E
:100D50000F931F93CF93DF9364E670E00E94EF1927
:100D60008B01C4E6D0E0CE010E948306C8010E9438
:100D7000D80D21972097B9F7DF91CF911F910F914F
:100D800008950C94830681B3806381BB0895CF934B
:100D9000C82F70E080E090E00E94EE1A23E333E376
:100DA00043E250E40E947A1B0E94C01AC13031F025
:100DB000C23039F470E079BD68BD03C070E07BBD1E
:100DC0006ABDCF9108958FB581608FBD8EB5886063
:100DD0008EBD8FB5806A8FBD8EB583608EBD1BBC06
:100DE0001ABC19BC18BC08951F93CF93DF9300D091
:100DF0001F92CDB7DEB76A837B8389830E943D1043
:100E000089816A817B81882329F07F936F938DEAA2
:100E100091E004C07F936F9384EB91E09F938F9355
:100E20001F921F921F921F920E942D140FB6F894CA
:100E3000DEBF0FBECDBF88EB91E09F938F931F92D3
:100E400011E01F931F921F920E942D1481EB91E0DD
:100E50009F938F931F921F931F928EE08F930E94F8
:100E60002D140FB6F894DEBF0FBECDBF0F900F90BC
:100E70000F90DF91CF911F9108951F93CF93DF9330
:100E800000D000D0CDB7DEB76B837C8389839A8393
:100E90000E943D109A819F9389818F937C817F93DB
:100EA0006B816F938CEB91E09F938F931F921F92B6
:100EB0001F921F920E942D1483EC91E09F938F93B9
:100EC0001F9211E01F931F921F920E942D1485EC18
:100ED00091E09F938F931F921F931F928FE08F93A8
:100EE0000E942D140FB6F894DEBF0FBECDBF0F9039
:100EF0000F900F900F90DF91CF911F910895EF9277
:100F0000FF921F93CF93DF9300D0CDB7DEB78983D5
:100F10009A830E943D109A819F9389818F938BE2DF
:100F200091E09F938F931F921F921F921F920E9496
:100F30002D1487ECE82E81E0F82EFF92EF921F929D
:100F400011E01F931F921F920E942D14FF92EF92A7
:100F50001F921F931F928EE08F930E942D140FB645
:100F6000F894DEBF0FBECDBF0F900F90DF91CF91F1
:100F70001F91FF90EF9008954F925F926F927F9232
:100F80009F92AF92BF92CF92DF92EF92FF920F9318
:100F90001F93CF93DF93EC018B01412C512C320135
:100FA00034E6E32EF12C992493944AEFC42ED12CED
:100FB00052E3A52EB12CF80180819181019709F0AF
:100FC00046C0F8E84F16F3E15F066104710434F49B
:100FD0008FEF481A580A680A780A07C08AEC91E02D
:100FE0000E947F07412C512C3201B19B48C1B09B1C
:100FF000A9C0B29B8AC1B39B8DC1B49B02C0B599F5
:1010000026C080E090E00E94A8060E943D1080E08B
:1010100090E00E94CC0088EE93E00E94D80DB29B35
:101020000AC0B39B08C0B49B06C0B59B04C0B19B6B
:1010300002C0B099F4CF84EF91E00E94D80D8D8169
:101040009E810E94CC008AEC91E00E947F07F8010B
:1010500080819181029709F059C0F8E84F16F3E1B9
:101060005F066104710434F48FEF481A580A680A65
:10107000780A09C062ED71E08D819E810E943D0772
:10108000412C512C3201B19B3BC1B09B9AC0B29B09
:101090003CC1B39B3FC1B4991BC08D819E81181682
:1010A0001906B4F40A9797FD03C09E838D8302C08E
:1010B0001E821D828D819E810E94CC0062ED71E0B6
:1010C0008D819E810E943D0788EC90E00E94D80DA2
:1010D000B5991CC08D819E8184369105BCF40A9619
:1010E000853691051CF49E838D8302C0FE82ED82BD
:1010F0008D819E810E94CC0062ED71E08D819E8188
:101100000E943D0788EC90E00E94D80DF801808194
:1011100091810397C1F5F8E84F16F3E15F0661048A
:10112000710434F48FEF481A580A680A780A08C024
:101130006DED71E08F810E94F406412C512C32013B
:10114000B19903C082E090E0E7C0B09B93C0B29B2E
:10115000DCC0B39BDFC0B4990AC01F826DED71E0A3
:1011600080E00E94F40688EC90E00E94D80DB599CA
:101170000AC09F826DED71E081E00E94F40688EC68
:1011800090E00E94D80DF80180819181049709F0C8
:1011900055C0F8E84F16F3E15F066104710434F4BA
:1011A0008FEF481A580A680A780A09C066EE71E09B
:1011B00089859A850E943D07412C512C3201B199B5
:1011C00003C083E090E0A8C0B09B95C0B29B9DC0D7
:1011D000B39BA0C0B49918C089859A8583339105C3
:1011E0009CF04997823391051CF09A87898702C049
:1011F000BA86A98666EE71E089859A850E943D07C8
:1012000088EC90E00E94D80DB59918C089859A8520
:101210008A3F91059CF449968B3F91051CF49A876F
:10122000898702C0DA86C98666EE71E089859A856B
:101230000E943D0788EC90E00E94D80DF801808163
:1012400091810597D9F5F8E84F16F3E15F0661043F
:10125000710434F48FEF481A580A680A780A08C0F3
:1012600061EF71E088850E94F406412C512C320117
:10127000B19903C084E090E04FC0B09903C086E00C
:1012800090E04AC0B29B41C0B39B44C0B4990AC02D
:10129000188661EF71E080E00E94F40688EC90E02F
:1012A0000E94D80DB5990AC0988661EF71E081E07F
:1012B0000E94F40688EC90E00E94D80DF80180812D
:1012C0009181069709F077CEF8E84F16F3E15F06B3
:1012D0006104710434F48FEF481A580A680A780AD6
:1012E00008C06CEF71E08B850E94F406412C512CF4
:1012F0003201B19903C085E090E00EC0B09903C0FF
:1013000081E090E009C0B29903C086E990E004C092
:10131000B3991CC086EF9FEFF80191838083898584
:101320009A85880F991F880F991FDF91CF911F9180
:101330000F91FF90EF90DF90CF90BF90AF909F9074
:101340007F906F905F904F900C94D80DB4990AC025
:101350001B866CEF71E080E00E94F40688EC90E060
:101360000E94D80DB59927CE9B866CEF71E081E085
:101370000E94F40688EC90E00E94D80D1CCEBF922B
:10138000CF92DF92EF92FF920F931F93CF93DF9351
:10139000CDB7DEB72E970FB6F894DEBF0FBECDBF28
:1013A0008C01FC01858196819F838E838185928546
:1013B0009B878A87878188878085898783858C87B3
:1013C00081E090E09E878D870E943D1068E0C62EE8
:1013D00062E0D62EDF92CF921F921F921F921F9231
:1013E0000E942D147BE0E72E72E0F72EFF92EF9221
:1013F0001F921F921F92EFE0BE2EBF920E942D14EB
:10140000DF92CF921F92DD24D394DF921F921F921E
:101410000E942D14FF92EF921F92DF921F92BF92B3
:101420000E942D148EE092E09F938F931F921F9243
:101430001F92F3E0CF2ECF920E942D1483E192E011
:101440009F938F931F921F921F9289E08F930E9408
:101450002D140FB6F894DEBF0FBECDBFA8E1EA2E63
:10146000A2E0FA2EFF92EF921F92DF921F92CF928C
:101470000E942D14FF92EF921F92DF921F928BE039
:101480008F930E942D14BDE1EB2EB2E0FB2EFF9254
:10149000EF921F921F921F9282E0C82ECF920E945D
:1014A0002D14FF92EF921F92DF921F92CF920E9413
:1014B0002D14FF92EF921F921F921F929DE0C92E52
:1014C000CF920E942D14FF92EF921F92DF921F92F3
:1014D000CF920E942D140FB6F894DEBF0FBECDBF81
:1014E00080ED97E00E94D80D0E943D108D859E856D
:1014F0009C01215031092630310540F4BE01635F63
:101500007F4FCE0101960E94BC07F0CF8536910532
:101510000CF465C00E943D108FE192E09F938F9381
:101520001F921F921F921F920E942D146E818F8115
:10153000F801658386838A859B8592878187888564
:101540008783898580878C858387808190E00E944E
:10155000E30D88EC90E00E94D80DF801818167814D
:1015600090E00E94E30D88EC90E00E94D80DF80115
:101570008281618590E00E94E30D88EC90E00E94FA
:10158000D80DF8018381608590E00E94E30D88EC1E
:1015900090E00E94D80DF8018481638590E00E945C
:1015A000E30D88EC90E00E94D80D0E943D1060E0B1
:1015B00080E00E94AE1089E292E09F938F931F9289
:1015C0001F921F921F920E942D1488EE93E00E949A
:1015D000D80D0FB6F894DEBF0FBECDBF21C097FF68
:1015E00085CFF801858196810E94CC000E943D1034
:1015F00060E080E00E94AE108FE292E09F938F93B4
:101600001F921F921F921F920E942D1488EE93E04A
:101610000E94D80D0F900F900F900F900F900F9089
:101620002E960FB6F894DEBF0FBECDBFDF91CF91DF
:101630001F910F91FF90EF90DF90CF90BF90089592
:10164000CF93DF93EB019F938F930E94D3180F905A
:101650000F90CE01DF91CF910C94D80D4F925F92F5
:101660006F927F928F92AF92CF92EF920F931F93D0
:10167000CF93DF93EC013B012A0160E875E280E043
:1016800090E00E948F1786E08F9385E08F9384E02F
:10169000882E93E0A92ECC24CA94EE24EA940FEF6E
:1016A0002FEF42E061E080E00E94A30F60E182E062
:1016B0000E94531017BA8FEF88BB0E94C3060E9486
:1016C000E30680E090E00E94A80681E090E00E949E
:1016D000EB0D0F900F90811144C082E0888382E36C
:1016E00090E09E838D8382E090E00E94EB0D90E07D
:1016F0009E838D8364E681E00E94C70683E0898330
:1017000081E08F8383E090E00E94EB0D91E08111F6
:1017100001C090E09F8384E08A8384E690E09A870A
:10172000898784E090E00E94EB0D90E09A8789879A
:1017300085E08B83188685E090E00E94EB0D91E0B8
:10174000811101C090E0988786E08C831B8686E03B
:1017500090E00E94EB0D91E0811101C090E09B8729
:1017600060C00E943D1088E392E09F938F931F9288
:101770001F921F921F920E942D1489E492E09F9362
:101780008F931F9211E01F931F921F920E942D149E
:101790001B8682E390E09E838D831F8384E690E026
:1017A0009A878987188660E081E090E00E94E30DC7
:1017B00088816D8190E00E94E30D88EC90E00E94AA
:1017C000D80D89816F8190E00E94E30D88EC90E054
:1017D0000E94D80D8A81698590E00E94E30D88EC13
:1017E00090E00E94D80D8B81688590E00E94E30D07
:1017F00088EC90E00E94D80D8C816B8590E00E946F
:10180000E30D88EC90E00E94D80D88EC90E00E94F7
:10181000D80D8DB79EB70C960FB6F8949EBF0FBE2D
:101820008DBF0E9417138CE00E9414108F818823B3
:1018300029F088EE93E00E948E0604C088EE93E0C3
:101840000E94D80D0E943D108AE592E09F938F93ED
:101850001F921F921F9213E01F930E942D1484E683
:1018600092E09F938F931F9281E08F931F921F931B
:101870000E942D14EDB7FEB73C960FB6F894FEBF4C
:101880000FBEEDBF00E010E08D819E8108171907A3
:1018900054F4C8010E94CC0084E190E00E94D80D6D
:1018A0000F5F1F4FF1CF88EC90E00E94D80D0E948F
:1018B0003D1081E090E0F301918380838F81882344
:1018C00029F084E690E00E94A80604C084E690E037
:1018D0000E94D80D8F81882329F084E690E00E9431
:1018E0008E0604C084E690E00E94D80DAE01B201DD
:1018F0008F810E944F02B201F301808191810E9489
:10190000EA00C09A8D819E81DF91CF911F910F9146
:10191000EF90CF90AF908F907F906F905F904F90AF
:101920000C94CC00CF93DF9300D000D0CDB7DEB7BE
:10193000442381F169837A838B839C830E943D10C9
:101940002FE632E03F932F931F921F921F9225E0C4
:101950002F930E942D147A817F9369816F9320ECDD
:1019600031E03F932F931F9221E02F931F9227E0A6
:101970002F930E942D140FB6F894DEBF0FBECDBF7B
:101980008B819C810F900F900F900F90DF91CF91E2
:101990000C94D80D0F900F900F900F90DF91CF9176
:1019A00008958C01EB015A01412C512C3201C12CBC
:1019B000D12C68ECE62EF12C88248394912CB19BD9
:1019C00002C0B09952C0B09916C08881998104971D
:1019D00094F4F8018781882329F084E690E00E943E
:1019E0008E0604C084E690E00E94D80D688179815B
:1019F0006F5F7F4F17C0B19938C088819981029776
:101A0000A4F1F8018781882329F084E690E00E9400
:101A10008E0604C084E690E00E94D80D688179812A
:101A20006150710979836883F801438584EF91E0FF
:101A30000E94920CB501888199810E94EA00F80108
:101A40008781882329F084E690E00E94A80604C0DC
:101A500084E690E00E94D80DF80181859285880F78
:101A6000991F880F991F0E94D80D86B3837051F477
:101A7000C8010E94BF0999828882B50181E090E087
:101A80000E94EA00B29B06C0B39B04C0B49B02C094
:101A9000B5993BC0B29908C0688179819701F80176
:101AA000478181E090E01DC0B39908C068817981C9
:101AB0009701F801478182E090E013C0B49908C013
:101AC000688179819701F801478183E090E009C03E
:101AD000B59909C0688179819701F801478184E04F
:101AE00090E00E945700FFEFCF1ADF0A83E0C8168C
:101AF000D10489F0E5E0CE16D10489F0F8E0CF16E4
:101B0000D10481F4E12CF12C0DC0C12CD12C48EC76
:101B1000E42EF12C07C036E9E32EF12C03C024E6B5
:101B2000E22EF12C80E1481687E258066104710428
:101B300034F4EFEF4E1A5E0A6E0A7E0A40CFB5010A
:101B4000888199810E94EA00412C512C320137CFC3
:101B5000CF93DF93CDB7DEB7C25CD1090FB6F8944F
:101B6000DEBF0FBECDBFCF53DF4F19821882C15CDD
:101B7000D040AE014F5F5F4FBE016F537F4FCE012C
:101B80008B549F4F0E942E0BAE014F5F5F4FBE01E3
:101B90006F537F4FCE018B549F4F0E94D10C009703
:101BA00031F025E02A95F1F700000197F8CF08956C
:101BB000009741F0EFE9FFE03197F1F700C0000036
:101BC0000197F6CF0895E199FECF9FBB8EBB6DBB09
:101BD000E29AE19A0895E199FECF9FBB8EBBE09A0D
:101BE0008DB308950F931F93CF93DF93EB018C0177
:101BF000061B170BCE01800F911F69910E94E30D08
:101C0000FE01319780818111F5CFDF91CF911F9136
:101C10000F9108950F931F93CF93DF93EB018C01E6
:101C2000061B170BCE01800F911F0E94EB0D8993AD
:101C30008111F8CFDF91CF911F910F910895282F37
:101C400027708695869586958130B9F028F0823088
:101C500029F18330A1F108953AB381E090E0022E9A
:101C600001C0880F0A94EAF7662319F0382B3ABBB3
:101C70000895809583238ABB089537B381E090E06F
:101C8000022E01C0880F0A94EAF7662319F0382B58
:101C900037BB08958095832387BB089534B381E0D3
:101CA00090E0022E01C0880F0A94EAF7662319F02B
:101CB000382B34BB08958095832384BB089531B3BA
:101CC00081E090E0022E01C0880F0A94EAF76623B3
:101CD00019F0382B31BB08958095832381BB08957B
:101CE000282F27708695869586958130B9F028F043
:101CF000823029F18330A1F108953BB381E090E077
:101D0000022E01C0880F0A94EAF7662319F0382BD7
:101D10003BBB0895809583238BBB089538B381E046
:101D200090E0022E01C0880F0A94EAF7662319F0AA
:101D3000382B38BB08958095832388BB089535B32D
:101D400081E090E0022E01C0880F0A94EAF7662332
:101D500019F0382B35BB08958095832385BB0895F2
:101D600032B381E090E0022E01C0880F0A94EAF7B6
:101D7000662319F0382B32BB08958095832382BBEC
:101D80000895282F2770869586958695813049F08D
:101D900030F0823041F0833079F480B305C089B3EC
:101DA00003C086B301C083B390E002C095958795C8
:101DB0002A95E2F78170089580E00895CF93C82FA7
:101DC00084FB662760F98091A0020E94700EC5FB1B
:101DD000662760F98091A1020E94700EC6FB6627FB
:101DE00060F98091A2020E94700E6C2F661F662718
:101DF000661F8091A302CF910C94700ECF93DF9356
:101E000060E0809199020E94700E60E080919A02D9
:101E10000E94700ECBE9D2E061E088810E94700ED2
:101E20008AE090E00E94CF0D60E08881DF91CF9141
:101E30000C94700ECF93C82F682F617080919C0214
:101E40000E94700EC1FB662760F980919D020E947E
:101E5000700EC2FB662760F980919E020E94700E90
:101E6000C3FB662760F980919F02CF910C94700E9E
:101E7000CF93DF9361E0809199020E94700E60E041
:101E800080919A020E94700ECBE9D2E061E08881D5
:101E90000E94700E8AE090E00E94CF0D60E0888181
:101EA000DF91CF910C94700ECF9380919A028F3F67
:101EB00009F444C060E08091A3020E941F0E60E01C
:101EC000809199020E94700E61E080919A020E94B6
:101ED000700E60E080919B020E94700E8AE090E09C
:101EE0000E94CF0D61E080919B020E94700E8AE0FB
:101EF00090E00E94CF0D8091A3020E94C10EC82FD6
:101F000080919802843091F460E080919B020E945D
:101F1000700E8AE090E00E94CF0D61E080919B02FC
:101F20000E94700E8AE090E00E94CF0DC111D1CFC7
:101F300061E08091A302CF910C941F0E81E090E0AC
:101F4000CF910C94D80D8F929F92AF92BF92CF9267
:101F5000DF92EF92FF920F931F93CF93DF93CDB752
:101F6000DEB7D82E162FF42E9F84B888809399025E
:101F700060939A0240939B0220939C0200939D02DF
:101F8000E0929E02C0929F02A092A0028092A102C3
:101F90009092A202B092A3022F3F39F00F3F29F096
:101FA0008FEFE81611F0C81204C084E08093980205
:101FB00013C088E08093980261E0822F0E941F0E78
:101FC00061E0802F0E941F0E61E08E2D0E941F0E87
:101FD00061E08C2D0E941F0E61E08D2D0E941F0E6E
:101FE00061E0812F0E941F0E61E08F2D0E941F0E65
:101FF00061E08A2D0E941F0E61E0882D0E941F0E55
:1020000061E0892D0E941F0E61E08B2DDF91CF9141
:102010001F910F91FF90EF90DF90CF90BF90AF9006
:102020009F908F900C941F0ECF93C82F0E94540F37
:1020300080919802883021F48C2F0E941A0F07C0DB
:102040008C2F0E94DE0E0E94FE0EC295C07F8C2F48
:102050000E94DE0ECF910C94FE0E9091960289178D
:1020600058F41092A4028093A502E82FF0E0E05A01
:10207000FF4F80810C9414100895E6E7F2E080E2AF
:10208000819392E0E638F907D9F7E6E8F2E080E2DA
:10209000819392E0E639F907D9F781E00E941410A4
:1020A00080E00C942D106093970280939602833009
:1020B00040F06F7080E9860F8093620060536093F8
:1020C000630084E690E00E94D80D809198028830E9
:1020D00011F488E327C0843039F580E30E94DE0ED6
:1020E0000E94FE0E84E690E00E94D80D80E30E94DC
:1020F000DE0E0E94FE0E88EC90E00E94CF0D80E381
:102100000E94DE0E0E94FE0E88EC90E00E94CF0D31
:1021100080E20E94DE0E0E94FE0E88EC90E00E949B
:10212000CF0D88E20E9414108EE00E9414100C94CF
:102130003D108091A5028F5F8093A5021092A402AA
:1021400090919602891710F01092A502E091A502D5
:10215000F0E0E05AFF4F80810C94141090919602A9
:10216000891780F490919702691760F46093A40234
:102170008093A502E82FF0E0E05AFF4F8081860FA0
:102180000C9414100895CF93C82F9091A4028091BD
:102190009702981760F4CA3051F00E94540F809152
:1021A0009802883049F48C2F0E941A0F0CC00E94AC
:1021B0009910CA3091F0F1CF8C2F0E94DE0E0E9450
:1021C000380FC295C07F8C2F0E94DE0E0E94380F00
:1021D0008091A4028F5F8093A402CF910895AF9263
:1021E000BF92CF92DF92EF92FF920F931F93CF9304
:1021F000DF931F92CDB7DEB76B017C01AA24A394B5
:10220000B12C4423F1F00FEF040FC50102C0880F79
:10221000991F0A95E2F78C01222717FD2095322F8E
:102220000C211D212E213F2181E0012B022B032BAC
:1022300009F480E0805D49830E94C31049814150C8
:10224000E0CF0F90DF91CF911F910F91FF90EF9012
:10225000DF90CF90BF90AF900895CF93DF93EC01C4
:102260008991882319F00E94C310FACFDF91CF9192
:102270000895DF92EF92FF920F931F93CF93DF9316
:10228000D82E8B0180919602D81608F0D12C8CE0C4
:102290000E941410E12CE801CE0DD11D8881882305
:1022A00009F18D2D0E942D10F12C80919702F816C6
:1022B00050F4FE01EF0DF11D8081882321F00E9472
:1022C000C310F394F2CF80919702F81628F480E2BD
:1022D0000E94C310F394F7CF88EC90E00E94D80DD1
:1022E000E394D9CF8EE0DF91CF911F910F91FF90B2
:1022F000EF90DF900C9414107F928F929F92AF9288
:10230000BF92CF92DF92EF92FF920F931F93CF93E2
:10231000DF93CDB7DEB72A970FB6F894DEBF0FBEB6
:10232000CDBF782ECB01BA01C22E22E0721216C0A8
:102330004C2D2A960FB6F894DEBF0FBECDBFDF91AD
:10234000CF911F910F91FF90EF90DF90CF90BF90B2
:10235000AF909F908F907F900C94EF106115710556
:102360008105910549F0FE0131967F018F01872C8F
:10237000912CA12CB12C29C080E32A960FB6F89499
:10238000DEBF0FBECDBFDF91CF911F910F91FF90A8
:10239000EF90DF90CF90BF90AF909F908F907F9005
:1023A0000C94C310611571058105910599F0D62E25
:1023B000A50194010E94031ACA01B901729ED018A6
:1023C0001124F801D0820F5F1F4FD02EDE18DC14CD
:1023D00048F310C0FAE0FC1568F0F8011082F3CF62
:1023E000FE01ED0DF11D80818A3038F0895C0E947C
:1023F000C310DA94D110F4CF02C0805DF8CF2A96D2
:102400000FB6F894DEBF0FBECDBFDF91CF911F9105
:102410000F91FF90EF90DF90CF90BF90AF909F9083
:102420008F907F9008952F923F925F926F927F924C
:102430008F929F92AF92BF92CF92DF92EF92FF92D4
:102440000F931F93CF93DF93CDB7DEB72E970FB6C1
:10245000F894DEBF0FBECDBF682E722E470122E07A
:10246000821341C0EE24E394F12CA4E0880C991C63
:10247000AA95E1F7772009F4A9C08FEF870DD7015E
:1024800002C0AA0FBB1F8A95E2F7CD01AA2797FDCC
:10249000A095BA2F84239523A623B72321E0892B67
:1024A0008A2B8B2B09F420E0E0E3DE2ED20E8D2D5B
:1024B0004B875C876D877E870E94C310D801ED91A2
:1024C000FC911197E80DF91DEA58FD4FD0828D91CE
:1024D0009C91119701968D939C937A947E856D853E
:1024E0005C854B85C7CF411551056105710509F420
:1024F00054C0FE0131961F015F01C82ED12CE12C82
:10250000F12C5A2C52185714B8F441155105610595
:10251000710579F0542ECB01BA01A70196010E94F2
:10252000031ABA01A901649E50181124D5015C92C6
:102530000BC0BAE0B71530F434E0880C991C3A951A
:10254000E1F724C0F5011082FFEFAF1ABF0AD9CF1F
:10255000FE01E50DF11D90819A30D8F087E3890FD7
:102560009B870E94C310D801ED91FC919B859A3006
:1025700090F0995CE80DF91DEA58FD4F9083F80141
:10258000808191810196918380835A945110E0CF8C
:102590001DC080E3E4CF905DEDCF80E30E94C310C7
:1025A000D8018D919C911197F70124E0EE0FFF1F48
:1025B0002A95E1F7E80FF91FEA58FD4F80E3808381
:1025C0008D919C91119701968D939C932E960FB6A9
:1025D000F894DEBF0FBECDBFDF91CF911F910F9159
:1025E000FF90EF90DF90CF90BF90AF909F908F9033
:1025F0007F906F905F903F902F900895CF93C82F5A
:102600000E94540F80919802883021F48C2F0E94F0
:102610001A0F07C08C2F0E94DE0E0E94380FC29541
:10262000C07F8C2F0E94DE0ECF910C94380FAF929A
:10263000BF92CF92DF92EF92FF920F931F93CF93AF
:10264000DF93CDB7DEB7C854D1090FB6F894DEBF1B
:102650000FBECDBF88E0E4E6F0E0DE01AF5BBF4F28
:1026600001900D928A95E1F780E4ECE6F0E0DE015E
:10267000119601900D928A95E1F78E010F5B1F4F25
:10268000CE0101966C01580198E0A90EB11CF80129
:1026900081918F010E941410E12CF12CF601EE0DB6
:1026A000FF1D80810E94FE12FFEFEF1AFF0A88E0F3
:1026B000E816F10499F798E0C90ED11C0A151B051C
:1026C00031F7C85BDF4F0FB6F894DEBF0FBECDBF4A
:1026D000DF91CF911F910F91FF90EF90DF90CF90FE
:1026E000BF90AF9008958130910511F480E021C032
:1026F0008230910511F481E01CC08330910511F402
:1027000082E017C08430910511F483E012C0853057
:10271000910511F484E00DC08630910511F485E037
:1027200008C08730910511F486E003C0089719F4BA
:1027300087E00C94FE1208958FEF0C94FE128FE741
:102740000C94FE128EE70C94FE1285EA0C94FE1295
:10275000DF92EF92FF920F931F93CF93DF93FC01D1
:10276000EB018A01B4E0000F111FBA95E1F7D080A8
:10277000DD2009F46AC085E27F01D81252C082E0F0
:10278000E80EF11CD1808EE3D816B1F18D15C8F09A
:102790008EE2D81609F442C08D1540F085E2D816B5
:1027A00049F18CE2D8124FC085E029C08BE3D816DE
:1027B00069F18CE3D81611F18AE3D81244C086E09F
:1027C0001EC08DE5D81639F18D1548F08FE3D81667
:1027D000F9F08BE5D81237C00E949F1328C08CE710
:1027E000D81681F08DE7D81679F08BE7D8122BC078
:1027F00083E005C085E219C080E001C081E00E944D
:10280000FE1215C082E0FBCF84E0F9CF87E0F7CF5E
:102810000E949C130CC00E94A21309C00E94A51321
:1028200006C08FEFE81AF80A8D2D0E94C310E881C8
:10283000F981E00FF11FEA58FD4FD082888199811C
:10284000019699838883F70192CFDF91CF911F91F1
:102850000F91FF90EF90DF9008956F927F928F928B
:102860009F92AF92BF92CF92DF92EF92FF920F931F
:102870001F93CF93DF93CDB7DEB727970FB6F894AA
:10288000DEBF0FBECDBF188D098DAA8CBB8C6C8CA2
:102890007D8C612F8A2D0E94AE1019830A838E01D0
:1028A000025E1F4F650184E0CC0CDD1C8A95E1F7C8
:1028B000F3019080992009F47EC185E2981266C1E7
:1028C00043019FEF891A990AF301918180ED890FE5
:1028D0008A3080F420E080ED890F8A3060F4FAE0DD
:1028E0002F9F800D1124282F8FEF881A980AF4014A
:1028F0009081F1CF2FEF953509F4DEC078F59C3348
:1029000009F462C0A0F49E3209F46DC040F495321F
:1029100009F42AC19C3209F049C185E056C09A33B6
:1029200009F45BC09B3309F041C187E04EC092348B
:1029300009F4F7C050F49E3309F444C09F3309F002
:1029400035C19B830E949C1313C1943409F488C041
:1029500008F44DC0933509F4F8C028C1943609F441
:102960005CC098F49D35D9F150F4983509F4BDC098
:102970009B3509F01BC19B830E949F13F9C09236BF
:1029800009F4C2C0933699F111C1983709F4A3C074
:1029900080F4933709F4D9C0953709F007C138019D
:1029A000F2E06F0E711CF8014081518160E070E02F
:1029B0008CC09C3771F09D3771F09B3709F0F6C0E1
:1029C00083E003C080E001C081E09B830E94FE128F
:1029D000CFC082E0FACF84E0F8CF86E0F6CF9B83C9
:1029E0000E94A213C5C09B830E94A513C1C03801D9
:1029F000F2E06F0E711CF8011081812F0E94C3104C
:102A000029813A81F601E20FF31FEA58FD4F108346
:102A10002F5F3F4F3A832983A5C03801F2E06F0E44
:102A2000711CF8010081118117FF14C011950195E7
:102A300011098DE22F830E94C31089819A81F601CA
:102A4000E80FF91FEA58FD4F3DE2308301969A8363
:102A500089832F81A801662757FD6095762F35C0A1
:102A60003801F4E06F0E711CF801408151816281E0
:102A7000738177FF2AC070956095509541955F4F9F
:102A80006F4F7F4F8DE22F834B835C836D837E83FB
:102A90000E94C31089819A81F601E80FF91FEA5854
:102AA000FD4F3DE2308301969A8389837E816D815B
:102AB0005C814B812F8109C03801F4E06F0E711CDD
:102AC000F801408151816281738175018E010F5F30
:102AD0001F4F8AE037C03801F2E06F0E711CF80119
:102AE0004081518160E070E009C03801F4E06F0E70
:102AF000711CF801408151816281738175018E01E1
:102B00000F5F1F4F80E11EC03801F2E06F0E711C95
:102B1000F801408151812F3F09F420E160E070E02D
:102B20000CC03801F4E06F0E711CF8014081518136
:102B3000628173812F3F09F420E175018E010F5FDF
:102B40001F4F82E00E9413120DC03801F2E06F0E99
:102B5000711CA501BE016F5F7F4FF80180819181DB
:102B60000E94A813830122C085E29B830E94C310A8
:102B700029813A81F601E20FF31FEA58FD4F9B814C
:102B800090832F5F3F4F3A83298310C0892D0E9485
:102B9000C31029813A81F601E20FF31FEA58FD4F75
:102BA00090822F5F3F4F3A83298343013401FFEF27
:102BB0006F1A7F0A7DCE27960FB6F894DEBF0FBE40
:102BC000CDBFDF91CF911F910F91FF90EF90DF90DC
:102BD000CF90BF90AF909F908F907F906F9008950F
:102BE000FC018281938186179707ECF086E792E0DB
:102BF0009F938F931F921F921F921F920E942D14DA
:102C000086E892E09F938F931F921F921F9281E01C
:102C10008F930E942D148DB79EB70C960FB6F89423
:102C20009EBF0FBE8DBF0895CF92DF92EF92FF92AD
:102C30000F931F93CF93DF9300D000D01F92CDB797
:102C4000DEB7FE017096E190F1906F01F70180818F
:102C5000882309F429C1853209F01EC187010F5F5D
:102C60001F4FF701818190ED980F9A3078F420E0A2
:102C700090ED980F9A3058F4FAE02F9F900D1124A0
:102C8000292F0F5F1F4FF8018081F2CF2FEF85357D
:102C900009F4B4C070F58C3309F460C0A0F48E322E
:102CA00009F469C040F4853209F4F2C08C3209F0AD
:102CB000F6C085E05AC08A3309F456C08B3309F058
:102CC000EEC087E052C0823409F4C7C048F48E33A6
:102CD00009F442C08F3309F0E2C00E949C13DFC0A8
:102CE000843409F46BC008F449C0833509F4C5C0C5
:102CF000D6C0843609F44BC090F48D35C9F148F440
:102D0000883509F490C08B3509F0C9C00E949F1323
:102D1000C6C0823609F494C0833681F1C0C08837BA
:102D200009F477C080F4833709F4A7C0853709F028
:102D3000B6C07601F2E0EF0EF11CF6014081518140
:102D400060E070E064C08C3759F08D3759F08B37F4
:102D500009F0A5C083E009C080E007C081E005C09C
:102D600082E003C084E001C086E00E94FE1297C0AA
:102D70000E94A21394C00E94A51391C07601F2E0B4
:102D8000EF0EF11CF60180810E94C3107FC0760116
:102D9000F2E0EF0EF11CF601C080D180D7FE08C032
:102DA000D194C194D1088DE22D830E94C3102D814E
:102DB000A601662757FD6095762F29C07601F4E0BD
:102DC000EF0EF11CF601408151816281738177FF22
:102DD0001EC070956095509541955F4F6F4F7F4F26
:102DE0008DE22D8349835A836B837C830E94C310B9
:102DF0007C816B815A8149812D8109C07601F4E083
:102E0000EF0EF11CF60140815181628173818AE0ED
:102E100014C07601F2E0EF0EF11CF6014081518101
:102E200060E070E009C07601F4E0EF0EF11CF601FD
:102E3000408151816281738180E10E947C1126C0B2
:102E40007601F2E0EF0EF11CF601608171812F3FF7
:102E500009F420E180E090E00CC07601F4E0EF0E90
:102E6000F11CF60160817181828193812F3F09F409
:102E700020E1422F0E94EF1009C07601F2E0EF0E30
:102E8000F11CF601808191810E942D11670107C01C
:102E900085E20E94C31003C00E94C310870178011D
:102EA000FFEFEF1AFF0AD2CE0F900F900F900F9006
:102EB0000F90DF91CF911F910F91FF90EF90DF90D6
:102EC000CF900895CF92DF92EF92FF926B017C0139
:102ED000DC01CB0180569940A109B109813A984B98
:102EE000A140B10598F4A8EFBFEFA70196010E9499
:102EF000281A7C5D8B409F4FE4E0220F331F441F54
:102F0000551FEA95D1F70E94031A02C027E630E068
:102F100029B930BDFF90EF90DF90CF90089528E160
:102F20002AB926E820BD1BB80C9462175F9BFECF20
:102F30008CB108955D9BFECF8CB90895AF92BF927E
:102F4000CF92DF92EF92FF920F931F93CF93DF9375
:102F50001F92CDB7DEB76B017C01AA24A394B12CDC
:102F60004423F1F00FEF040FC50102C0880F991F31
:102F70000A95E2F78C01222717FD2095322F0C21AC
:102F80001D212E213F2181E0012B022B032B09F46F
:102F900080E0805D49830E949A1749814150E0CFCB
:102FA0000F90DF91CF911F910F91FF90EF90DF90E5
:102FB000CF90BF90AF900895CF93DF93EC018991AC
:102FC000882319F00E949A17FACFDF91CF910895C4
:102FD000FF920F931F93CF93DF938C01C8EED3E042
:102FE000F12C0E9496178D3029F4F801EF0DF11D98
:102FF000108210C08A30C9F3883021F4FF2011F00C
:10300000FA9405C0F801EF0DF11D8083F394219728
:10301000209739F78F2DDF91CF911F910F91FF905E
:1030200008957F928F929F92AF92BF92CF92DF923C
:10303000EF92FF920F931F93CF93DF93CDB7DEB73D
:103040002A970FB6F894DEBF0FBECDBF782ECB0106
:10305000BA01C22E22E0721216C04C2D2A960FB66B
:10306000F894DEBF0FBECDBFDF91CF911F910F91BE
:10307000FF90EF90DF90CF90BF90AF909F908F9098
:103080007F900C949E17611571058105910549F09B
:10309000FE0131967F018F01872C912CA12CB12C40
:1030A0001DC010E01C15A1F11A3091F180E30E94BF
:1030B0009A171F5FF7CF611571058105910599F08A
:1030C000D62EA50194010E94031ACA01B901729E6D
:1030D000D0181124F801D0820F5F1F4FD02EDE18B8
:1030E000DC1448F310C0FAE0FC1568F0F801108217
:1030F000F3CFFE01ED0DF11D80818A3038F0895C3F
:103100000E949A17DA94D110F4CF02C0805DF8CFF4
:103110002A960FB6F894DEBF0FBECDBFDF91CF91D8
:103120001F910F91FF90EF90DF90CF90BF90AF90E5
:103130009F908F907F9008958F929F92AF92BF92B1
:10314000CF92DF92EF92FF926B017C010E94C01A36
:103150004B015C012FEFAB01BC018AE00E9411180A
:103160008EE20E949A17C501B4010E94EC1A9B01DD
:10317000AC01C701B6010E945B1A20E034E244E7CB
:1031800059E40E947A1B0E94C01AAB01BC012FEFC8
:103190008AE0FF90EF90DF90CF90BF90AF909F902C
:1031A0008F900C941118CF92DF92EF92FF920F93B1
:1031B0001F93CF93DF9300D000D01F92CDB7DEB71F
:1031C000FE017096E190F1906F01F70180818823F4
:1031D00009F4F7C0853209F0ECC087010F5F1F4F7B
:1031E000F701818190ED980F9A3078F420E090ED0E
:1031F000980F9A3058F4FAE02F9F900D1124292F40
:103200000F5F1F4FF8018081F2CF2FEF883509F44F
:103210008FC0C8F4843409F44CC058F4823409F4E3
:10322000A1C038F5853209F0C7C085E20E949A171F
:10323000C3C0833509F4B2C0853509F464C086344F
:1032400009F0BAC09FC0863609F49CC040F48336AA
:1032500081F08436B9F0823609F0AEC076C0853789
:1032600009F447C0883709F459C0833709F0A4C06E
:1032700095C07601F2E0EF0EF11CF60180810E940C
:103280009A1795C07601F2E0EF0EF11CF601C080AE
:10329000D180D7FE08C0D194C194D1088DE22D838E
:1032A0000E949A172D81A601662757FD6095762FFB
:1032B00033C07601F4E0EF0EF11CF601408151813C
:1032C0006281738177FF28C0709560955095419514
:1032D0005F4F6F4F7F4F8DE22D8349835A836B83FE
:1032E0007C830E949A177C816B815A8149812D8150
:1032F00013C07601F2E0EF0EF11CF601408151811E
:1033000060E070E009C07601F4E0EF0EF11CF60118
:1033100040815181628173818AE014C07601F2E0BC
:10332000EF0EF11CF6014081518160E070E009C0B0
:103330007601F4E0EF0EF11CF601408151816281CB
:10334000738180E10E94111832C07601F2E0EF0E25
:10335000F11CF601608171812F3F09F420E180E0CA
:1033600090E00CC07601F4E0EF0EF11CF6016081F4
:103370007181828193812F3F09F420E2422F0E94C4
:103380009E1715C07601F4E0EF0EF11CF601608186
:103390007181828193810E949C1809C07601F2E0BC
:1033A000EF0EF11CF601808191810E94DC1767010C
:1033B00003C00E949A1787017801FFEFEF1AFF0AF6
:1033C00004CF0F900F900F900F900F90DF91CF913F
:1033D0001F910F91FF90EF90DF90CF90089597FB92
:1033E000072E16F4009407D077FD09D00E942D1AFD
:1033F00007FC05D03EF4909581959F4F08957095F8
:1034000061957F4F0895A1E21A2EAA1BBB1BFD01F7
:103410000DC0AA1FBB1FEE1FFF1FA217B307E407B3
:10342000F50720F0A21BB30BE40BF50B661F771F0B
:10343000881F991F1A9469F76095709580959095EB
:103440009B01AC01BD01CF010895B7FF0C94411A57
:103450000E94411A821B930B0895AA1BBB1B51E1CA
:1034600007C0AA1FBB1FA617B70710F0A61BB70BF4
:10347000881F991F5A95A9F780959095BC01CD0199
:1034800008950E944C1AA59F900DB49F900DA49F83
:10349000800D911D11240895A29FB001B39FC0011A
:1034A000A39F700D811D1124911DB29F700D811D70
:1034B0001124911D08955058BB27AA270ED0E0C0B3
:1034C000D1D030F0D6D020F031F49F3F11F41EF46B
:1034D000C6C00EF4E095E7FBBCC0E92FE2D080F354
:1034E000BA17620773078407950718F071F49EF501
:1034F000FAC00EF4E0950B2EBA2FA02D0B01B901E6
:1035000090010C01CA01A0011124FF27591B99F059
:10351000593F50F4503E68F11A16F040A22F232F65
:10352000342F4427585FF3CF469537952795A795B5
:10353000F0405395C9F77EF41F16BA0B620B730B5C
:10354000840BBAF09150A1F0FF0FBB1F661F771FCD
:10355000881FC2F70EC0BA0F621F731F841F48F482
:10356000879577956795B795F7959E3F08F0B3CF08
:103570009395880F08F09927EE0F979587950895F2
:1035800098D088F09F5790F0B92F9927B751A0F0A5
:10359000D1F0660F771F881F991F1AF0BA95C9F7E7
:1035A00012C0B13081F09FD0B1E008959CC0672F68
:1035B000782F8827B85F39F0B93FCCF38695779597
:1035C0006795B395D9F73EF4909580957095619580
:1035D0007F4F8F4F9F4F0895E89409C097FB3EF4AB
:1035E00090958095709561957F4F8F4F9F4F992350
:1035F000A9F0F92F96E9BB279395F69587957795CE
:103600006795B795F111F8CFFAF4BB0F11F460FF8D
:103610001BC06F5F7F4F8F4F9F4F16C0882311F0E5
:1036200096E911C0772321F09EE8872F762F05C0F9
:10363000662371F096E8862F70E060E02AF09A9594
:10364000660F771F881FDAF7880F9695879597F989
:10365000089597F99F6780E870E060E008959FEF14
:1036600080EC089500240A94161617061806090619
:10367000089500240A9412161306140605060895E8
:10368000092E0394000C11F4882352F0BB0F40F470
:10369000BF2B11F460FF04C06F5F7F4F8F4F9F4FB0
:1036A000089557FD9058440F551F59F05F3F71F032
:1036B0004795880F97FB991F61F09F3F79F0879599
:1036C0000895121613061406551FF2CF4695F1DF22
:1036D00008C0161617061806991FF1CF86957105B2
:1036E000610508940895E894BB2766277727CB01E6
:1036F00097F908950BD0C4CFB5DF28F0BADF18F0E2
:10370000952309F0A6CFABCF1124EECFCADFA0F3EB
:10371000959FD1F3950F50E0551F629FF001729F66
:10372000BB27F00DB11D639FAA27F00DB11DAA1F85
:10373000649F6627B00DA11D661F829F2227B00DD2
:10374000A11D621F739FB00DA11D621F839FA00D5D
:10375000611D221F749F3327A00D611D231F849FAD
:10376000600D211D822F762F6A2F11249F57504004
:103770008AF0E1F088234AF0EE0FFF1FBB1F661F9F
:10378000771F881F91505040A9F79E3F510570F058
:1037900060CFAACF5F3FECF3983EDCF38695779538
:1037A0006795B795F795E7959F5FC1F7FE2B880F53
:0E37B000911D9695879597F90895F894FFCF8F
:1037BE0080C090D0404850586068707810181E1F16
:1037CE001F1E181001030F1F1F0F03011B1B1B1BB6
:1037DE001B1B1B1B00000000000000001F11111F0F
:1037EE00040E1F1F0103071F1F0703010E111111E6
:1037FE001F1B1B1F0004040E1515110E61613131C4
:10380E000A00626231310A00636331310A00646476
:10381E0031310A00616132320A00626232320A00CC
:10382E00636332320A00646432320A0061613333F8
:10383E000A00626233330A00636333330A0064643E
:10384E0033330A00616134340A00626234340A0090
:10385E00636334340A00646434340A00253F00572D
:10386E00616974696E6720666F72006C6162656C67
:10387E007300525457210A0031313A257300506CAF
:10388E006561736520776169740031323A25730082
:10389E0031333A25730031343A25730032313A25EB
:1038AE00730032323A25730032333A2573003234C4
:1038BE003A25730033313A25730033323A257300BB
:1038CE0033333A25730033343A25730034313A25B5
:1038DE00730034323A25730034333A25730034348E
:1038EE003A257300696E697469616C697A617469ED
:1038FE006F6E00636F6D706C657465640025733A4E
:10390E00204F4E0025733A204F46460025733A202D
:10391E002564002D002B006F6B005374616E646282
:10392E0079004272696768746E657373004C6564E2
:10393E0020696E666F0044656C61792074696D65EF
:10394E00004465627567206D6F6465005061676540
:10395E00206E756D62657200255B00255D0053411A
:10396E005645004558495400253C253E007C0053E1
:10397E006176696E672E2E2E005361766564004364
:10398E00616E63656C6564002A20466972737420EB
:10399E00737461727420202A006D656D6F727920C8
:1039AE00636F6E6669672E2E2E00555342204D654D
:1039BE0064696100436F6E74726F6C6C6572005057
:0639CE006167653A00008C
:00000001FF
